:020000040800F2
:100000000000022049020008050D0008070D000845
:10001000090D00080B0D00080D0D00080000000080
:100020000000000000000000000000000F0D0008AC
:10003000130D000800000000170D00081B0D00083C
:100040009902000899020008990200089902000824
:100050009902000899020008990200089902000814
:100060009902000899020008990200089902000804
:1000700099020008990200089902000899020008F4
:1000800099020008990200089902000899020008E4
:1000900099020008990200089902000899020008D4
:1000A00099020008990200089902000899020008C4
:1000B00099020008990200089902000899020008B4
:1000C00099020008990200089902000899020008A4
:1000D0009902000899020008990200089902000894
:1000E0009902000899020008990200089902000884
:1000F0009902000899020008990200089902000874
:100100009902000899020008990200089902000863
:100110009902000899020008990200089902000853
:100120009902000899020008990200089902000843
:100130009902000899020008990200089902000833
:10014000990200089902000899020008250D00088C
:100150009902000899020008990200089902000813
:100160009902000899020008990200089902000803
:100170009902000899020008990200080000000096
:08018000990200089902000831
:1001880053B94AB9002908BF00281CBF4FF0FF31F6
:100198004FF0FF3000F00CB8ADF1080C6DE904CE5B
:1001A80008F03EFBDDF804E0DDE9022304B0704707
:1001B800704700BF0348044B834202D0034B03B18E
:1001C800184770477C0000207C00002000000000D9
:1001D8000548064B1B1AD90F01EBA301491002D0A1
:1001E800034B03B1184770477C0000207C000020B7
:1001F8000000000010B5064C237843B9FFF7DAFF7A
:10020800044B13B10448AFF300800123237010BDE1
:100218007C00002000000000C88D000808B5054BD0
:100228001BB105490548AFF30080BDE80840FFF75A
:10023800CFBF00BF0000000080000020C88D00086C
:10024800DFF834D002F0C6FF0C480D490D4A0023F0
:1002580002E0D458C4500433C4188C42F9D30A4A73
:100268000A4C002301E013600432A242FBD308F0D9
:1002780029FD00F00EF87047000002200000002061
:100288007C0000200C8E00087C000020980A0020CA
:10029800FEE708B507F0EEFB00F00EF800F004F9F1
:1002A80000F070F800F09CF800F0C8F800F0F2F9DF
:1002B80000F014FAFCE7000000B595B008AB302256
:1002C8000021184608F0E6FC03AB00221A605A60C9
:1002D8009A60DA601A6100230293284B1B6C274A44
:1002E80043F080531364254B1B6C03F08053029337
:1002F800029B00230193224B1B68214A43F480434D
:1003080013601F4B1B6803F480430193019B012377
:1003180008934FF48033099302230E934FF480031C
:100328000F93082310934FF4A87311930223129389
:100338000723139308AB184606F044FB0346002B2B
:1003480001D000F0A3F90F230393022304930023A1
:1003580005934FF4A05306934FF48053079303ABD0
:100368000521184606F0AAFD0346002B01D000F02F
:100378008DF900BF15B05DF804FB00BF00380240DE
:100388000070004008B5134B134A1A60114B134A0A
:100398005A60104B00229A600E4B0022DA600D4B17
:1003A8004FF480421A610B4B00225A61094B00221C
:1003B8009A61084B0022DA61064B00221A6205484E
:1003C80007F0DEFB0346002B01D000F05FF900BF09
:1003D80008BD00BF9800002000540040A08601001E
:1003E80008B5134B134A1A60114B4FF400725A6048
:1003F8000F4B00229A600E4B0022DA600C4B4FF430
:1004080000721A610A4B0C4A5A61094B00229A6120
:10041800074B0022DA61064B00221A62044807F0F3
:10042800F1FC0346002B01D000F030F900BF08BDF5
:10043800EC000020003C00400077010008B5184B94
:10044800184A1A60164B4FF482725A60144B0022F5
:100458009A60134B0022DA60114B00221A61104B8C
:1004680000225A610E4B4FF400729A610C4B002225
:10047800DA610B4B00221A62094B00225A62084BC0
:1004880000229A62064B0A22DA62054808F040F90F
:100498000346002B01D000F0F9F800BF08BD00BFEB
:1004A800340100200030014000B58DB007AB0022B8
:1004B8001A605A609A60DA601A61002306936D4BDD
:1004C8001B6B6C4A43F0100313636A4B1B6B03F0FE
:1004D80010030693069B00230593664B1B6B654A26
:1004E80043F004031363634B1B6B03F0040305938E
:1004F800059B002304935F4B1B6B5E4A43F080030C
:1005080013635C4B1B6B03F080030493049B002371
:100518000393584B1B6B574A43F001031363554B26
:100528001B6B03F001030393039B00230293514BBE
:100538001B6B504A43F0020313634E4B1B6B03F0D3
:1005480002030293029B002301934A4B1B6B494A07
:1005580043F008031363474B1B6B03F00803019335
:10056800019B00220821444807F070F9012201216B
:10057800424807F06BF900224FF21001404807F09B
:1005880065F908230793012308930023099300239F
:100598000A9307AB1946384806F0C2FF01230793B0
:1005A800012308930023099300230A9307AB1946F4
:1005B800324806F0B5FF0823079302230893002367
:1005C800099300230A9305230B9307AB19462B487D
:1005D80006F0A6FF012307934FF490130893002316
:1005E800099307AB1946274806F09AFF0423079397
:1005F800002308930023099307AB1946224806F005
:100608008FFF4FF480630793022308930023099315
:1006180000230A9305230B9307AB19461A4806F0E3
:100628007FFF4FF2100307930123089300230993D8
:1006380000230A9307AB1946114806F071FF2023DF
:100648000793002308930023099307AB19460C4826
:1006580006F066FF022307934FF4901308930023D4
:10066800099307AB1946044806F05AFF00BF0DB0BE
:100678005DF804FB00380240001002400008024008
:10068800000C0240000002400004024072B600BFA5
:10069800FEE7000008B501220D490E4800F072FC83
:1006A8000346002B01D0FFF7F1FF0B49094800F082
:1006B80014FD0346002B01D0FFF7E8FF054800F0C2
:1006C800A3FD0346002B01D0FFF7E0FF00BF08BDE4
:1006D800F50600088C0100200000002008B502483B
:1006E80000F0A2FD00BF08BD8C01002082B001907F
:1006F8000B468DF803309DF80330013B042B19D8C5
:1007080001A252F823F000BF3D0700082D0700089A
:100718003D0700083507000825070008074B032296
:100728001A7008E0054B02221A7004E0034B0122FC
:100738001A7000E000BF00BF02B0704764050020D7
:1007480000B58BB0019005AB00221A605A609A6020
:10075800DA601A61019B1B68B3F1A04F45D10023F1
:100768000493244B1B6B234A43F001031363214B6F
:100778001B6B03F001030493049B4FF40073059370
:10078800002306930023079305AB19461A4806F081
:10079800C7FE4FF4E0530593022306930023079303
:1007A800002308930A23099305AB1946124806F05B
:1007B800B7FE104B5B6B0F4A43F080035363002373
:1007C80003930C4B5B6C0B4A43F480435364094B13
:1007D8005B6C03F480430393039B002200214320B6
:1007E80007F012F9432007F02BF900BF0BB05DF8B2
:1007F80004FB00BF003802400000024000B583B08F
:100808000190019BD3F8DC33184601F00FF900BFC3
:1008180003B05DF804FB00B583B00190019BD3F8E9
:10082800DC33184601F040F900BF03B05DF804FB63
:1008380000B583B00190019BD3F8DC33184601F072
:1008480045F900BF03B05DF804FB82B001900B4688
:100858008DF8033013468DF8023000BF02B07047A0
:1008680000B583B00190019BD3F8DC33184601F042
:1008780005F900BF03B05DF804FB00B583B0019033
:10088800019BD3F8DC33184601F001F900BF03B02F
:100898005DF804FB00B583B00190019B93F8CC335D
:1008A800012B2AD1174A019BC2F8DC33019B154A58
:1008B800C3F8D023134B4FF0A0421A60114B082203
:1008C8005A71104B0122DA710E4B00229A710D4BAE
:1008D80002225A720B4B00229A720A4802F086FCD6
:1008E8000346002B01D0FFF7D1FE064803F020F99C
:1008F80003461946019801F08FF80023184603B003
:100908005DF804FB6805002000B585B00190002360
:100918008DF80F3000238DF80E30019BD3F8D033BB
:10092800184603F096F803468DF80F309DF80F30FF
:10093800184600F091F903468DF80E309DF80E30F8
:10094800184605B05DF804FB00B585B0019000239A
:100958008DF80F3000238DF80E30019BD3F8D0337B
:10096800184603F098F803468DF80F309DF80F30BD
:10097800184600F071F903468DF80E309DF80E30D8
:10098800184605B05DF804FB00B585B00190012359
:100998008DF80F30019BD3F8D033184603F0D5F803
:1009A8000346022B0ED0022B10D8002B02D0012BAD
:1009B80004D00BE000238DF80F300BE001238DF8F5
:1009C8000F3007E002238DF80F3003E001238DF884
:1009D8000F3000BF9DF80F30184605B05DF804FBD6
:1009E80000B585B0019000238DF80F3000238DF8F5
:1009F8000E30019BD3F8D033184603F068F803464D
:100A08008DF80F309DF80F30184600F025F9034691
:100A18008DF80E309DF80E30184605B05DF804FBD1
:100A280000B583B001900B468DF80330019BD3F8D5
:100A3800D0339DF803201146184603F067F80346A3
:100A4800184603B05DF804FB10B588B00590084659
:100A580011461A4603468DF813300B468DF81230AE
:100A680013468DF8113000238DF81F3000238DF8C0
:100A78001E30059BD3F8D0039DF811409DF8122035
:100A88009DF81310BDF8303002939DF82C30019377
:100A98009DF828300093234602F00EFC03468DF89B
:100AA8001F309DF81F30184600F0D6F803468DF821
:100AB8001E309DF81E30184608B010BD00B585B030
:100AC80001900B468DF8033000238DF80F3000237A
:100AD8008DF80E30019BD3F8D0339DF803201146D2
:100AE800184602F0B5FC03468DF80F309DF80F301C
:100AF800184600F0B1F803468DF80E309DF80E3018
:100B0800184605B05DF804FB10B588B00590084696
:100B180011461A4603468DF813300B468DF81230ED
:100B280013468DF8113000238DF81F3000238DF8FF
:100B38001E30059BD3F8D0039DF811409DF8122074
:100B48009DF813109DF834300393BDF830300293AC
:100B58000B9B01939DF828300093234602F09EFCDE
:100B680003468DF81F309DF81F30184600F074F8C2
:100B780003468DF81E309DF81E30184608B010BD8B
:100B880000B583B001900B468DF80330019BD3F874
:100B9800D0339DF803201146184602F0A5FF0346FE
:100BA800184603B05DF804FB00B583B001900B460E
:100BB8008DF80330019B93F8CC33012B04D19DF8B9
:100BC8000330184600F078F8C82006F0B7FF002375
:100BD800184603B05DF804FB84B001900B468DF80D
:100BE800033013468DF80230019BD3F8D0330393BA
:100BF8009DF80320039913461B019B1A9B000B4485
:100C080017331B78002B0CD09DF80320039913464B
:100C18001B019B1A9B000B443C339DF802201A7061
:100C28000BE09DF80320039913461B019B1A9B00B8
:100C38000B443D339DF802201A700023184604B077
:100C4800704700B583B00190019806F077FF00BFA8
:100C580003B05DF804FB000084B003468DF807304C
:100C680000238DF80F309DF80730032B1AD801A206
:100C780052F823F08D0C0008950C00089D0C000814
:100C8800A50C000800238DF80F300FE002238DF823
:100C98000F300BE001238DF80F3007E002238DF8A9
:100CA8000F3003E002238DF80F3000BF9DF80F309E
:100CB800184604B0704700BF00B585B003468DF8EC
:100CC80007309DF807308DF80F309DF80730002B5E
:100CD80003D100238DF80F3002E001238DF80F3087
:100CE8009DF80F301A460121034806F0AFFD00BFFA
:100CF80005B05DF804FB00BF00080240FEE7FEE710
:100D0800FEE7FEE7FEE700BF704700BF704700BF81
:100D1800704708B506F0FEFE00BF08BD08B50248DA
:100D280002F088FD00BF08BD6805002000B583B04B
:100D380000230193104B5B6C0F4A43F480435364C8
:100D48000D4B5B6C03F480430193019B00230093DC
:100D5800094B1B6C084A43F080531364064B1B6C09
:100D680003F080530093009B072006F043FE00BF6A
:100D780003B05DF804FB00BF0038024000B58BB03B
:100D8800019005AB00221A605A609A60DA601A6115
:100D9800019B1B68194A93422BD100230493184BDB
:100DA8001B6B174A43F002031363154B1B6B03F0CD
:100DB80002030493049B4FF41073059312230693C4
:100DC80001230793002308930423099305AB1946CD
:100DD8000C4806F0A5FB00230393094B1B6C084A3B
:100DE80043F400131364064B1B6C03F400130393C2
:100DF800039B00BF0BB05DF804FB00BF005400402C
:100E0800003802400004024000B58FB0019009ABE1
:100E180000221A605A609A60DA601A6105AB0022F3
:100E28001A605A609A60DA60019B1B682F4A9342E5
:100E380057D101230593C02306930223079305ABDB
:100E4800184606F033FA0346002B01D0FFF71EFCC4
:100E580000230493264B1B6C254A43F40043136478
:100E6800234B1B6C03F400430493049B002303935C
:100E78001F4B1B6B1E4A43F0010313631C4B1B6B78
:100E880003F001030393039B00230293184B1B6B8E
:100E9800174A43F004031363154B1B6B03F0040359
:100EA8000293029B1023099302230A9300230B93B6
:100EB80000230C9306230D9309AB19460D4806F041
:100EC8002FFB4FF4A453099302230A9300230B9397
:100ED80000230C9306230D9309AB1946064806F028
:100EE8001FFB00BF0FB05DF804FB00BF003C0040D3
:100EF80000380240000002400008024000B58BB0F4
:100F0800019005AB00221A605A609A60DA601A6193
:100F1800019B1B68184A93422AD100230493174B5C
:100F28005B6C164A43F480535364144B5B6C03F4B4
:100F380080530493049B00230393104B1B6B0F4AAD
:100F480043F0010313630D4B1B6B03F00103039381
:100F5800039BE023059302230693002307930023B2
:100F680008930523099305AB1946054806F0D8FAF6
:100F780000BF0BB05DF804FB0030014000380240B0
:100F88000000024000B585B00390029113468DF829
:100F98000730039B002B01D102232AE0039B9DF815
:100FA800072083F8CC23039B0022C3F87C23039BF0
:100FB8000022C3F88023039800F01FF8039B002247
:100FC80083F82323039B002283F82023039B00221A
:100FD80083F82123039B002283F82223029B002B02
:100FE80003D0039B029AC3F8D4230398FFF752FC5B
:100FF8000023184605B05DF804FB00B585B00190E4
:101008000023039309E0019A039BE0339B001344F8
:1010180000225A60039B01330393039B0F2BF2D9E1
:101028000023039309E0019A039B134403F58E738D
:1010380000221A70039B01330393039BB3F5007FCF
:10104800F1D3019B00221A70019B00225A70019B68
:1010580001229A70019B0022C3F8C423019B01223C
:101068001A76019B40229A71019B00225A76019BB5
:10107800002283F81C23019B012283F81D23019B76
:10108800002283F81F23019B002283F81E23019B63
:101098001C334FF480720021184607F0FBFD019BBA
:1010A80003F58E734FF400720021184607F0F2FD25
:1010B800019B03F2263312220021184607F0EAFDAD
:1010C800019B03F54E733E220021184607F0E2FD0E
:1010D8000023184605B05DF804FB84B00190009128
:1010E80000238DF80F30009B002B18D0019BD3F8FC
:1010F8008033002B0FD1019BD3F88033591C019A00
:10110800C2F88013019ADE33009942F823100023B5
:101118008DF80F3006E002238DF80F3002E002232D
:101128008DF80F309DF80F30184604B0704784B022
:1011380001900B468DF8033000238DF80F30019B8A
:1011480093F83C339DF803209A4205D2019B9DF801
:10115800032083F8242302E002238DF80F309DF842
:101168000F30184604B0704786B001900846114603
:101178001A4603468DF803300B468DF802301346A5
:101188008DF8013000238DF8173000230493019B5C
:1011980003F54E7303932FE09DF817301A2202FBD4
:1011A80003F30833039A134402330493049B5B79D3
:1011B8009DF803209A4203D09DF80330FF2B16D1E7
:1011C800049B9B799DF802209A4203D09DF8023037
:1011D800FF2B0CD1049BDB799DF801209A4203D0A8
:1011E8009DF80130FF2B02D19DF8173009E09DF8DA
:1011F800173001338DF817309DF81730012BCBD9F4
:10120800FF23184606B0704700B583B001900198D7
:10121800FFF77AFB01210198FFF7C6FC0023184667
:1012280003B05DF804FB000000B589B00590022307
:101238008DF81E3000238DF81F30059B93F821335D
:10124800DBB2012B02D1059B03221A70059B1B7888
:10125800DBB20B2B00F2CB8101A252F823F000BFC6
:1012680099120008CB1200083513000891150008E0
:10127800F7150008D5130008311500080F140008E9
:101288002F1400084D140008971400087915000859
:10129800059B93F82033DBB2002B00F0AA81059B55
:1012A80001221A70C820FFF7CCFC0598FFF798FBBD
:1012B800059B002283F81C23059B0022C3F8C82342
:1012C80097E1059B93F82333DBB2012B07D1059BEC
:1012D800002283F81F23059B02221A7098E1059BC0
:1012E800D3F8C833B3F57A7F14D9059B93F81F3325
:1012F8000133DAB2059B83F81F23059B93F81F334C
:10130800032B03D9059B0D221A7081E1059B00224E
:101318001A707DE1059BD3F8C83303F10A02059BD7
:10132800C3F8C8230A20FFF78CFC71E1059BD3F8AA
:10133800D433002B05D0059BD3F8D433042105986A
:1013480098476420FFF77DFC0598FFF71DFB0346CF
:101358001A46059B83F81D23059B05221A70002158
:10136800059801F022FB03461A46059B5A71802115
:10137800059801F01AFB03461A46059B1A71059B4E
:101388001979059B93F81C03059B93F81D33059A5F
:1013980092790292002201920093034680220598D6
:1013A80001F0CBFA059B5979059B93F81C03059B23
:1013B80093F81D33059A92790292002201920093C4
:1013C80003460022059801F0B8FA21E1059800F0DB
:1013D80025F903468DF81E309DF81E30DBB2002B30
:1013E80040F00981059B002283F82423059B93F88C
:1013F8003733012B03D1059B08221A70FBE0059BAC
:1014080007221A70F7E0059BD3F8D433002B00F0BD
:10141800F480059BD3F8D433012105989847059BA0
:1014280008221A70E9E0059B93F83D3319460598A0
:1014380000F06FFC0346002B40F0E180059B092279
:101448001A70DCE0059B93F83F3303F02003002B70
:1014580019D00121059800F080FC03468DF81E3054
:101468009DF81E30DBB2002B03D1059B0A221A70AF
:10147800C7E09DF81E30DBB2032B40F0C280059B0D
:101488000A221A70BDE0059B0A221A70B9E0059B72
:10149800D3F88033002B00F0B680059B0022C3F8F8
:1014A8007C2300238DF81F301AE09DF81F20059B30
:1014B800DE3253F822301A79059B93F847339A4263
:1014C80009D19DF81F20059BDE3253F82220059B89
:1014D800C3F87C2308E09DF81F3001338DF81F30D6
:1014E8009DF81F30002BE0D0059BD3F87C33002BF0
:1014F80016D0059BD3F87C339B680598984703461C
:10150800002B09D1059B06221A70059BD3F8D4330A
:1015180003210598984776E0059B0D221A7072E022
:10152800059B0D221A706EE0059BD3F87C33002BC7
:101538001AD0059BD3F87C331B6905989847034656
:101548008DF81E309DF81E30DBB2002B03D1059BB1
:101558000B221A7059E09DF81E30DBB2022B54D1D1
:10156800059B0D221A7050E0059B0D221A704CE065
:10157800059BD3F87C33002B49D0059BD3F87C33EB
:101588005B690598984742E0059B002283F8212370
:101598000598FFF732FD059BD3F87C33002B09D063
:1015A800059BD3F87C33DB6805989847059B002298
:1015B800C3F87C23059BD3F8D433002B05D0059BB7
:1015C800D3F8D433052105989847059B93F822331F
:1015D800DBB2012B07D1059B002283F82223059853
:1015E800FFF712FE14E00598FFF78EF910E000BF30
:1015F8000EE000BF0CE000BF0AE000BF08E000BF3B
:1016080006E000BF04E000BF02E000BF00E000BF4A
:101618000023184609B05DF804FB00BF00B589B087
:10162800059001238DF81F3001238DF81E30059B8E
:101638005B78072B00F2D98101A252F823F000BF92
:1016480069160008291700089917000829180008C2
:10165800991800080F1900085B190008A719000855
:101668000821059800F055FA03468DF81E309DF8BC
:101678001E30002B2ED1059B93F82D23059B9A71C4
:10168800059B01225A70059B1979059B93F81C0349
:10169800059B93F81D33059A9279029200220192D4
:1016A800009303468022059801F047F9059B597974
:1016B800059B93F81C03059B93F81D33059A9279B3
:1016C800029200220192009303460022059801F03D
:1016D80034F98CE19DF81E30032B40F08881059B7E
:1016E80093F81E330133DAB2059B83F81E23059B5A
:1016F80093F81E33032B03D9059B0D221A7076E14C
:10170800059B5B791946059801F075F9059B1B79CE
:101718001946059801F06FF9059B00221A7066E1D9
:101728001221059800F0F5F903468DF81E309DF852
:101738001E30002B03D1059B02225A7059E19DF8F7
:101748001E30032B40F05581059B93F81E3301335F
:10175800DAB2059B83F81E23059B93F81E33032BEF
:1017680003D9059B0D221A7043E1059B5B79194645
:10177800059801F040F9059B1B791946059801F079
:101788003AF9059B00225A70059B00221A7030E135
:101798000121059800F098FA03468DF81E309DF84F
:1017A8001E30002B30D10220FFF74BFA059B012297
:1017B80083F81C23059B03225A70059B1979059B06
:1017C80093F81C03059B93F81D33059A92790292AE
:1017D80000220192009303468022059801F0ADF89B
:1017E800059B5979059B93F81C03059B93F81D33BA
:1017F800059A9279029200220192009303460022F0
:10180800059801F09AF8F6E09DF81E30032B40F099
:10181800F280059B0D221A70059B00225A70EAE09F
:101828000921059800F0A8F903468DF81E309DF8A7
:101838001E30002B03D1059B04225A70DDE09DF871
:101848001E30032B40F0D980059B93F81E330133DB
:10185800DAB2059B83F81E23059B93F81E33032BEE
:1018680003D9059B0D221A70C7E0059B5B791946C1
:10187800059801F0C0F8059B1B791946059801F0F9
:10188800BAF8059B00225A70059B00221A70B4E032
:10189800059BB3F83A331946059800F06DF90346ED
:1018A8008DF81E309DF81E30002B03D1059B0522B4
:1018B8005A70A4E09DF81E30032B40F0A080059BD1
:1018C80093F81E330133DAB2059B83F81E23059B78
:1018D80093F81E33032B03D9059B0D221A708EE053
:1018E800059B5B791946059801F085F8059B1B79DE
:1018F8001946059801F07FF8059B00225A70059B50
:1019080000221A707BE0059B93F83433002B1CD01F
:10191800059B93F83413059B03F58E72FF230598F6
:1019280000F05BF903468DF81E309DF81E30002B41
:1019380003D1059B06225A7063E09DF81E30032BE5
:101948005FD1059B06225A705BE0059B06225A7000
:1019580057E0059B93F83533002B1CD0059B93F873
:101968003513059B03F58E72FF23059800F035F9B2
:1019780003468DF81E309DF81E30002B03D1059BC1
:1019880007225A703FE09DF81E30032B3BD1059B80
:1019980007225A7037E0059B07225A7033E0059BEF
:1019A80093F83633002B1CD0059B93F83613059B10
:1019B80003F58E72FF23059800F00FF903468DF8A2
:1019C8001E309DF81E30002B03D100238DF81F30E8
:1019D8001BE09DF81E30032B17D100238DF81F3014
:1019E80013E000238DF81F300FE000BF0EE000BFAA
:1019F8000CE000BF0AE000BF08E000BF06E000BF3F
:101A080004E000BF02E000BF00E000BF9DF81F3007
:101A1800184609B05DF804FB82B001900091019B63
:101A2800009AC3F8C42300BF02B0704700B583B062
:101A38000190019BD3F8C4335A1C019BC3F8C423FB
:101A4800019800F004F800BF03B05DF804FB00B58E
:101A580083B00190019B1B78DBB20B2B0AD1019B51
:101A6800D3F87C33002B05D0019BD3F87C339B69DA
:101A78000198984700BF03B05DF804FB82B001905D
:101A8800019B012283F8232300BF02B0704782B074
:101A98000190019B002283F82323019B012283F8F4
:101AA800212300BF02B0704782B00190019B012240
:101AB80083F82023019B002283F82123019B002225
:101AC80083F822230023184602B0704700B583B07C
:101AD8000190019B012283F82123019B002283F8B6
:101AE8002023019B002283F823230198FEF72CFF73
:101AF800019B1B791946019800F07DFF019B5B79DA
:101B08001946019800F077FF0023184603B05DF8E6
:101B180004FB00B587B003900B46ADF80A30BDF85A
:101B28000A30B3F5007F01D9032321E0039B03F5B5
:101B38008E72BDF80A30009313464FF4807200216C
:101B4800039800F086F803468DF817309DF8173093
:101B5800002B0BD1039B03F58E73BDF80A201946A1
:101B6800039800F045F903468DF817309DF81730B3
:101B7800184607B05DF804FB00B587B003900B4624
:101B8800ADF80A30039B1C330493BDF80A30B3F553
:101B9800807F01D903231CE0BDF80A300093049B21
:101BA8004FF400720021039800F053F803468DF8B3
:101BB80017309DF81730002B09D1BDF80A301A46A6
:101BC8000499039800F0C4F903468DF817309DF87E
:101BD8001730184607B05DF804FB00B589B00590CA
:101BE80003921A460B468DF813301346ADF81030A1
:101BF800BDF81030B3F5007F02D8039B002B01D14C
:101C0800032322E09DF813309BB243F440739AB249
:101C1800059B03F58E71BDF8103000930B4600212B
:101C2800059800F016F803468DF81F309DF81F3010
:101C3800002B08D1059B03F58E73BDF8102003997E
:101C4800184600F0A1FB9DF81F30184609B05DF852
:101C580004FB00B585B0039001930B468DF80B305B
:101C68001346ADF80830039B9B78012B20D19DF8D3
:101C78000B3063F07F03DAB2039B1A74039B0622CE
:101C88005A74039BBDF808205A82BDF8083003F443
:101C98007F43B3F5407F04D1039B40F209429A8207
:101CA80002E0039B00229A82039BBDF81820DA8287
:101CB800BDF818301A460199039800F0B1FB0346A5
:101CC800184605B05DF804FB00B583B001900B46DB
:101CD8008DF80330019B9B78012B10D1019B0022CA
:101CE8001A74019B05225A749DF803309AB2019B1D
:101CF8005A82019B00229A82019B0022DA820022EA
:101D08000021019800F08CFB0346184603B05DF8EB
:101D180004FB00B583B001900B46ADF80230019B7F
:101D28009B78012B0FD1019B00221A74019B092279
:101D38005A74019BBDF802205A82019B00229A82A4
:101D4800019B0022DA8200220021019800F068FB42
:101D58000346184603B05DF804FB00B583B0019054
:101D68000B468DF80330019B9B78012B10D1019B0A
:101D780000221A74019B03225A749DF803309AB208
:101D8800019B5A82019B00229A82019B0022DA82DF
:101D980000220021019800F043FB0346184603B0D7
:101DA8005DF804FB00B583B001900B468DF8033055
:101DB800019B9B78012B10D1019B02221A74019B75
:101DC80001225A74019B00225A829DF803309AB26C
:101DD800019B9A82019B0022DA820022002101984D
:101DE80000F01EFB0346184603B05DF804FB000034
:101DF80086B0039002911346ADF80630039B03F2B8
:101E08002633049300238DF81730029B002B01D151
:101E1800022397E0029B1A78049B1A70029B5A7857
:101E2800049B5A70029B02331B781A46029B0333A9
:101E38001B781B029BB213439AB2049B5A80029BE5
:101E48001A79049B1A71029B5A79049B5A71029B56
:101E58009A79049B9A71029BDA79049BDA71039B45
:101E680093F81D33002B04D0039B93F81D33012BEB
:101E78001BD1049BDB79202B0FDC082B0FDB083BE5
:101E8800324A22FA03F303F00103002B14BF0123A3
:101E98000023DBB2002B06D101E0402B03D0049BCA
:101EA8000822DA7100E000BF0FE0039B93F81D33AE
:101EB800022B07D1049BDB79082B06D0049B082250
:101EC800DA7102E003238DF81730BDF80630082BCD
:101ED80036D9029B08331B781A46029B09331B78B4
:101EE8001B029BB213439AB2049B1A81029B0A33CA
:101EF8001B781A46029B0B331B781B029BB21343B9
:101F08009AB2049B5A81029B0C331B781A46029B97
:101F18000D331B781B029BB213439AB2049B9A8120
:101F2800029B9A7B049B9A73029BDA7B049BDA736D
:101F3800029B1A7C049B1A74029B5A7C049B5A7459
:101F48009DF81730184606B0704700BF0101000120
:101F580000B58DB0039002911346ADF80630039B8F
:101F680003F54E73089300238DF82F3000238DF866
:101F7800273000238DF82630029B002B01D1022345
:101F8800E2E0029B0A930A9B1B78092B02D00A9B6A
:101F980009221A70029B1A78089B1A70029B5A78B9
:101FA800089B5A70029B02331B781A46029B033324
:101FB8001B781B029BB213439BB2B3F5807F28BFEB
:101FC8004FF480739AB2089B5A80029B1A79089B37
:101FD8001A71029B5A79089B5A71029B9A79089B3D
:101FE8009A71029BDA79089BDA71029B1A7A089B2C
:101FF8001A72BDF80630092B40F2A4800923ADF807
:1020080016300023079386E00DF1160319460A9847
:1020180000F0F1F90A900A9B5B78042B7BD10A9BAC
:102028001B78092B02D00A9B09221A709DF82730C9
:102038001A2202FB03F30833089A13440233079366
:102048000A99079800F084F800238DF826300023B9
:10205800069343E00DF1160319460A9800F0CBF9F0
:102068000A900A9B5B78052B38D1079B5B79012B7B
:1020780013D1079B9B79022B03D0079B9B79032BDA
:102088000BD1079BDB79002B0BD10A9B1B78092B03
:1020980007D00A9B09221A7003E00A9B07221A70CC
:1020A80000E000BF9DF827309DF826200132D200BD
:1020B8001A2101FB03F313440833089A1344043329
:1020C80006930A9A0699039800F06CF803468DF86F
:1020D8002F309DF8263001338DF826309DF82630B4
:1020E800012B0BD8079B1B799DF826209A4205D215
:1020F800089B5A88BDF816309A42ABD8079B1B79C3
:102108009DF826209A4201D203231DE09DF827302E
:1021180001338DF827309DF82730012B06D8089B0E
:102128005A88BDF816309A423FF66EAF089B1B7965
:10213800022B28BF0223DBB29DF827209A4201D246
:10214800032301E09DF82F3018460DB05DF804FB1D
:1021580082B001900091009B1A78019B1A70009B35
:102168005A78019B5A70009B9A78019B9A70009B41
:10217800DA78019BDA70009B1A79019B1A71009B2F
:102188005A79019B5A71009B9A79019B9A71009B1D
:10219800DA79019BDA71009B1A7A019B1A7200BFE7
:1021A80002B0704786B003900291019200238DF827
:1021B8001730019B1A78029B1A70019B5A78029B70
:1021C8005A70019B9A78029B9A70019BDA78029B5D
:1021D800DA70019B04331B781A46019B05331B7880
:1021E8001B029BB213439AB2029B9A80019B9A7975
:1021F800029B9A71029B9B88002B09D0029B9B88AB
:10220800B3F5806F04D8029B9B88B3F5007F02D991
:1022180003238DF81730039B93F81D33002B3AD115
:10222800029BDB7803F00303022B09D1029B9B88F6
:10223800B3F5007F40F2A38003238DF817309EE0AA
:10224800029BDB7803F00303002B08D1029B9B88D9
:10225800402B40F2948003238DF817308FE0029BC7
:10226800DB7803F00303012B05D0029BDB7803F036
:102278000303032B0BD1029B9B79002B03D0029BFA
:102288009B79102B7AD903238DF8173076E0032336
:102298008DF8173073E0039B93F81D33012B40D161
:1022A800029BDB7803F00303022B05D0029BDB784B
:1022B80003F00303002B07D1029B9B88402B5ED9B8
:1022C80003238DF817305AE0029BDB7803F00303F1
:1022D800012B0FD1029B9B79002B07D0029B9B7986
:1022E800102B03D8029B9B88402B48D903238DF8D9
:1022F800173044E0029BDB7803F00303032B0CD177
:10230800029B9B79002B04D0029B9B88B3F5806FBE
:1023180035D303238DF8173031E003238DF81730B8
:102328002DE0039B93F81D33022B23D1029BDB780E
:1023380003F00303002B07D1029B9B88082B1ED0B8
:1023480003238DF817301AE0029BDB7803F00303B0
:10235800032B0BD1029B9B79002B03D0029B9B88FC
:10236800082B0CD903238DF8173008E003238DF8C8
:10237800173004E003238DF8173000E000BF9DF804
:102388001730184606B0704786B00390029113467E
:10239800ADF80630039B01331B78032B28D1039B30
:1023A8001B789A1EBDF80630934228BF1346ADF835
:1023B8001430039B023303930023ADF816300EE06C
:1023C800BDF81630039A13441A78029B1A70029BC0
:1023D80001330293BDF816300233ADF81630BDF85C
:1023E8001620BDF814309A42EAD3029B00221A70D4
:1023F80000BF06B0704784B001900091009B1B8815
:10240800019A127813449AB2009B1A80019B1B7898
:102418001A46019B13440393039B184604B0704764
:1024280000B587B0039002911346ADF8063001233A
:102438008DF81730039B9B78012B02D0022B11D00B
:102448002DE0039B029A9A60039BBDF806209A81AF
:10245800039B01221A76039B02229A7001238DF8AE
:1024680017301CE0039800F021F803468DF8173068
:102478009DF81730002B03D09DF81730032B06D199
:10248800039B01229A70039B00221A7606E09DF8AE
:102498001730022B02D1039B01229A7000BF9DF8CE
:1024A8001730184607B05DF804FB000000B587B088
:1024B800039001238DF8173000238DF81630039B05
:1024C8001B7E013B0A2B00F2758101A252F823F012
:1024D800052500081F25000897250008BD250008C8
:1024E800012600082B2600088B260008AD260008C8
:1024F800F52600081B27000863270008039B03F143
:102508001001039B5B791A46039800F065F9039B59
:1025180002221A7659E1039B5B7919460398FEF764
:102528002FFB03468DF816309DF81630012B21D16C
:10253800039B1B7C23F07F038DF81530039BDB8AFC
:10254800002B0BD09DF81530802B03D1039B032261
:102558001A7631E1039B05221A762DE19DF8153094
:10256800802B03D1039B09221A7625E1039B0722BE
:102578001A7621E19DF81630042B04D09DF8163008
:10258800022B40F01981039B0B221A7614E1039B5E
:10259800D3F8C4339AB2039BDA81039B9968039BEF
:1025A8009A89039B1B79039800F05BF9039B04222B
:1025B8001A760AE1039B1B7919460398FEF7E0FA9D
:1025C80003468DF816309DF81630012B03D1039B76
:1025D80009221A76F2E09DF81630052B03D1032361
:1025E8008DF81730EAE09DF81630042B40F0E680AD
:1025F800039B0B221A76E1E0039B9968039B9A8957
:10260800039B5B7901200090039800F000F9039B7D
:10261800D3F8C4339AB2039BDA81039B06221A7655
:10262800D3E0039B5B7919460398FEF7A9FA0346A2
:102638008DF816309DF81630012B03D1039B072225
:102648001A76BDE09DF81630052B06D1039B0C22A7
:102658001A7603238DF81730B2E09DF81630022B56
:1026680003D1039B05221A76AAE09DF81630042BA5
:1026780040F0A680039B0B221A7602238DF81730B0
:102688009EE0039B1B7900220021039800F0E9F8E3
:10269800039BD3F8C4339AB2039BDA81039B0822C5
:1026A8001A7692E0039B1B7919460398FEF768FA9D
:1026B80003468DF816309DF81630012B06D1039B82
:1026C8000D221A7600238DF817307BE09DF816301E
:1026D800042B03D1039B0B221A7673E09DF8163066
:1026E800052B6FD103238DF817306BE0039B5B79C3
:1026F8000122009200220021039800F088F8039B31
:10270800D3F8C4339AB2039BDA81039B0A221A7660
:102718005BE0039B5B7919460398FEF731FA0346A1
:102728008DF816309DF81630012B06D100238DF850
:102738001730039B0D221A7646E09DF81630022BBF
:1027480003D1039B09221A763EE09DF81630042B2C
:102758003AD1039B0B221A7636E0039B5B7E01334A
:10276800DAB2039B5A76039B5B7E022B06D8039B47
:1027780001221A76039B01229A7026E0039BD3F864
:10278800D433062103989847039B00225A76039B6B
:102798005B791946039800F02EF9039B1B791946BB
:1027A800039800F028F9039B00221A7002238DF881
:1027B80017300AE000BF08E000BF06E000BF04E0F1
:1027C80000BF02E000BF00E000BF9DF817301846C8
:1027D80007B05DF804FB00BF00B589B0079006910B
:1027E80013468DF817309DF817100023039308231C
:1027F8000293069B0193002300930023002207986D
:10280800FEF782F90023184609B05DF804FB00B50D
:1028180089B00790069111461A460B46ADF8163056
:1028280013468DF81530079B93F81D33002B02D003
:1028380000238DF828309DF815109DF82830039353
:10284800BDF816300293069B0193012300930023E1
:1028580000220798FEF758F90023184609B05DF8DA
:1028680004FB00B589B00790069111461A460B463D
:10287800ADF8163013468DF815309DF81510002365
:102888000393BDF816300293069B0193012300932E
:10289800002301220798FEF737F90023184609B0EC
:1028A8005DF804FB00B589B00790069111461A46F9
:1028B8000B46ADF8163013468DF81530079B93F884
:1028C8001D33002B02D000238DF828309DF81510F9
:1028D8009DF828300393BDF816300293069B0193A8
:1028E80001230093022300220798FEF70DF9002325
:1028F800184609B05DF804FB00B589B00790069149
:1029080011461A460B46ADF8163013468DF81530A9
:102918009DF8151000230393BDF816300293069B0B
:10292800019301230093022301220798FEF7ECF894
:102938000023184609B05DF804FB00B587B0059080
:10294800084611461A4603468DF813300B468DF893
:10295800123013468DF811309DF811009DF81220A1
:102968009DF81310BDF8283002939DF82430019388
:102978009DF82030009303460598FEF765F800237C
:10298800184607B05DF804FB00B583B001900B460C
:102998008DF803309DF8033019460198FEF78EF83C
:1029A8000023184603B05DF804FB00B585B001901C
:1029B8000B468DF80330019800F03AF80346ADF85D
:1029C8000E30BDF80E304FF6FF7293420CD09DF8D2
:1029D8000320BDF80E3003F00F0342F400420199C2
:1029E800E0339B000B445A60BDF80E30DBB218464A
:1029F80005B05DF804FB82B001900B468DF80330FA
:102A08009DF803300F2B0FD89DF80330019AE0335F
:102A18009B0013445A689DF80330C2F30E020199D3
:102A2800E0339B000B445A600023184602B07047FD
:102A380084B0019000238DF80F3000238DF80F30FB
:102A480013E09DF80F30019AE0339B0013445B6854
:102A580003F40043002B03D19DF80F309BB20AE02A
:102A68009DF80F3001338DF80F309DF80F300F2B84
:102A7800E7D94FF6FF73184604B0704710B588B011
:102A880005900123022202210598FEF76DFB0346FB
:102A98008DF81F309DF81F30FF2B03D09DF81F3095
:102AA800012B01D9022350E19DF81F3019460598E2
:102AB800FEF73DFB03468DF81E309DF81E30002BB7
:102AC80001D0022341E1059BD3F87C43502006F056
:102AD80023F80346E361059BD3F87C33DB6906934F
:102AE800069B002B01D102232FE1502200210698DA
:102AF80006F0D0F89DF81F30059A1A2101FB03F360
:102B0800134403F24E331B785BB2002B17DA9DF89F
:102B18001F30059A1A2101FB03F3134403F24E33C5
:102B28001A78069B5A709DF81F30059A1A2101FBE6
:102B380003F3134403F554731A88069B5A81069BC2
:102B48005B7819460598FFF730FF03461A46069B3F
:102B58001A70069B1978069B5878059B93F81C43B6
:102B6800059B93F81D33069A52890292032201921B
:102B78000093234602460598FFF7DFFE069B1B7865
:102B8800002219460598FEF727F8002300220A219B
:102B98000598FEF7E9FA03468DF81F309DF81F30B7
:102BA800FF2B03D09DF81F30012B01D90223CCE065
:102BB8009DF81F30059A1A2101FB03F3134403F211
:102BC8004E331B785BB2002B18DA9DF81F30059A3C
:102BD8001A2101FB03F3134403F24E331A78069BC0
:102BE800DA739DF81F30059A1A2101FB03F3134489
:102BF80003F554731A88069B5A8317E09DF81F3013
:102C0800059A1A2101FB03F3134403F24E331A7891
:102C1800069B9A739DF81F30059A1A2101FB03F34E
:102C2800134403F554731A88069B1A839DF81F30C2
:102C3800059A1A2101FB03F3134403F256331B7858
:102C48005BB2002B18DA9DF81F30059A1A2101FB98
:102C580003F3134403F256331A78069BDA739DF88C
:102C68001F30059A1A2101FB03F3134403F5567329
:102C78001A88069B5A8317E09DF81F30059A1A2177
:102C880001FB03F3134403F256331A78069B9A7335
:102C98009DF81F30059A1A2101FB03F3134403F52D
:102CA80056731A88069B1A83069B9B7B19460598C0
:102CB800FFF77BFE03461A46069B5A73069BDB7B8F
:102CC80019460598FFF771FE03461A46069B1A73C4
:102CD800069B597B069B987B059B93F81C43059B99
:102CE80093F81D33069A128B0292022201920093E6
:102CF800234602460598FFF720FE069B197B069B94
:102D0800D87B059B93F81C43059B93F81D33069AC3
:102D1800528B0292022201920093234602460598A2
:102D2800FFF70BFE069B002283F84C20069B5B7B7B
:102D3800002219460598FDF74FFF069B1B7B0022D2
:102D480019460598FDF748FF0023184608B010BD3E
:102D580000B585B00190019BD3F87C33DB69039300
:102D6800039B1B78002B0ED0039B1B7819460198F8
:102D7800FFF70AFE039B1B7819460198FFF73BFEF5
:102D8800039B00221A70039B1B7B002B0ED0039B16
:102D98001B7B19460198FFF7F7FD039B1B7B194620
:102DA8000198FFF728FE039B00221A73039B5B7BA5
:102DB800002B0ED0039B5B7B19460198FFF7E4FDBF
:102DC800039B5B7B19460198FFF715FE039B0022C6
:102DD8005A73019BD3F87C33DB69002B0BD0019B22
:102DE800D3F87C33DB69184605F09EFE019BD3F8C7
:102DF8007C330022DA610023184605B05DF804FB35
:102E080000B585B00190019BD3F87C33DB6903934F
:102E1800039B40331946019800F0BAF803468DF831
:102E28000B309DF80B30002B05D1019BD3F8D43320
:102E38000221019898479DF80B30184605B05DF8B7
:102E480004FB000000B585B0019001238DF80F3018
:102E580000238DF80E30019BD3F87C33DB69029395
:102E6800029B93F84C30042B7FD801A252F823F030
:102E78008D2E0008952E0008CB2E0008452F00083F
:102E8800532F000800238DF80F3075E0029B9B6CD0
:102E98001946019800F09AF803468DF80E309DF80F
:102EA8000E30002B04D1029B022283F84C205EE0F6
:102EB8009DF80E30012B5AD0029B042283F84C2037
:102EC80055E0029B40331946019800F061F803462B
:102ED8008DF80E309DF80E30002B26D1029B002273
:102EE80083F84C20029B93F84420029B9B6C1B792F
:102EF8009A423ED1029B93F84620029B9B6C9B7999
:102F08009A4236D1029B93F84520029B9B6C5B79D1
:102F18009A422ED1029B1A6C029B9B6C1B689A42A8
:102F280027D1019800F050F923E09DF80E30012BCD
:102F38001FD0029B042283F84C201AE0019800F06D
:102F480063F8019800F0D9F816E000210198FEF71F
:102F580029FF03468DF80E309DF80E30002B0AD15C
:102F6800029B002283F84C2005E000BF04E000BF6C
:102F780002E000BF00E000BF9DF80F30184605B022
:102F88005DF804FB82B001900023184602B0704738
:102F980000B583B001900091019BA1221A74019B96
:102FA80021225A74019B00225A82019B00229A8294
:102FB800019B0722DA82009B072219460198FFF736
:102FC8002FFA0346184603B05DF804FB00B583B03A
:102FD80001900091019B21221A74019B20225A74AE
:102FE800019B00225A82019B00229A82019B0722A0
:102FF800DA82009B072219460198FFF711FA034667
:10300800184603B05DF804FB00B587B00390039B36
:10301800D3F87C33DB69059300238DF81330059BC7
:1030280093F84D30012B02D0022B23D061E0059B91
:103038005B6A059A128B93420BD9059BD969059B4C
:103048001A8B059B5B7B012000900398FFF72AFCF5
:103058000BE0059BD969059B5B6A9AB2059B5B7B74
:10306800012000900398FFF71DFC059B022283F8BE
:103078004D203EE0059B5B7B19460398FDF780FDDC
:1030880003468DF813309DF81330012B28D1059B8A
:103098005B6A059A128B93420ED9059B5B6A059A67
:1030A800128B9A1A059B5A62059BDB69059A128B4B
:1030B8001A44059BDA6102E0059B00225A62059BCF
:1030C8005B6A002B04D0059B012283F84D200FE09A
:1030D800059B002283F84D20039800F06BF807E069
:1030E8009DF81330022B03D1059B012283F84D2054
:1030F80000BF00BF07B05DF804FB00B587B00190C2
:10310800019BD3F87C33DB69059300238DF81330DA
:10311800059B93F84E30032B02D0042B0ED045E0CC
:10312800059B196A059B5A8B059B1B7B0198FFF72A
:10313800E3FB059B042283F84E2037E0059B1B7BAD
:1031480019460198FDF71CFD03468DF813309DF8CC
:103158001330012B29D1059B1B7B19460198FDF7DC
:103168005FFC0390059B9B6A039A9A4216D0059BC5
:103178005B8B1A46039B934210D1059B9A6A039B6B
:10318800D21A059B9A62059B1A6A039B1A44059BEF
:103198001A62059B032283F84E2006E0059B002255
:1031A80083F84E20019800F00AF800BF00BF07B06E
:1031B8005DF804FB82B0019000BF02B0704782B096
:1031C800019000BF02B0704782B0019000BF02B00A
:1031D80070470000044BD3F88830034A43F4700367
:1031E800C2F8883000BF704700ED00E000B587B036
:1031F8000390039B002B01D1012359E0039B1B681B
:103208000593039B93F8D533DBB2002B06D1039BC0
:10321800002283F8D4230398FDF792FA039B032234
:1032280083F8D523059BB3F1A04F02D1039B00225D
:103238009A71039B1B68184602F0C0FA039B186832
:10324800039B1A7C8DF8002004330ECB02F045FA5C
:103258000346002B05D0039B022283F8D5230123C4
:1032680026E0039B1B680121184602F0B3FA0346C7
:10327800002B05D0039B022283F8D523012317E0F6
:10328800039B1868039B1A7C8DF8002004330ECB2F
:1032980002F044FC0346002B05D0039B022283F86E
:1032A800D523012304E0039B012283F8D5230023BF
:1032B800184607B05DF804FB10B58AB005900846BB
:1032C80011461A4603468DF813300B468DF8123016
:1032D80013468DF81130BDF838300993059B93F8E3
:1032E800D433012B01D10223AFE0059B012283F8DF
:1032F800D4239DF81320059913461B019B1A9B00A4
:103308000B44193300221A709DF8132005991346AF
:103318001B019B1A9B000B4414339DF811201A7053
:103328009DF81320059913461B019B1A9B000B441B
:1033380015339DF813201A709DF81320059913462C
:103348001B019B1A9B000B4426339DF834201A70EE
:103358009DF813209DF8123003F07F03D8B2059929
:1033680013461B019B1A9B000B44163302461A7026
:103378009DF813301946059800F0F4FB9DF91230BA
:10338800002B0BDA9DF81320059913461B019B1A95
:103398009B000B44173301221A700AE09DF8132092
:1033A800059913461B019B1A9B000B4417330022F7
:1033B8001A70059B1B68184602F012FD08909DF8CC
:1033C8003430012B0BD19DF83030012B07D1089BED
:1033D800002B04D1099BBC2B01D9BC2309939DF870
:1033E8001320059913461B019B1A9B000B441833A5
:1033F8009DF830201A709DF81320099B98B2059902
:1034080013461B019B1A9B000B44283302461A8063
:10341800059B1868099B9BB29DF811409DF81220E6
:103428009DF8131002939DF8343001939DF83030C5
:103438000093234602F0F2FC03468DF81F30059BEB
:10344800002283F8D4239DF81F3018460AB010BD17
:1034580000B585B001900B468DF8033000238DF838
:103468000F30019B93F8D433012B01D1022311E0D3
:10347800019B012283F8D423019B1B689DF803203C
:103488001146184603F0B2F8019B002283F8D423B2
:103498009DF80F30184605B05DF804FB00B583B001
:1034A8000190084611461A4603468DF803300B462C
:1034B8008DF8023013468DF801309DF803200199EC
:1034C80013461B019B1A9B000B4417339DF80220DF
:1034D8001A709DF80320019913461B019B1A9B0043
:1034E8000B4426339DF801201A709DF81030002BEC
:1034F80017D19DF80320019913461B019B1A9B00C5
:103508000B442A3303221A709DF8032001991346AD
:103518001B019B1A9B000B4419339DF81C201A7041
:103528000AE09DF80320019913461B019B1A9B0092
:103538000B442A3302221A709DF80130032B00F243
:103548001C8101A252F823F0613500086B3700088E
:103558003B360008D33600089DF81030012B40F0A8
:103568000E819DF80230002B32D1BDF81830002BA7
:103578000AD19DF80320019913461B019B1A9B0051
:103588000B443D3301221A709DF80320019913461C
:103598001B019B1A9B000B443D331B78002B0BD15E
:1035A8009DF80320019913461B019B1A9B000B44AD
:1035B8002A3300221A70E2E09DF80320019913468D
:1035C8001B019B1A9B000B442A3302221A70D6E077
:1035D8009DF80320019913461B019B1A9B000B447D
:1035E8001A331B78012B40F0CA809DF803200199FB
:1035F80013461B019B1A9B000B443C331B78002B82
:103608000BD19DF80320019913461B019B1A9B00BF
:103618000B442A3300221A70B1E09DF80320019967
:1036280013461B019B1A9B000B442A3302221A7073
:10363800A5E09DF80230002B23D19DF803200199C5
:1036480013461B019B1A9B000B443D331B78002B30
:103658000BD19DF80320019913461B019B1A9B006F
:103668000B442A3300221A708AE09DF8032001993E
:1036780013461B019B1A9B000B442A3302221A7023
:103688007EE09DF80320019913461B019B1A9B00BD
:103698000B443C331B78002B0BD19DF80320019978
:1036A80013461B019B1A9B000B442A3300221A70F5
:1036B80066E09DF80320019913461B019B1A9B00A5
:1036C8000B442A3302221A705AE09DF80230002B6C
:1036D80023D19DF80320019913461B019B1A9B00D7
:1036E8000B443D331B78002B0BD19DF80320019927
:1036F80013461B019B1A9B000B442A3300221A70A5
:103708003EE09DF80320019913461B019B1A9B007C
:103718000B442A3302221A7032E09DF803200199E3
:1037280013461B019B1A9B000B443C331B78002B50
:103738000BD19DF80320019913461B019B1A9B008E
:103748000B442A3300221A701AE09DF803200199CD
:1037580013461B019B1A9B000B442A3302221A7042
:103768000EE09DF80320019913461B019B1A9B004C
:103778000B442A3300221A7002E000BF00E000BFA9
:103788009DF80320019913461B019B1A9B000B44CB
:103798002C33059A1A609DF80320BDF8181001987B
:1037A80013461B019B1A9B000344343319609DF890
:1037B8000320019913461B019B1A9B000B444C33B1
:1037C80000221A709DF80320019913461B019B1AC9
:1037D8009B000B44383300221A609DF8032001999E
:1037E80013461B019B1A9B000B4415339DF80320BD
:1037F8001A709DF80320019913461B019B1A9B0020
:103808000B444D3300221A70019B18689DF8032061
:1038180013461B019B1A9B001033019A1344191D70
:10382800019B9B791A4602F043FC0346184603B0F5
:103838005DF804FB00B587B00190019B1B680493F9
:10384800049B0393019B1B68184602F02BF903465F
:10385800012B40F0FB80019B1B68184602F0F5F82D
:103868000346002B00F0F180019B1B68184602F00C
:10387800ECF8034603F40013B3F5001F04D1019BD1
:103888001B684FF400125A61019B1B68184602F02E
:10389800DCF8034603F48013B3F5801F04D1019BC1
:1038A8001B684FF480125A61019B1B68184602F08E
:1038B800CCF8034603F08063B3F1806F04D1019B19
:1038C8001B684FF080625A61019B1B68184602F022
:1038D800BCF8034603F00203022B03D1019B1B68CB
:1038E80002225A61019B1B68184602F0AEF8034693
:1038F80003F00053B3F1005F20D1019B1B684FF028
:1039080000525A61039B03F588631B6803F00103A7
:10391800002B13D11021049801F0AAFF049801F09C
:10392800D4FF019B5B7A022B05D1019B1B68012107
:10393800184602F0B9F90198FCF77AFF019B1B6859
:10394800184602F082F8034603F08073B3F1807FD3
:1039580002D1019801F04FFE019B1B68184602F046
:1039680074F8034603F00803082B06D10198FCF706
:1039780045FF019B1B6808225A61019B1B6818467A
:1039880002F063F8034603F00073B3F1007F39D106
:10399800019B1B68184602F01DFE02900023059348
:1039A80025E0059B03F00F03029A22FA03F303F0C4
:1039B8000103002B18D0059B5A01039B134403F500
:1039C800A0631B6803F40043B3F5004F06D1059BC1
:1039D800DBB21946019800F0FAF805E0059BDBB266
:1039E8001946019800F0F7FF059B01330593019BE9
:1039F8005B791A46059B9342D3D3019B1B684FF012
:103A080000725A61019B1B68184602F01EF80346B3
:103A180003F01003102B01D1012300E00023002B39
:103A280014D0019B1B689A69019B1B6822F0100245
:103A38009A61019801F001FD019B1B689A69019B3D
:103A48001B6842F010029A6100E000BF07B05DF801
:103A580004FB00B583B00190019B93F8D433012B8C
:103A680001D1022313E0019B012283F8D423019B97
:103A78001B680121184602F07CF9019B1B68184657
:103A880001F090FE019B002283F8D42300231846FE
:103A980003B05DF804FB00B583B00190019B93F877
:103AA800D433012B01D102230DE0019B012283F8BD
:103AB800D423019B1B68184602F0EEFE019B0022EE
:103AC80083F8D4230023184603B05DF804FB00B53F
:103AD80083B00190019B1B68184602F021F9034648
:103AE800184603B05DF804FB82B001900B468DF8D0
:103AF80003309DF80320019913461B019B1A9B0074
:103B08000B444C331B78184602B0704782B00190C2
:103B18000B468DF803309DF80320019913461B01CD
:103B28009B1A9B000B4438331B68184602B0704739
:103B380000B583B00190019B1B68184602F062F93A
:103B48000346184603B05DF804FB00B583B0019046
:103B5800019B1B68184602F043F90346184603B058
:103B68005DF804FB82B001900B468DF803309DF898
:103B78000320019913461B019B1A9B000B441A331F
:103B880000221A709DF80320019913461B019B1A05
:103B98009B000B441B3300221A709DF803200199E7
:103BA80013461B019B1A9B000B44253300221A70F5
:103BB8009DF80320019913461B019B1A9B000B4497
:103BC800243300221A700023184602B0704700B54B
:103BD80087B001900B468DF80330019B1B68059355
:103BE800059B0493019B1B689DF80320114618460A
:103BF80001F039FF034603F00403042B1DD19DF89F
:103C080003305A01049B134403F5A0631A460423A6
:103C180093609DF80320019913461B019B1A9B0092
:103C28000B444D3307221A70019B1B689DF8032033
:103C38001146184602F0DAFCAEE0019B1B689DF8BD
:103C480003201146184601F00EFF034603F4807363
:103C5800B3F5807F1ED19DF803305A01049B1344AD
:103C680003F5A0631A464FF4807393609DF8032010
:103C7800019913461B019B1A9B000B444D330822E4
:103C88001A70019B1B689DF803201146184602F024
:103C9800ADFC81E0019B1B689DF803201146184686
:103CA80001F0E1FE034603F00803082B1DD19DF83F
:103CB80003305A01049B134403F5A0631A460823F2
:103CC80093609DF80320019913461B019B1A9B00E2
:103CD8000B444D3306221A70019B1B689DF8032084
:103CE8001146184602F082FC56E0019B1B689DF8BD
:103CF80003201146184601F0B6FE034603F480631C
:103D0800B3F5806F1ED19DF803305A01049B13440C
:103D180003F5A0631A464FF4806393609DF803206F
:103D2800019913461B019B1A9B000B444D33092232
:103D38001A70019B1B689DF803201146184602F073
:103D480055FC29E0019B1B689DF803201146184685
:103D580001F089FE034603F08003802B1CD19DF8F7
:103D680003305A01049B134403F5A0631A468023C9
:103D780093609DF80320019913461B019B1A9B0031
:103D88000B444D3307221A70019B1B689DF80320D2
:103D98001146184602F02AFC019B1B689DF8032077
:103DA8001146184601F05FFE034603F40073B3F5AD
:103DB800007F14D1019B1B689DF80320114618460B
:103DC80002F014FC9DF803305A01049B134403F5D8
:103DD800A0631A464FF40073936000F0F9BD019B8D
:103DE8001B689DF803201146184601F03CFE034667
:103DF80003F00103012B40F045819DF803305A017F
:103E0800049B134403F5A0631A46202393609DF88E
:103E18000320019913461B019B1A9B000B441B337B
:103E28001B78012B1CD19DF80320019913461B0117
:103E38009B1A9B000B441B3300221A709DF8033019
:103E48005A01049B134403F5A0635B689DF80320A3
:103E58005101049A0A4402F5A06223F480335360A6
:103E6800019B9B79002B1ED09DF8032001991346D6
:103E78001B019B1A9B000B44303319689DF80330D3
:103E88005A01049B134403F5A0631B69C3F312038F
:103E98009DF80320C91A019813461B019B1A9B0021
:103EA8000344383319609DF80320019913461B0118
:103EB8009B1A9B000B444D3301221A709DF8032076
:103EC800019913461B019B1A9B000B4444330022A3
:103ED8001A609DF803305A01049B134403F5A0634C
:103EE8001A46012393609DF80320019913461B018C
:103EF8009B1A9B000B4426331B78002B0BD09DF894
:103F08000320019913461B019B1A9B000B4426337F
:103F18001B78022B12D1019B1B689DF803201146C8
:103F2800184602F063FB9DF803305A01049B1344C2
:103F380003F5A0631A461023936044E09DF803201C
:103F4800019913461B019B1A9B000B4426331B78CF
:103F5800032B0BD09DF80320019913461B019B1AD4
:103F68009B000B4426331B78012B2CD19DF8033082
:103F78005A01049B134403F5A0631B689DF80320B2
:103F88005101049A0A4402F5A06243F000531360F9
:103F98009DF80320019913461B019B1A9B000B44B3
:103FA8004C3301221A709DF80320019913461B0116
:103FB8009B1A9B000B444C331A789DF80330194622
:103FC8000198FCF742FC019B9B79012B40D19DF89D
:103FD8000320019913461B019B1A9B000B4438339D
:103FE80019689DF80320019813461B019B1A9B0032
:103FF800034428331B880B44591E9DF8032001985D
:1040080013461B019B1A9B00034428331B88B1FBF2
:10401800F3F303F00103002B00F0DA849DF803208A
:10402800019913461B019B1A9B000B443C331B78D8
:104038009DF8032083F00103D8B2019913461B01B0
:104048009B1A9B000B443C3302461A7000F0C0BC1C
:104058009DF80320019913461B019B1A9B000B44F2
:104068003C331B789DF8032083F00103D8B20199F3
:1040780013461B019B1A9B000B443C3302461A70E3
:1040880000F0A6BC019B1B689DF80320114618464A
:1040980001F0E9FC034603F02003202B36D19DF8FC
:1040A80003305A01049B134403F5A0631A462023E6
:1040B80093609DF80320019913461B019B1A9B00EE
:1040C8000B441A331B78012B40F082849DF803209F
:1040D800019913461B019B1A9B000B441B330122B9
:1040E8001A709DF80320019913461B019B1A9B0027
:1040F8000B444D3303221A70019B1B689DF8032063
:104108001146184602F072FA00F062BC019B1B6867
:104118009DF803201146184601F0A5FC034603F05C
:104128000203022B40F04C839DF803305A01049B94
:10413800134403F5A0631A46022393609DF80320F5
:10414800019913461B019B1A9B000B444D331B78A6
:10415800012B16D19DF80320019913461B019B1AC8
:104168009B000B444D3302221A709DF803200199DD
:1041780013461B019B1A9B000B444C3301221A70F7
:104188000DE39DF80320019913461B019B1A9B0020
:104198000B444D331B78062B16D19DF8032001994B
:1041A80013461B019B1A9B000B444D3302221A70C5
:1041B8009DF80320019913461B019B1A9B000B4491
:1041C8004C3305221A70EAE29DF803200199134640
:1041D8001B019B1A9B000B444D331B78072B0CD0FB
:1041E8009DF80320019913461B019B1A9B000B4461
:1041F8004D331B78092B40F0B5809DF803200199B9
:1042080013461B019B1A9B000B444D3302221A7064
:104218009DF80320019913461B019B1A9B000B4430
:1042280044331B68591C019813461B019B1A9B00B9
:104238000344443319609DF80320019913461B0178
:104248009B1A9B000B4444331B68022B4AD99DF8E8
:104258000320019913461B019B1A9B000B4444330E
:1042680000221A609DF80320019913461B019B1A2E
:104278009B000B441A331B78012B27D19DF8032090
:10428800019913461B019B1A9B000B441B33002208
:104298001A709DF80320019913461B019B1A9B0075
:1042A8000B441C3300221A709DF803305A01049BFA
:1042B800134403F5A0635B689DF803205101049A39
:1042C8000A4402F5A06223F4803353609DF803206A
:1042D800019913461B019B1A9B000B444C33042283
:1042E8001A705BE29DF80320019913461B019B1A83
:1042F8009B000B444C3302221A709DF8032001994D
:1043080013461B019B1A9B000B4426331B78002B7A
:104318000CD09DF80320019913461B019B1A9B00A2
:104328000B4426331B78022B40F038829DF803306B
:104338005A01049B134403F5A0631B680393039B72
:1043480023F080430393039B43F0004303939DF8BA
:1043580003305A01049B134403F5A0631A46039BD8
:1043680013601BE29DF80320019913461B019B1A59
:104378009B000B444D331B78052B40F0DA809DF8E9
:104388000320019913461B019B1A9B000B444D33D4
:1043980002221A709DF80320019913461B019B1AEB
:1043A8009B000B441B331B78012B40F0F8819DF8D0
:1043B8000320019913461B019B1A9B000B442633CB
:1043C8001B78032B75D19DF80320019913461B0117
:1043D8009B1A9B000B4448331B68591C01981346D1
:1043E8001B019B1A9B000344483319609DF8032066
:1043F800019913461B019B1A9B000B4448331B6809
:10440800022B4AD99DF80320019913461B019B1AD8
:104418009B000B44483300221A609DF80320019941
:1044280013461B019B1A9B000B441B3300221A7076
:104438009DF80320019913461B019B1A9B000B440E
:1044480044331B68022B0AD89DF8032001991346B0
:104458001B019B1A9B000B441C3301221A709DF808
:1044680003305A01049B134403F5A0635B689DF86D
:1044780003205101049A0A4402F5A06223F4803310
:1044880053609DF80320019913461B019B1A9B005A
:104498000B444C3304221A7016E09DF8032001994E
:1044A80013461B019B1A9B000B444C3302221A70C3
:1044B8000AE09DF80320019913461B019B1A9B00F3
:1044C8000B444C3302221A709DF8032001991346BD
:1044D8001B019B1A9B000B4426331B78002B0CD026
:1044E8009DF80320019913461B019B1A9B000B445E
:1044F80026331B78022B40F052819DF803305A0175
:10450800049B134403F5A0631B680393039B23F0E8
:1045180080430393039B43F0004303939DF80330C8
:104528005A01049B134403F5A0631A46039B1360C6
:1045380035E19DF80320019913461B019B1A9B0046
:104548000B444D331B78032B40F08E809DF80320DD
:10455800019913461B019B1A9B000B444D33022201
:104568001A709DF80320019913461B019B1A9B00A2
:104578000B441B331B78012B40F011819DF803205D
:10458800019913461B019B1A9B000B444C330222D2
:104598001A709DF803305A01049B134403F5A06375
:1045A8005B689DF803205101049A0A4402F5A06251
:1045B80043F4803353609DF803305A01049B13443D
:1045C80003F5A063DB689DF803205101049A0A44AF
:1045D80002F5A06243F04003D3609DF803305A010E
:1045E800049B134403F5A063DB689DF80320510185
:1045F800049A0A4402F5A06223F02003D3609DF8D0
:104608000320019913461B019B1A9B000B44263378
:104618001B78002B0CD09DF80320019913461B0131
:104628009B1A9B000B4426331B78022B40F0B78063
:104638009DF803305A01049B134403F5A0631B68DB
:104648000393039B23F080430393039B43F00043AE
:1046580003939DF803305A01049B134403F5A063A8
:104668001A46039B13609AE09DF8032001991346AC
:104678001B019B1A9B000B444D331B78042B49D11B
:104688009DF80320019913461B019B1A9B000B44BC
:104698004D3302221A709DF80320019913461B011D
:1046A8009B1A9B000B444C3302221A709DF803207E
:1046B800019913461B019B1A9B000B4426331B7858
:1046C800002B0BD09DF80320019913461B019B1A60
:1046D8009B000B4426331B78022B60D19DF80330D6
:1046E8005A01049B134403F5A0631B680393039BBF
:1046F80023F080430393039B43F0004303939DF807
:1047080003305A01049B134403F5A0631A46039B24
:10471800136044E09DF80320019913461B019B1A7E
:104728009B000B444D331B78082B29D19DF803209F
:10473800019913461B019B1A9B000B444D3302221F
:104748001A709DF80320019913461B019B1A9B00C0
:104758000B4444331B68591C019813461B019B1AD0
:104768009B000344443319609DF8032001991346C4
:104778001B019B1A9B000B444C3304221A700EE059
:104788009DF80320019913461B019B1A9B000B44BB
:104798004D331B78022B00F01A8100E000BF9DF812
:1047A8000320019913461B019B1A9B000B444C33B1
:1047B8001A789DF8033019460198FCF746F807E186
:1047C800019B1B689DF803201146184601F04BF920
:1047D800034603F04003402B34D19DF803305A01BF
:1047E800049B134403F5A0631A46402393609DF885
:1047F8000320019913461B019B1A9B000B444D3360
:1048080005221A709DF80320019913461B019B1A73
:104818009B000B441A331B78002B0AD19DF8032008
:10482800019913461B019B1A9B000B444433002239
:104838001A60019B1B689DF803201146184601F079
:10484800D5FEC5E0019B1B689DF80320114618465C
:1048580001F009F9034603F01003102B40F0B8806B
:104868009DF80320019913461B019B1A9B000B44DA
:1048780026331B78032B1ED19DF80320019913467C
:104888001B019B1A9B000B44443300221A609DF8BD
:104898000320019913461B019B1A9B000B444D33BF
:1048A80004221A70019B1B689DF8032011461846C4
:1048B80001F09CFE45E09DF80320019913461B0179
:1048C8009B1A9B000B4426331B78002B0BD09DF8BA
:1048D8000320019913461B019B1A9B000B442633A6
:1048E8001B78022B2DD19DF80320019913461B013B
:1048F8009B1A9B000B44443300221A60019B9B794E
:10490800002B0BD09DF80320019913461B019B1A1D
:104918009B000B441B331B78012B12D19DF80320FD
:10492800019913461B019B1A9B000B444D3304222B
:104938001A70019B1B689DF803201146184601F068
:1049480055FE9DF80320019913461B019B1A9B00F5
:104958000B441B331B78012B2ED19DF803200199A2
:1049680013461B019B1A9B000B441B3300221A7031
:104978009DF803305A01049B134403F5A0635B6858
:104988009DF803205101049A0A4402F5A06223F419
:10499800803353609DF803305A01049B134403F598
:1049A800A063DB689DF803205101049A0A4402F5CC
:1049B800A06243F02003D3609DF803305A01049BA2
:1049C800134403F5A0631A461023936000E000BF68
:1049D80007B05DF804FB00B587B001900B468DF871
:1049E8000330019B1B680593059B0493019B1B687F
:1049F8009DF803201146184601F035F8034603F0E8
:104A08000403042B1ED19DF803305A01049B134460
:104A180003F5A0631A46042393609DF803200199C7
:104A280013461B019B1A9B000B444D3307221A7037
:104A3800019B1B689DF803201146184601F0D6FD1E
:104A480000F0F8BC019B1B689DF80320114618462E
:104A580001F009F8034603F02003202B40F0908072
:104A68009DF803305A01049B134403F5A0631A46CA
:104A7800202393609DF80320019913461B019B1A7C
:104A88009B000B4419331B78012B28D19DF8032078
:104A9800019913461B019B1A9B000B4419330022F2
:104AA8001A709DF80320019913461B019B1A9B005D
:104AB8000B444C3302221A709DF8032001991346C7
:104AC8001B019B1A9B000B444D3303221A70019B58
:104AD8001B689DF803201146184601F087FD9DF8D4
:104AE8000320019913461B019B1A9B000B441A33A0
:104AF8001B78012B40F09E849DF8032001991346F2
:104B08001B019B1A9B000B441B331B78002B40F0A6
:104B180091849DF80320019913461B019B1A9B0061
:104B28000B4426331B78012B0AD09DF803200199EA
:104B380013461B019B1A9B000B441B3301221A705E
:104B48009DF80320019913461B019B1A9B000B44F7
:104B58004D3303221A70019B1B689DF803201146F0
:104B6800184601F043FD9DF80320019913461B01E7
:104B78009B1A9B000B44443300221A6000F05ABC75
:104B8800019B1B689DF803201146184600F06BFF37
:104B9800034603F40073B3F5007F14D19DF8033086
:104BA8005A01049B134403F5A0631A464FF400739B
:104BB8009360019B1B689DF803201146184601F07D
:104BC80015FD00F037BC019B1B689DF803201146BA
:104BD800184600F048FF034603F00103012B73D188
:104BE8009DF80320019913461B019B1A9B000B4457
:104BF800443300221A60019B1B689DF8032011466C
:104C0800184600F030FF034603F04003402B14D150
:104C18009DF80320019913461B019B1A9B000B4426
:104C2800193301221A709DF803305A01049B13446A
:104C380003F5A0631A46402393609DF80320019969
:104C480013461B019B1A9B000B441B331B78002B3C
:104C58001CD09DF80320019913461B019B1A9B0049
:104C68000B441B3300221A709DF803305A01049B31
:104C7800134403F5A0635B689DF803205101049A6F
:104C88000A4402F5A06223F4803353609DF8033090
:104C98005A01049B134403F5A0631A460123936049
:104CA8009DF80320019913461B019B1A9B000B4496
:104CB8004D3301221A70019B1B689DF80320114691
:104CC800184601F093FCB5E3019B1B689DF803208F
:104CD8001146184600F0C7FE034603F04003402B78
:104CE8003FD19DF80320019913461B019B1A9B0095
:104CF8000B444D3305221A709DF803200199134681
:104D08001B019B1A9B000B441A331B78002B0AD1FA
:104D18009DF80320019913461B019B1A9B000B4425
:104D2800193301221A709DF80320019913461B01BB
:104D38009B1A9B000B44443300221A60019B1B689A
:104D48009DF803201146184601F050FC9DF80330E9
:104D58005A01049B134403F5A0631A464023936049
:104D680068E3019B1B689DF803201146184600F074
:104D78007AFE034603F00803082B1DD19DF8033083
:104D88005A01049B134403F5A0631A460823936051
:104D98009DF80320019913461B019B1A9B000B44A5
:104DA8004D3306221A70019B1B689DF8032011469B
:104DB800184601F01BFC3DE3019B1B689DF803208E
:104DC8001146184600F04FFE034603F01003102B5F
:104DD8004BD19DF80320019913461B019B1A9B0098
:104DE8000B44443300221A609DF8032001991346AE
:104DF8001B019B1A9B000B444D3304221A709DF82B
:104E08000320019913461B019B1A9B000B4419337D
:104E18001B78002B16D19DF80320019913461B011E
:104E28009B1A9B000B4418331B78002B0AD19DF862
:104E38000320019913461B019B1A9B000B4419334D
:104E480001221A70019B1B689DF803201146184621
:104E580001F0CCFB9DF803305A01049B134403F581
:104E6800A0631A4610239360E4E2019B1B689DF837
:104E780003201146184600F0F6FD034603F08003B0
:104E8800802B40F08F80019B9B79002B13D19DF8DC
:104E98000320019913461B019B1A9B000B444D33B9
:104EA80007221A70019B1B689DF8032011461846BB
:104EB80001F09CFB6BE09DF80320019913461B0150
:104EC8009B1A9B000B4444331B68591C01981346DA
:104ED8001B019B1A9B000344443319609DF803206F
:104EE800019913461B019B1A9B000B4444331B6812
:104EF800022B26D99DF80320019913461B019B1A02
:104F08009B000B44443300221A609DF8032001994A
:104F180013461B019B1A9B000B444C3304221A7046
:104F28009DF80320019913461B019B1A9B000B4413
:104F38004C331A789DF8033019460198FBF785FC25
:104F480025E09DF80320019913461B019B1A9B003D
:104F58000B444C3302221A709DF803305A01049B0B
:104F6800134403F5A0631B680393039B23F080435A
:104F78000393039B43F0004303939DF803305A01C6
:104F8800049B134403F5A0631A46039B13609DF822
:104F980003305A01049B134403F5A0631A46802387
:104FA800936047E2019B1B689DF803201146184651
:104FB80000F059FD034603F48063B3F5806F1ED1FA
:104FC8009DF80320019913461B019B1A9B000B4473
:104FD8004D3309221A70019B1B689DF80320114666
:104FE800184601F003FB9DF803305A01049B134453
:104FF80003F5A0631A464FF4806393601AE2019B9D
:105008001B689DF803201146184600F02CFD034646
:1050180003F00203022B40F00A829DF803305A0184
:10502800049B134403F5A0631A46022393609DF87A
:105038000320019913461B019B1A9B000B444D3317
:105048001B78012B40F09F809DF80320019913469F
:105058001B019B1A9B000B444D3302221A709DF8CA
:105068000320019913461B019B1A9B000B444C33E8
:1050780001221A709DF80320019913461B019B1AFF
:105088009B000B4426331B78022B0CD09DF8032081
:10509800019913461B019B1A9B000B4426331B786E
:1050A800032B40F0B381019B9B79002B17D19DF80E
:1050B8000320019913461B019B1A9B000B443D33A7
:1050C8001B789DF8032083F00103D8B20199134699
:1050D8001B019B1A9B000B443D3302461A70019B2F
:1050E8009B79012B40F092819DF80320019913468A
:1050F8001B019B1A9B000B4434331B68002B00F0E8
:1051080085819DF80320019913461B019B1A9B007A
:105118000B44343319689DF80320019813461B018A
:105128009B1A9B00034428331B880B44591E9DF887
:105138000320019813461B019B1A9B000344283344
:105148001B88B1FBF3F30293029B03F00103002BCE
:1051580000F05C819DF80320019913461B019B1AFE
:105168009B000B443D331B789DF8032083F001031B
:10517800D8B2019913461B019B1A9B000B443D337F
:1051880002461A7042E19DF80320019913461B015B
:105198009B1A9B000B444D331B78032B23D19DF89E
:1051A8000320019913461B019B1A9B000B444D33A6
:1051B80002221A709DF80320019913461B019B1ABD
:1051C8009B000B441B331B78012B40F01F819DF87B
:1051D8000320019913461B019B1A9B000B444C3377
:1051E80002221A7012E19DF80320019913461B014F
:1051F8009B1A9B000B444D331B78042B40D19DF820
:105208000320019913461B019B1A9B000B444D3345
:1052180002221A709DF80320019913461B019B1A5C
:105228009B000B444C3302221A709DF8032001990D
:1052380013461B019B1A9B000B441B331B78012B45
:1052480040F0E4809DF80320019913461B019B1A46
:105258009B000B441B3300221A709DF803305A013F
:10526800049B134403F5A0635B689DF80320510178
:10527800049A0A4402F5A06223F480335360C5E01F
:105288009DF80320019913461B019B1A9B000B44B0
:105298004D331B78052B16D19DF803200199134631
:1052A8001B019B1A9B000B444D3302221A709DF878
:1052B8000320019913461B019B1A9B000B444C3396
:1052C80002221A70A2E09DF80320019913461B01DF
:1052D8009B1A9B000B444D331B78062B16D19DF867
:1052E8000320019913461B019B1A9B000B444D3365
:1052F80002221A709DF80320019913461B019B1A7C
:105308009B000B444C3305221A707FE09DF8032064
:10531800019913461B019B1A9B000B444D331B78C4
:10532800072B0BD09DF80320019913461B019B1AEC
:105338009B000B444D331B78092B7AD19DF8032031
:10534800019913461B019B1A9B000B444D33022203
:105358001A709DF80320019913461B019B1A9B00A4
:105368000B4444331B68591C019813461B019B1AB4
:105378009B000344443319609DF8032001991346A8
:105388001B019B1A9B000B4444331B68022B16D944
:105398009DF80320019913461B019B1A9B000B449F
:1053A800443300221A609DF80320019913461B011B
:1053B8009B1A9B000B444C3304221A7025E09DF87D
:1053C8000320019913461B019B1A9B000B444C3385
:1053D80002221A709DF803305A01049B134403F506
:1053E800A0631B680393039B23F080430393039BF1
:1053F80043F0004303939DF803305A01049B134480
:1054080003F5A0631A46039B136000BF9DF80320B1
:10541800019913461B019B1A9B000B444C331A78C5
:105428009DF8033019460198FBF70FFA02E000BF18
:1054380000E000BF07B05DF804FB00B58BB0019039
:10544800019B1B680993099B0893019B1B681B6AB6
:105458000793079B03F00F030693079B5B0C03F06E
:105468000F030593079B1B09C3F30A030493059BCA
:10547800022B04D0059B052B00F0B680B7E0049BF7
:10548800002B00F0B3800199069A13461B019B1A62
:105498009B000B442C331B68002B00F0A78001995C
:1054A800069A13461B019B1A9B000B4438331A6853
:1054B800049BD1180198069A13461B019B1A9B005E
:1054C800034434331B68994200F28380019B1868B7
:1054D8000199069A13461B019B1A9B000B442C3317
:1054E8001B68049A92B2194600F055FA0199069A77
:1054F80013461B019B1A9B000B442C331A68049B10
:10550800D1180198069A13461B019B1A9B00034465
:105518002C3319600199069A13461B019B1A9B00AC
:105528000B4438331A68049BD1180198069A13461D
:105538001B019B1A9B00034438331960069B5A01D0
:10554800089B134403F5A0631B69DB0CC3F3090331
:1055580003930199069A13461B019B1A9B000B445F
:1055680028331B881A46049B93423FD1039B002B88
:105578003CD0069B5A01089B134403F5A0631B68A3
:105588000293029B23F080430293029B43F0004363
:105598000293069B5A01089B134403F5A0631A461D
:1055A800029B13600199069A13461B019B1A9B00E4
:1055B8000B443C331B7883F00103D8B20199069A57
:1055C80013461B019B1A9B000B443C3302461A707E
:1055D8000CE00199069A13461B019B1A9B000B4489
:1055E8004C3304221A7001E000BF00E000BF00BF86
:1055F8000BB05DF804FB00B587B00190019B1B68F8
:105608000593059B0493049B03F588631B68039328
:10561800049B03F588631B680293029B23F02E0307
:105628000293039B03F00203022B0BD1039B03F0AD
:105638000103012B02D10198FBF7EDF8029B43F01F
:1056480002030293039B03F00803082B32D1029B49
:1056580043F008030293039B03F00403042B26D1B1
:10566800019B5B7A022B13D1039B03F4C023B3F590
:10567800802F06D1019B1B680221184600F014FBFD
:1056880011E0019B1B680121184600F00DFB0AE0A0
:10569800019BDB79012B06D1049B03F580631A4635
:1056A8004EF6602353600198FBF7DAF802E00198A0
:1056B800FBF7E3F8039B03F02003202B03D1029BA5
:1056C80043F020030293049B03F588631A46029B68
:1056D800136000BF07B05DF804FB84B000B585B067
:1056E800019007A880E80E009DF82130012B24D1F5
:1056F800019B9B6B23F48032019B9A63019BDB68BF
:1057080023F4840323F04003019AD360019BDB68F0
:1057180023F44012019BDA609DF82830012B05D153
:10572800019BDB6843F48012019BDA60019800F06A
:10573800C2F903468DF80F301CE0019BDB6843F08B
:105748004002019BDA60019800F0B5F903468DF834
:105758000F309DF82530002B06D1019B9B6B43F43D
:105768008032019B9A6305E0019B9B6B23F4803296
:10577800019B9A639DF81E30012B0BD1019B9B68FE
:1057880043F00602019B9A60019B9B6843F020024C
:10579800019B9A609DF80F30184605B05DF804EB40
:1057A80004B0704782B00190019B9B6843F00102EE
:1057B800019B9A600023184602B0704782B001909E
:1057C800019B9B6823F00102019B9A600023184605
:1057D80002B0704700B585B001900B468DF80330D4
:1057E80000230393019BDB6823F0C042019BDA602E
:1057F8009DF80330012B15D1019BDB6843F0005263
:10580800019BDA600A2002F099F9039B0A3303939B
:10581800019800F047F90346012B1FD0039BC72BC3
:10582800F0D91BE09DF80330002B15D1019BDB68F4
:1058380043F08042019BDA600A2002F07FF9039B63
:105848000A330393019800F02DF90346002B05D085
:10585800039BC72BF0D901E0012305E0039BC82B6C
:1058680001D1012300E00023184605B05DF804FBD0
:1058780084B00190009100230393039B01330393A9
:10588800039BB3F1706F01D903231BE0019B1B69D4
:10589800002BF2DA00230393009B9B0143F02002C4
:1058A800019B1A61039B01330393039BB3F1706F50
:1058B80001D9032306E0019B1B6903F02003202B79
:1058C800F0D00023184604B0704784B0019000233C
:1058D8000393039B01330393039BB3F1706F01D9C7
:1058E800032318E0019B1B69002BF2DA00230393C2
:1058F800019B10221A61039B01330393039BB3F1AD
:10590800706F01D9032306E0019B1B6903F01003A4
:10591800102BF0D00023184604B0704788B00390CD
:10592800029111461A460B468DF807301346ADF81A
:105938000430039B0593029B07939DF82030002BAE
:1059480025D1BDF8043003339B0804930023069344
:1059580019E09DF807301A03059B134403F580539B
:105968001A46079B1B681360079B01330793079B25
:1059780001330793079B01330793079B0133079371
:10598800069B01330693069A049B9A42E1D30023AF
:10599800184608B070478AB0039002911346ADF8D4
:1059A8000630039B0693029B0993BDF806309B08BB
:1059B8009BB20593BDF8063003F00303ADF81E3023
:1059C8000023089314E0069B03F580531A68099B8B
:1059D8001A60099B01330993099B01330993099BB9
:1059E80001330993099B01330993089B01330893F9
:1059F800089A059B9A42E6D3BDF81E30002B20D0AA
:105A080000230893069B03F580531A4604AB1268DB
:105A18001A60049A089BDBB2DB0022FA03F3DAB2BD
:105A2800099B1A70089B01330893099B013309935A
:105A3800BDF81E30013BADF81E30BDF81E30002BFE
:105A4800E7D1099B18460AB0704784B00190019BC2
:105A58005B690393019B9B69039A13400393039B20
:105A6800184604B0704784B001900B468DF8033097
:105A7800019B03939DF803305A01039B134403F5DC
:105A8800A0639B6802939DF803305A01039B13445B
:105A980003F5A063DB68029A13400293029B184641
:105AA80004B0704782B00190019B5B6903F0010369
:105AB800184602B0704784B0019000230393039BFB
:105AC80001330393039BB3F1706F01D9032322E0E1
