:020000040800F2
:10000000000002202D0C0008850D0008890D000855
:100010008D0D0008910D0008950D000800000000EE
:10002000000000000000000000000000990D000822
:100030009D0D000800000000A10D0008A50D00089E
:100040007D0C00087D0C00087D0C00087D0C00086C
:100050007D0C00087D0C00087D0C00087D0C00085C
:100060007D0C00087D0C00087D0C00087D0C00084C
:100070007D0C00087D0C00087D0C00087D0C00083C
:100080007D0C00087D0C00087D0C00087D0C00082C
:100090007D0C00087D0C00087D0C00087D0C00081C
:1000A0007D0C00087D0C00087D0C00087D0C00080C
:1000B0007D0C00087D0C00087D0C00087D0C0008FC
:1000C0007D0C00087D0C00087D0C00087D0C0008EC
:1000D0007D0C00087D0C00087D0C00087D0C0008DC
:1000E0007D0C00087D0C00087D0C00087D0C0008CC
:1000F0007D0C00087D0C00087D0C00087D0C0008BC
:100100007D0C00087D0C00087D0C00087D0C0008AB
:100110007D0C00087D0C00087D0C00087D0C00089B
:100120007D0C00087D0C00087D0C00087D0C00088B
:100130007D0C00087D0C00087D0C00087D0C00087B
:100140007D0C00087D0C00087D0C00087D0C00086B
:100150007D0C00087D0C00087D0C00087D0C00085B
:100160007D0C00087D0C00087D0C00087D0C00084B
:100170007D0C00087D0C00087D0C000800000000CC
:080180007D0C00087D0C000855
:1001900081F0004102E000BF83F0004330B54FEA38
:1001A00041044FEA430594EA050F08BF90EA020FA5
:1001B0001FBF54EA000C55EA020C7FEA645C7FEA38
:1001C000655C00F0E2804FEA5454D4EB5555B8BF5B
:1001D0006D420CDD2C4480EA020281EA030382EACC
:1001E000000083EA010180EA020281EA0303362D5E
:1001F00088BF30BD11F0004F4FEA01314FF4801C31
:100200004CEA113102D0404261EB410113F0004F42
:100210004FEA03334CEA133302D0524263EB4303F9
:1002200094EA050F00F0A780A4F10104D5F1200E97
:100230000DDB02FA0EFC22FA05F2801841F10001F2
:1002400003FA0EF2801843FA05F359410EE0A5F1C6
:1002500020050EF1200E012A03FA0EFC28BF4CF0F7
:10026000020C43FA05F3C01851EBE37101F00045AD
:1002700007D54FF0000EDCF1000C7EEB00006EEBBA
:100280000101B1F5801F1BD3B1F5001F0CD3490844
:100290005FEA30004FEA3C0C04F101044FEA44529B
:1002A00012F5800F80F09A80BCF1004F08BF5FEA22
:1002B000500C50F1000041EB045141EA050130BD02
:1002C0005FEA4C0C404141EB0101013C28BFB1F514
:1002D000801FE9D291F0000F04BF01460020B1FA5F
:1002E00081F308BF2033A3F10B03B3F120020CDA32
:1002F0000C3208DD02F1140CC2F10C0201FA0CF010
:1003000021FA02F10CE002F11402D8BFC2F1200C74
:1003100001FA02F120FA0CFCDCBF41EA0C0190402A
:10032000E41AA2BF01EB0451294330BD6FEA040473
:100330001F3C1CDA0C340EDC04F11404C4F120025E
:1003400020FA04F001FA02F340EA030021FA04F370
:1003500045EA030130BDC4F10C04C4F1200220FAC7
:1003600002F001FA04F340EA0300294630BD21FA05
:1003700004F0294630BD94F0000F83F4801306BFCB
:1003800081F480110134013D4EE77FEA645C18BFBF
:100390007FEA655C29D094EA050F08BF90EA020F56
:1003A00005D054EA000C04BF1946104630BD91EA4E
:1003B000030F1EBF0021002030BD5FEA545C05D151
:1003C0004000494128BF41F0004130BD14F5800490
:1003D0003CBF01F5801130BD01F0004545F0FE4104
:1003E00041F470014FF0000030BD7FEA645C1ABF39
:1003F000194610467FEA655C1CBF0B46024650EA70
:10040000013406BF52EA033591EA030F41F400219B
:1004100030BD00BF90F0000F04BF0021704730B521
:100420004FF4806404F132044FF000054FF00001F6
:1004300050E700BF90F0000F04BF0021704730B5B7
:100440004FF4806404F1320410F0004548BF40428C
:100450004FF000013EE700BF42004FEAE2014FEAE1
:1004600031014FEA02701FBF12F07F4393F07F4FBC
:1004700081F06051704732F07F4208BF704793F0BF
:100480007F4F04BF41F40021704730B54FF46074D2
:1004900001F0004521F000411CE700BF50EA0102D5
:1004A00008BF704730B54FF000050AE050EA01027E
:1004B00008BF704730B511F0004502D5404261EBEE
:1004C00041014FF4806404F132045FEA915C3FF42F
:1004D000D8AE4FF003025FEADC0C18BF03325FEACC
:1004E000DC0C18BF033202EBDC02C2F1200300FA7D
:1004F00003FC20FA02F001FA03FE40EA0E0021FAA2
:1005000002F11444BDE600BF70B54FF0FF0C4CF48F
:10051000E06C1CEA11541DBF1CEA135594EA0C0F41
:1005200095EA0C0F00F0DEF82C4481EA030621EA7C
:100530004C5123EA4C5350EA013518BF52EA0335B7
:1005400041F4801143F4801338D0A0FB02CE4FF069
:100550000005E1FB02E506F00042E0FB03E54FF099
:100560000006E1FB03569CF0000F18BF4EF0010E91
:10057000A4F1FF04B6F5007F64F5407404D25FEA8D
:100580004E0E6D4146EB060642EAC62141EA555140
:100590004FEAC52040EA5E504FEACE2EB4F1FD0C82
:1005A00088BFBCF5E06F1ED8BEF1004F08BF5FEA00
:1005B000500E50F1000041EB045170BD06F00046B2
:1005C00046EA010140EA020081EA0301B4EB5C045F
:1005D000C2BFD4EB0C0541EA045170BD41F4801157
:1005E0004FF0000E013C00F3AB8014F1360FDEBF7C
:1005F000002001F0004170BDC4F10004203C35DA58
:100600000C341BDC04F11404C4F1200500FA05F3DA
:1006100020FA04F001FA05F240EA020001F000427B
:1006200021F0004110EBD37021FA04F642EB0601F1
:100630005EEA430E08BF20EAD37070BDC4F10C041B
:10064000C4F1200500FA04F320FA05F001FA04F2DF
:1006500040EA020001F0004110EBD37041F10001CB
:100660005EEA430E08BF20EAD37070BDC4F12005D6
:1006700000FA05F24EEA020E20FA04F301FA05F23E
:1006800043EA020321FA04F001F0004121FA04F2E6
:1006900020EA020000EBD3705EEA430E08BF20EAB6
:1006A000D37070BD94F0000F0FD101F000464000F0
:1006B00041EB010111F4801F08BF013CF7D041EA72
:1006C000060195F0000F18BF704703F00046520076
:1006D00043EB030313F4801F08BF013DF7D043EA47
:1006E0000603704794EA0C0F0CEA135518BF95EAFD
:1006F0000C0F0CD050EA410618BF52EA4306D1D184
:1007000081EA030101F000414FF0000070BD50EAA2
:10071000410606BF1046194652EA430619D094EA2C
:100720000C0F02D150EA013613D195EA0C0F05D116
:1007300052EA03361CBF104619460AD181EA03016A
:1007400001F0004141F0FE4141F470014FF0000022
:1007500070BD41F0FE4141F4780170BD70B54FF0BD
:10076000FF0C4CF4E06C1CEA11541DBF1CEA13553D
:1007700094EA0C0F95EA0C0F00F0A7F8A4EB05041F
:1007800081EA030E52EA03354FEA013100F0888016
:100790004FEA03334FF0805545EA131343EA1263DF
:1007A0004FEA022245EA111545EA10654FEA002694
:1007B0000EF000419D4208BF964244F1FD0404F54D
:1007C000407402D25B084FEA3202B61A65EB0305A9
:1007D0005B084FEA32024FF480104FF4002CB6EB66
:1007E000020E75EB030E22BFB61A754640EA0C00E6
:1007F0005B084FEA3202B6EB020E75EB030E22BF26
:10080000B61A754640EA5C005B084FEA3202B6EB66
:10081000020E75EB030E22BFB61A754640EA9C0025
:100820005B084FEA3202B6EB020E75EB030E22BFF5
:10083000B61A754640EADC0055EA060E18D04FEAB3
:10084000051545EA16754FEA06164FEAC30343EA53
:1008500052734FEAC2025FEA1C1CC0D111F4801F20
:100860000BD141EA00014FF000004FF0004CB6E719
:1008700011F4801F04BF01430020B4F1FD0C88BFB8
:10088000BCF5E06F3FF6AFAEB5EB030C04BFB6EBC3
:10089000020C5FEA500C50F1000041EB045170BDB6
:1008A0000EF0004E4EEA113114EB5C04C2BFD4EBE3
:1008B0000C0541EA045170BD41F480114FF0000E67
:1008C000013C90E645EA060E8DE60CEA135594EAE3
:1008D0000C0F08BF95EA0C0F3FF43BAF94EA0C0FE6
:1008E0000AD150EA01347FF434AF95EA0C0F7FF45B
:1008F00025AF104619462CE795EA0C0F06D152EAAF
:1009000003353FF4FDAE1046194622E750EA410692
:1009100018BF52EA43067FF4C5AE50EA41047FF4A3
:100920000DAF52EA43057FF4EBAE12E74FF0FF3C08
:1009300006E000BF4FF0010C02E000BF4FF0010CD9
:100940004DF804CD4FEA410C7FEA6C5C4FEA430C52
:1009500018BF7FEA6C5C1BD001B050EA410C0CBFA1
:1009600052EA430C91EA030F02BF90EA020F002003
:10097000704710F1000F91EA030F58BF994208BF6A
:1009800090422CBFD8176FEAE37040F00100704727
:100990004FEA410C7FEA6C5C02D150EA013C07D17E
:1009A0004FEA430C7FEA6C5CD6D152EA033CD3D0C9
:1009B0005DF8040B704700BF8446104662468C46C3
:1009C0001946634600E000BF01B5FFF7B7FF0028F6
:1009D00048BF10F1000F01BD4DF808EDFFF7F4FF1F
:1009E0000CBF012000205DF808FB00BF4DF808EDAA
:1009F000FFF7EAFF34BF012000205DF808FB00BFCD
:100A00004DF808EDFFF7E0FF94BF012000205DF8EE
:100A100008FB00BF4DF808EDFFF7CEFF94BF0120A3
:100A200000205DF808FB00BF4DF808EDFFF7C4FF9C
:100A300034BF012000205DF808FB00BF4A0011D23E
:100A400012F5001211D20DD56FF47873B3EB625228
:100A50000ED44FEAC12343F0004343EA505323FA34
:100A600002F070474FF00000704750EA013002D1A9
:100A70004FF0FF3070474FF00000704753B94AB94C
:100A8000002908BF00281CBF4FF0FF314FF0FF3096
:100A900000F00CB8ADF1080C6DE904CE02F0F6FFE1
:100AA000DDF804E0DDE9022304B07047704700BFC1
:100AB00001F0FF01102A2BDB10F0070F08D010F80F
:100AC000013B013A8B422DD010F0070F42B3F6D113
:100AD000F0B441EA012141EA014122F007047FF02C
:100AE00000070023F0E80256083C85EA010586EA83
:100AF000010685FA47F5A3FA87F586FA47F6A5FABF
:100B000087F68EB9EED1F0BC01F0FF0102F00702CA
:100B100032B110F8013B013A83EA010313B1F8D175
:100B20000020704701387047002D06BF3546033856
:100B3000073815F0010F07D1013015F4807F02BF8F
:100B4000013015F4C03F0130F0BC0138704700BFE0
:100B50004FEA410212F5001215D211D56FF47873E5
:100B6000B3EB625212D94FEAC12343F0004343EA88
:100B7000505311F0004F23FA02F018BF4042704763
:100B80004FF00000704750EA013005D111F00040ED
:100B900008BF6FF0004070474FF00000704700BF83
:100BA0000348044B834202D0034B03B118477047FC
:100BB0007400002074000020000000000548064B6F
:100BC0001B1AD90F01EBA301491002D0034B03B14B
:100BD00018477047740000207400002000000000D7
:100BE00010B5064C237843B9FFF7DAFF044B13B175
:100BF0000448AFF300800123237010BD780000206B
:100C000000000000B862000808B5054B1BB105499B
:100C10000548AFF30080BDE80840FFF7CFBF00BF35
:100C2000000000007C000020B8620008DFF834D02B
:100C300000F016F90C480D490D4A002302E0D45883
:100C4000C4500433C4188C42F9D30A4A0A4C002316
:100C500001E013600432A242FBD303F055FA00F026
:100C600061F870470000022000000020740000209E
:100C7000D06A00087800002048020020FEE700004B
:100C800010B5002394B0CDE90B33CDE90933CDE99C
:100C90000333CDE90533214901930D930793086C84
:100CA0001F4A40F080500864096C01F080510191A6
:100CB00001990293116841F48041116012680F9309
:100CC00002F48042102301210292CDE90B13082285
:100CD000A823CDE91023029802240222072308A8A2
:100CE00008940E94CDE9122300F0D2F908B172B63F
:100CF000FEE70F220346CDE903244FF4A05C4FF436
:100D0000805203A80521CDE9053C079200F0DAFBEB
:100D100008B172B6FEE714B010BD00BF0038024043
:100D20000070004000B583B000F030FEFFF7A8FF70
:100D30000023104A0193116B0F4C104841F0010140
:100D40001163126B0E49206002F001020192019AB8
:100D5000E3610C222046C4E90113C4E90333C4E96A
:100D6000052300F0EDF808B172B6FEE701F0CAF80D
:100D7000FEE700BF00380240980000200044004019
:100D8000E80D2800FEE700BFFEE700BFFEE700BF5A
:100D9000FEE700BFFEE700BF704700BF704700BF1F
:100DA000704700BF00F00CBE82B00D4B00210091D7
:100DB0005A6C42F480425A645A6C02F480420092A7
:100DC000009A01911A6C42F080521A641B6C03F075
:100DD00080530193019B072002B000F04BBD00BF80
:100DE000003802400000000010B51B4A016888B0BE
:100DF00000239142CDE90233CDE90433069301D0BB
:100E000008B010BD02F5FA320093106C40F40030C7
:100E10001064106C00F40030009000980193136B84
:100E20000E4843F001031363136B9FED097B03F03E
:100E3000010301930322072302A98DED027BCDE973
:100E40000523019C00F0FCFB08B010BDAFF300804F
:100E50000C000000020000000044004000000240BE
:100E6000034AD2F8883043F47003C2F888307047E0
:100E700000ED00E00268116938B50446C068A36857
:100E800021F4405101432069116103436069D16835
:100E90000343E06921F4164121F00C0103430B43A5
:100EA000D3605369A069234923F4407303438A4202
:100EB000536105D0204B9A4202D000F0A1FB01E023
:100EC00000F0AEFBE2691921B2F5004FD4E90053FE
:100ED000A0FB010113D09A009B0FFFF7CFFD174A2B
:100EE000A2FB00135B09642101FB130000013230F7
:100EF000A2FB00201B0103EB5013AB6038BDDA18D6
:100F00004FF000035B41FFF7B9FD0C4AA2FB003133
:100F10004909642303FB1103DB003233A2FB0323E3
:100F2000C3F342121B0902EB011203F4F8731344DA
:100F3000AB6038BD00100140001401401F85EB512B
:100F400070B310B590F84130044603F0FF0213B3BC
:100F50002268242384F84130D36823F400532046C8
:100F6000D360FFF787FF2368196921F49041196165
:100F7000596921F02A015961D96800224FF0200CEB
:100F800041F40051D960626484F841C084F842C0E1
:100F90001046626310BD80F84020FFF725FFD7E7B9
:100FA000012070472DE9F843044690F841002028BD
:100FB00053D1884609B1164612B90120BDE8F8831D
:100FC0001F464FF000092123C4F8449084F84130B3
:100FD00000F002FDA368A684B3F5805F0546E684B1
:100FE0004AD0E28C236892B2AAB11A68120604D4DD
:100FF000791C1ED11A681606FCD5B8F1000F26D050
:1010000018F8012B5A60E28C013A92B2E284E28C29
:1010100092B2002AE9D11A68560604D47A1C1FD16C
:101020001A685006FCD5202384F841300020BDE822
:10103000F88300F0D1FC401B874223D317B3236809
:10104000DA681A681006F4D5B8F1000FD8D139F86B
:10105000022BC2F308025A60D5E70220BDE8F883EC
:1010600000F0BAFC431B9F420CD35FB12368DA68DF
:101070001B685906F4D5D6E72369002BB1D1C146C8
:101080009846AEE7202384F841300320BDE8F8837A
:10109000002800F06A812DE9F0410368DD0782B085
:1010A00004462FD59F498A6802F00C02042A00F0FA
:1010B000EF808A6802F00C02082A00F0E58063687D
:1010C000B3F5803F00F0EE80B3F5A02F00F07981FA
:1010D000944D2A6822F480322A602A6822F4802201
:1010E0002A60002B40F0E38000F076FC064605E025
:1010F00000F072FC801B642800F203812B689F03C0
:10110000F6D423689D0728D5864A916811F00C0F04
:1011100000F09280916801F00C01082900F08880AD
:10112000E368002B00F010817F4B7E4E01221A6095
:1011300000F052FC054605E000F04EFC401B022882
:1011400000F2DF8033689F07F6D53368226923F009
:10115000F80343EAC203336023681A0753D45D07D8
:1011600030D5704A136C13F0805300F08180002555
:101170006E4E3368D80540F1B480A368012B00F0AF
:10118000C480052B00F02D81664E326F22F00102E3
:101190003267326F22F004023267002B40F0BA80CF
:1011A00000F01AFC41F28838074605E000F014FC14
:1011B000C01B404500F2A580336F9B07F6D4002D7D
:1011C00040F00981A369D3B1564DAA6802F00C0220
:1011D000082A00F0CC80022B534B4FF000021A6615
:1011E00000F0098100F0F8FB044605E000F0F4FB94
:1011F000001B022800F285802B689B01F6D400209A
:1012000002B0BDE8F08163690BB3474B454E012244
:10121000C3F8802E00F0E0FB054604E000F0DCFBA4
:10122000401B02286DD8736F9B07F7D5236896E79C
:10123000526851023FF574AF3A4A1268920744D59A
:10124000E268012A41D0012002B0BDE8F081364AAF
:10125000344EC2F8803E00F0BFFB054604E000F0CB
:10126000BBFB401B02284CD8736F9F07F7D4DDE708
:101270000193136C43F080531364136C03F0805399
:101280000193019B012573E74A6851027FF517AF6F
:10129000244A126892037FF535AF6268002A7FF412
:1012A00031AFD0E71F4A136843F48033136000F076
:1012B00093FB1C4E054604E000F08EFB401B6428A7
:1012C0001FD833689B03F7D51BE7164920690A68C6
:1012D00022F0F80242EAC0020A601A077FF53FAF27
:1012E00091E7336843F48073336000F075FB074681
:1012F0003368D9053FF541AF00F06EFBC01B0228F3
:10130000F6D9032002B0BDE8F081064A136F43F01E
:101310000103136700F060FB024F064641F2883874
:101320000BE000BF00380240000047420070004060
:1013300000F052FB801B4045E3D83B6F9A07F7D57E
:10134000002D3FF43FAF46E0424A434E136000F0A9
:1013500043FB054604E000F03FFB401B0228D0D8C9
:1013600033689907F7D42368F7E601207047012B0B
:101370003FF469AF6B68E26903F4800191427FF446
:1013800062AF226A03F03F0191427FF45CAF616A71
:1013900047F6C0721A40B2EB811F7FF454AFA26AC5
:1013A000520803F44031013AB1EB024F7FF44BAFE6
:1013B000E26A03F07063B3EB026F14BF01200020F8
:1013C0001EE7254B1A6842F480221A601A6842F41C
:1013D00080321A606BE7204A136C23F08053136449
:1013E000F0E61D4B1A6F42F004021A671A6F42F0C2
:1013F00001021A678EE700F0EFFA064605E000F0FA
:10140000EBFA801B02283FF67CAF2B689901F6D4DB
:10141000D4E90731626A0B4343EA8213D4E90A2014
:1014200052080C4943EA0063013A43EA02430122AD
:101430006B600A6600F0D0FA074D044605E000F044
:10144000CBFA001B02283FF65CAF2B689A01F6D559
:10145000D5E600BF0000474200380240164908B5F3
:101460008B6803F00C03042B1BD0082B01D013480E
:1014700008BD4A684B68496813F4800302F03F02D4
:1014800011D10E48C1F38811A1FB0001FFF7F6FA54
:10149000094B5B68C3F3014301335B00B0FBF3F01E
:1014A00008BD074808BD0648C1F388110023A1FB09
:1014B0000001FFF7E3FAEBE7003802400024F400F4
:1014C00000127A00002800F08780484A136803F071
:1014D00007038B422DE9F0410D46044609D2CBB2F9
:1014E0001370136803F007038B4202D00120BDE89C
:1014F000F0812368980714D5590704D53C498A68B8
:1015000042F4E0528A601A0704D539498A6842F4E5
:1015100060428A603649A0688A6822F0F00202437D
:101520008A60DF0721D56268012A57D0931E012BFC
:101530002F4B1B684DD99907D8D52D4EB36823F092
:1015400003031343B36000F047FA41F288380746BB
:1015500004E000F041FAC01B404544D8B36862681B
:1015600003F00C03B3EB820FF3D1204A136803F0AE
:101570000703AB4206D9EBB21370136803F00703FD
:10158000AB42B3D123685A0706D51949E0688A6887
:1015900022F4E05202438A601B0707D5144A2169EE
:1015A000936823F4604343EAC1039360FFF756FF57
:1015B0000F4A104C92681049C2F303120346A25C12
:1015C0000E48D34000680B6000F0BCF90020BDE875
:1015D000F0819801B1D489E701207047044B1B6862
:1015E0009E03AAD482E7032081E700BF003C0240AB
:1015F00000380240D86200080000002008000020E7
:10160000044B05499B68054A0868C3F38223D35CF1
:10161000D84070470038024000000020D062000827
:10162000044B05499B68054A0868C3F34233D35C01
:10163000D84070470038024000000020D062000807
:101640002DE9F04F00230C68DFF810A285B04FF0B1
:10165000010B894603E00133102B00F09A800BFA4E
:1016600003F202EA0408A243F5D1D9F8041001F00C
:10167000030C5A0003250CF1FF379540012F6FEA48
:10168000050540F28980BCF1030F08D0C76807EA5E
:10169000050ED9F80870974047EA0E07C76007683B
:1016A0000CFA02F23D402A4311F4403F0260D2D0CE
:1016B00000220392DAF8442042F48042CAF844201F
:1016C000DAF8442002F480420392039A23F00302E2
:1016D00002F1804203F003070F2602F59C32BF009F
:1016E00006FA07FC5A4E9568B04225EA0C0527D049
:1016F00006F58066B04200F08780564EB04200F09A
:101700008980DFF85CC1604500F08A80DFF854C151
:10171000604500F08B80DFF850C1604500F08C80A0
:10172000DFF848C1604500F08D80DFF844C16045B6
:101730000CBF4FF0070C4FF0080C0CFA07F73D43B5
:101740009560454A9268CE026FEA0805424E54BF42
:101750002A4048EA0202B260F2683F4E8F0254BF4C
:101760002A4048EA0202F26072688E033A4E54BF81
:101770002A4048EA020272603268C90303F1010399
:10178000354954BF2A4048EA0202102B0A607FF410
:1017900066AF05B0BDE8F08F876807EA050ED9F897
:1017A0000C70974047EA0E078760476827EA080EE3
:1017B000C1F300179F4047EA0E074760C76807EA72
:1017C000050ED9F80870974047EA0E07BCF1020FE2
:1017D000C7607FF464AFDF0800EB870700973E6ABD
:1017E000D9F81070019603F0070E4FEA8E0E0F26FF
:1017F00007FA0EF706FA0EFE019E26EA0E0E009E6E
:1018000047EA0E0737624AE74FF0010C0CFA07F778
:101810003D4395E74FF0020C0CFA07F73D438FE785
:101820004FF0030C0CFA07F73D4389E74FF0040C27
:101830000CFA07F73D4383E74FF0050C0CFA07F766
:101840003D437DE74FF0060C0CFA07F73D4377E781
:101850000000024000080240003C01400038024005
:10186000000C024000100240001402400018024028
:10187000001C02400749CA6803024FF6FF0003F448
:10188000E0630240134343F0BF6343F40033CB6093
:10189000704700BF00ED00E01B4BDB68C3F3022381
:1018A00000B5C3F1070EBEF1040F03F1040C28BF0D
:1018B0004FF0040EBCF1060F1CD9A3F1030C4FF03E
:1018C000FF3303FA0CF322EA03024FF0FF3303FA6B
:1018D0000EF321EA030303FA0CF313431B01002860
:1018E000DBB20ADB00F1604000F5614080F80033B4
:1018F0005DF804FB00229446E7E7044A00F00F007D
:10190000024413765DF804FB00ED00E0FCEC00E01F
:101910000138B0F1807F01D30120704710B44FF03F
:10192000E023074C58614FF0F00C84F823C00022EC
:10193000072110469A615DF8044B1961704700BF9A
:1019400000ED00E038B50E4A0E4B127805461868D7
:101950004FF47A73B3FBF2F3B0FBF3F0FFF7D8FF69
:1019600008B90F2D01D9012038BD04460246294689
:101970004FF0FF30FFF790FF034B20461D6038BD4E
:1019800004000020000000200800002008B50B4BD8
:101990001A6842F400721A601A6842F480621A608F
:1019A0001A6842F480721A600320FFF763FF002078
:1019B000FFF7C8FFFFF7F8F9002008BD003C024020
:1019C000034A044B11681B780B441360704700BF37
:1019D000E000002004000020014B1868704700BFA1
:1019E000E00000202AB1B0F90200B1F90230C01ABB
:1019F0007047B0F9003023F0FF02C3F3072313430D
:101A00000380B1F90030B0F9020023F0FF02C3F304
:101A1000072313430B80B1F90230C01A704700BF8F
:101A2000F0B5B0F90040230683B003D504F07F0081
:101A300003B0F0BD0D46C4F3C30101EB011214F075
:101A400007030646298F10461DD0012B18D10A46E0
:101A5000014605F1280000F04FFFAB8F07B203B934
:101A6000A887298F01F082F924F0FF04034607F0CC
:101A70007F00044344F080042B87348003B0F0BD22
:101A8000A0B22746EEE7212A019198BF2220B5F99E
:101A900002300090D5E90510B5F9002001F0D4F826
:101AA000EB8F07B2002BDCD1298FE887DAE700BF84
:101AB00070B50E4611461446FFF7B2FF21460546A3
:101AC0003046FFF7ADFF281A70BD00BF2DE9F04F7B
:101AD00083B013464FF0010B07465A4600919B46D0
:101AE000002F6CD000210E4601918A469046019B42
:101AF0000133019300243B4602E01B6801340BB123
:101B0000A045FADC002C3546C1463E461F460BDD9B
:101B1000B9F1000F1ED06FB93246013C3668B5B13D
:101B20002A601546002CF3DCB9F1000F4DDD002FC3
:101B30003AD024B379687068009B5A4698470028C9
:101B4000EADD3A4609F1FF393F68002DE8D19246B7
:101B50001546E7E73368013C3DB12E6044B1354698
:101B60001E46013C3368002DF7D1B246002CF6D159
:101B7000002FBCD142460199D046354617E04A466F
:101B80003B68013A45B12F604AB13D4663B11F46FB
:101B9000013A3B68002DF6D1BA46002AF5D13E46FF
:101BA0001F46002FA3D1E5E701994246D046002306
:101BB00001292B6005D047465200002F92D13F608B
:101BC000FFDE404603B0BDE8F08F2E46002F8ED1D9
:101BD000D0E700BF2DE9F047B0F90470446A002F48
:101BE0008246884640F3D4800029C0F2D580002C7C
:101BF00000F0DC804FF0000E0E4670467146F44651
:101C00007546234602E01B68002B43D05A68B2F9A0
:101C10000290B145F7D1002600E014462268266004
:101C20002646002AF9D1002B36D05A68B2F9002096
:101C3000D60703D5C2F34022024490B21E6826B1F3
:101C400032681A60236833602660013189B2B9F1C5
:101C5000000F10DB0CF1010C09F1010967450FFAC7
:101C600089F629D0002E5FFA8CF5CADADFF84C919C
:101C70002E46234609E00CF1010C67451BD05FFAA4
:101C80008CF6234601E01B689BB15A681578B54273
:101C9000F9D1C0E7B146BEE723685B6893F901302C
:101CA00003F001030EF1010E03441FFA8EFE98B2F9
:101CB000CDE73546AFE74E46CEEB810E704487B296
:101CC000B8F1000F05DD20463A495246FFF7FEFE07
:101CD00004462368D3E900920020D9F80410596023
:101CE0008642D9F80010C9F80420A0461960C9F846
:101CF000000005DA40E0D8F80080B8F1000F41D0CC
:101D0000D8F80430B3F90230B342F4D163683946ED
:101D1000B3F9000001F0AEF8D8F800800746B8F13A
:101D2000000FF3D1D4F80080D9F80420D8F804309B
:101D3000C9F80430D8F80030C8F804202046C9F8A3
:101D400000301D49C8F800900022FFF7BFFE04686C
:101D500005464CB16B683946B3F9000001F08AF8CA
:101D600024680746002CF5D13846BDE8F087D8F83E
:101D70000080B8F1000F05D0D8F804301B789D42E0
:101D8000F5D1C3E7D4F80080B8F1000FBED1CDE79C
:101D900000270E463D4693E744B14FF0000E8946BA
:101DA0002346F4467646714670466EE700231B686C
:101DB000FFDE00BFB11A0008E51900080080FFFF30
:101DC0003E4B2DE9F04FA3FB003424090846023CAA
:101DD00001EBC4011746002348F2800283B0416042
:101DE000036040F8342000F11002914201EB840AB4
:101DF00000F1080601F1040C5BD901F10805AA45C0
:101E000057D9C0E9023C6FF0004306604B6044B311
:101E10001FFA87F94FF0000E47F6FF7B01971FFA74
:101E20008EF787EA090302F1080CDB0061450EF129
:101E3000010E05F1040803F0780307F007070DD938
:101E4000C2450BD93B4303EB0323166002601646E1
:101E500055602B80A5F802B0624645467445DED138
:101E6000019F3568F5B1154BA3FB0434A4084FF46A
:101E700000720121A446BE4609E00BB22C687B80AB
:101E800002F580722E46013192B25CB125468C4536
:101E90007768F2D802F4E0638EEA01042343C3F3C7
:101EA0000D03EBE70649002203B0BDE8F04FFFF752
:101EB0000DBE324665461E46A9E700BFCDCCCCCC50
:101EC000E519000870B5C6690025C0E90E55B6B120
:101ED000044601212046FFF77DFE218F00F046FFDA
:101EE0004FF0FF3120872046FFF774FE218F00F06E
:101EF0003DFF208705B960870135AE42E9D100205A
:101F000070BD00BF2DE9F04FADF6340D06AA05A94E
:101F100000230DF15E00059300F042FD012000F06A
:101F200001FF07AC03460220238000F0FBFE0346BE
:101F30000320638000F0F6FE03460420A38000F037
:101F4000F1FE03460520E36100F0ECFE2368002863
:101F500008BF07202062002B40F0B380B4F90430A2
:101F6000002B00F02B8100F001020023810748BF05
:101F70000132A4F84030430748BF013218AF4FF098
:101F8000000348BF92B24FF4FA65A760B5FBF2F5C3
:101F90001946A561012606FA03F2024240F0888044
:101FA0000133032BF7D1236ADA0707D5B4F90020F0
:101FB000E168A069FFF704FF236A60629E076AD4A4
:101FC0005D0705D56269B4F90010A06900F0F0FC66
:101FD000E3695BBBDFF8E4934FF00008012505EBF4
:101FE00085056D00E56100F097FC2046FFF76AFF6C
:101FF00000F0A6FC00F0B8FC00F0C2FC57EC106B3F
:1020000042464B4630463946E569FEF7EFFC00286C
:10201000E5D130463946FEF711FD012838BF0120D1
:102020000A23B3FBF0F303FB0555E56100F074FCF4
:102030002046FFF747FF00F083FC00F095FC0021ED
:102040008246B4F9000000F015FF0146B4F9020021
:1020500000F010FF0146B4F9040000F00BFF014648
:10206000B4F9180000F006FF47F6053398420390D4
:1020700000F0D78132D9039A48F602239A4200F041
:10208000CB814EF6F5139A4240F09B80AD4801F0AB
:1020900035F803272FE0B4F90250B4F90020216984
:1020A000A06911AB42EA054200F0D6F9236A87E73E
:1020B00004EB830205FB017C0131C2F80CC089B23C
:1020C0006EE7012B7FF44FAFB4F90430002B7FF49F
:1020D0004AAF9D4A22606623A38044E741F6F2039B
:1020E000984200F0948144F6AF63984269D19748D2
:1020F00001F004F80227964E3368002B00F0968119
:102100000025AB461BE0934BB8F83E2033F8173060
:102110009A4250D09048594600F0F0FFB8F840304D
:1021200001339BB2A8F840301D440BF1010B33681A
:102130001FFA8BFB9B451FFA85F82DB246D20BEB9D
:102140000B1904EB89090023D9F82010A9F84030B5
:10215000C8074FEA0B1811D5804BB9F83A2033F86D
:1021600017309A420AD059467D4800F0C7FFB9F8A7
:102170004030D9F820100133A9F840308A0715D52E
:1021800008EB0B09774B04EB890933F81730B9F8E2
:102190003C209A420AD05946734800F0AFFFB9F884
:1021A0004030D9F820100133A9F84030D8444B070B
:1021B00004EB8808A7D4B8F84030B5E76623A380BD
:1021C000D1E6634E4FF6FF784FF0FF3700F080FE08
:1021D0004044A16985B2654800F090FF51466448CB
:1021E00000F08CFF504600F0CBFB624853EC102B04
:1021F00000F084FF504600F0C3FB002251EC100BAE
:102200000023FEF711FCA8B1E369306803FB00F07E
:10221000FEF700F980465046894600F0B1FB404683
:1022200053EC102B4946FEF799FA02460B465248EA
:1022300000F064FF504600F0A3FB504B51EC100B34
:102240000022FEF7D3FB002874D10FFA85F8E3696A
:1022500031684B4803FB01F100F050FF49494A48FF
:1022600000F04CFF49494A4800F048FF49494A48B4
:1022700000F044FF0399494800F040FF226A3368A8
:10228000D50711D5002B44D0002505EB051304EB31
:10229000830329465A8F424800F030FF01353368E6
:1022A000ADB29D42F1D3226A900710D58BB30025C1
:1022B00005EB051304EB830329469A8F394800F098
:1022C0001DFF01353368ADB29D42F1D3226A51073B
:1022D0000FD50025EBB105EB051304EB830329466D
:1022E000DA8F314800F00AFF01353368ADB29D4204
:1022F000F1D373B1002505EB051304EB83032946E5
:102300001A8F2A4800F0FAFE01353368ADB29D42BB
:10231000F1D3B8F1000F53D0D4BF2548254800F0C1
:10232000EDFE0DF15E0000F03FFB00200DF6340DD8
:10233000BDE8F08F204805F1010800F0DFFE0FFA3C
:1023400088F884E77863000815341534446300087E
:102350000C00002004680008386400081C680008AD
:10236000D46300081068000804640008686400086A
:102370008064000898640008B064000800002440ED
:102380000865000820650008346500084C650008F1
:1023900050650008686500087065000888650008D9
:1023A000A4650008C0650008DC650008F865000841
:1023B00084660008E8660008C86400080000F03F72
:1023C0001B4800F09BFE032FABD1E369306803FB91
:1023D00000F0FEF71FF8044650460D4600F0D0FA14
:1023E000204653EC102B2946FEF7B8F9114C0B464A
:1023F00011490246CDE90014104800F07FFE104953
:10240000104800F07BFE104800F078FE89E70F4886
:1024100000F074FE04276EE60D4800F06FFE002702
:1024200069E60C4800F06AFE012764E69846CDE6AE
:10243000146600084C650008206500086066000806
:10244000686500087C66000804650008A863000849
:10245000E8620008186300082DE9F04F0139002AEE
:1024600021F003079E4685B008BF01223B1D0028CE
:1024700058D0054600210846013101FB01F4B5EBB7
:10248000C40FF8D800FB00F6710003EB46060028E5
:102490004ED08246CDE9021A451C4FEA400BA6F108
:1024A00002094FF000084FF0010C19467446CDE9BF
:1024B000008CCE460CFB02F253429BB292B258BF44
:1024C0005A421FFA8CF3F04603EB020A1FFA8AFA0B
:1024D000B8440CF1010CA8EB06085344DBB2AC4540
:1024E0002EF802AFA8F80630E4D1DDE9008A08F141
:1024F0000108804500EB0A0C0544D944D7D10B46AE
:10250000DDF80CA00299A646CEF804307318013B02
:1025100023F003030433CEE90263CEF800A005B034
:10252000BDE8F08F4FF0FF3ABE1D50460221B1E7E3
:1025300001468246E8E700BFE0B12DE9F0410C1FFB
:102540009E1E4FEA4008951E04EB800706EB400EE6
:1025500033462946002233F8020F31F802CF9E4558
:102560001CFB0022F7D144F8042FBC424544EFD1B4
:10257000BDE8F081704700BF90B32DE9F04F984659
:10258000A1F104090023164602EB400E83B044007B
:1025900008EB40071A461946C4464D46CDE90021CE
:1025A00005EB8109E04642463346002133F902BB80
:1025B000B2F800A09E4522441BFB0A11F6D108F197
:1025C0000208474549F8041FEDD1DDE90021013239
:1025D000904226440144A644E0D103B0BDE8F08F08
:1025E000704700BFB0B32DE9F04F17460022844674
:1025F000440007EB400E03EB400883B0A1F104094F
:1026000010461546CDE9000509EB85019B465E465F
:102610003D460022B6F800A035F9020B1AFB00F087
:10262000C0F3830AAE45C0F34610264400FB0A22DD
:10263000F0D10BF1020BD84541F8042FE7D1DDE9C9
:1026400000050130844527446544A644DAD103B02F
:10265000BDE8F08F704700BF2DE9F04F87B0CDE99E
:102660000112BDF940C003938246002800F0198191
:10267000029B6FEA0C5503EB4007C0EB80784300E8
:102680006FEA15554FEA88081FFA8CF6049339460D
:102690004FF000099E46A1EB0E000346B3F900205F
:1026A000324423F8022B9942F8D109F10104A245E2
:1026B000A0EB080101D0A146EDE7019BDDF810E099
:1026C0000095043B0020824605939B46A7EB0E0530
:1026D0000BEB80012A4632F9023B03FB0CF39742D5
:1026E00041F8043FF7D1CA452044A5EB08070AF199
:1026F000010301D09A46E9E70199009D4FF0000AD5
:10270000A1EB0807BE46524653465046D3460097B3
:102710008C460CEB8A0105E09742B8BF0130714549
:1027200000B20CD0174651F8042B13449D4280B2DE
:10273000F2DA0A30714500B24FF00003F2D1D94508
:10274000A1EB080EA2440BF1010101D08B46E0E79A
:102750000021009F00F08EFBDDE9022383460199F2
:102760002046FFF7E9FE4FF0000EDC46DDF804B02E
:10277000724673467046F2460BEB8E01CDF800E0D0
:1027800005E09645B8BF01308F4200B20CD09646A6
:1027900051F8042B13449D4280B2F2DA0A308F4282
:1027A00000B24FF00003F2D1DDF800E0CA45A7EB1C
:1027B0000807A6440AF1010101D08A46DCE7614618
:1027C00000F058FBDDE90223019983462046FFF71C
:1027D000D3FE059F0023BA461A4618469946D446AA
:1027E000002106E001319E45B8BF0130A14200B290
:1027F0000DD29E465CF8043F1A44AA4280B2F1DD35
:1028000001310A30A14200B24FF00002F1D309F1C8
:102810000109A145AAEB080AE1D3594600F02AFBB9
:1028200001A90EC981462046FFF7DCFE00231A46A7
:1028300018469A46BC46002106E001317345C8BFE0
:1028400001308C4200B20DD99E465CF8043F1A4418
:10285000AA4280B2F1DD01310A308C4200B24FF061
:102860000002F1D80AF1010A5445A7EB0807E1D8A4
:10287000494600F0FFFA029BDDF810C09F1E0025BC
:102880003946002231F8023F01329B1BA2420B80E5
:10289000F8D30135A5426744F2D300B207B0BDE8D2
:1028A000F08F014600F0E6FA039F029E019D3B4631
:1028B0003246044629465046FFF73EFE2146504622
:1028C00000F0D8FA3B463246044629465046FFF708
:1028D00053FE214600F0CEFA3B46044632462946D6
:1028E0005046FFF77FFE2146504600F0C3FA00B283
:1028F00007B0BDE8F08F00BF10B582B01446D0E934
:1029000001230091C1680068FFF7A6FE214602B0CE
:10291000BDE8104000F0AEBA08B5FFF75DF8054B12
:10292000054A1B680549A2FB03239B0900FB03F32F
:102930000B6008BD00000020D34D6210E8000020AD
:1029400008B5FFF749F8054B054A1B680549A2FB86
:1029500003239B0900FB03F30B6008BD000000206C
:10296000D34D6210E4000020024A034B10681B683C
:10297000C01A7047E4000020E800002000000000BA
:1029800008B5FDF747FD04A3D3E90023FDF7E6FEF4
:1029900041EC100B08BD00BF00000000F406A4418C
:1029A00001230370704700BF00230370704700BF0E
:1029B0002DE9F04F00F1FF39B9F1010F83B0054661
:1029C000904655D901318CB204F00703072BDFF88C
:1029D000B8A02B48DFF8B4B001954FF0000C4FF0D1
:1029E0002C02C4F3C10121D0042B3DD8033B012BA1
:1029F00035D85BF8213008260CF1010101EB060EF9
:102A0000CE451CD2C44461469F1913F8015B01F8FE
:102A1000015B9F42F9D10134A4B204F00703072BF4
:102A20000CF80620C4F3C101F446DDD15AF8213078
:102A300008260CF1010101EB060ECE45E2D3019D03
:102A4000AC4519D2A5EB0C028D4238BF012208EB30
:102A50000C00002103B0BDE8F04F01F006BB094BAC
:102A6000042653F82130C7E750F821300826C3E781
:102A70004FF0000C0121E5E703B0BDE8F08F00BF87
:102A80003868000858680008286800084868000886
:102A9000026884461078002800F09D802C2800F001
:102AA0009880A0F12B0330B40E2B28D8DFE803F078
:102AB0009627963327080808080808080808080019
:102AC000086801300860531C5278AAB12C2A00F023
:102AD000AD802E2A37D0303A092A09D90869013049
:102AE00008615A1C012030BCCCF800207047886077
:102AF00013F8012F002AE9D11A460420F3E7D1E99F
:102B00000030013201300133C1E9003030BC012016
:102B1000CCF800207047086801300860531C5278D8
:102B2000C2B12C2A76D002F0DF00452815D0303A09
:102B3000092A0BD948695A1C0130486130BC012070
:102B4000CCF8002070470A6901320A6113F8012F9E
:102B5000002AE6D11A460520C5E7486901304861D8
:102B600058785A1C00285BD02C285BD02B280AD020
:102B70002D2808D0C8689A1C0130C86030BC0120DC
:102B8000CCF800207047C8680130C86098789A1C5B
:102B9000002843D02C2847D08C69303801340928CC
:102BA0008C6105D9DA1C012030BCCCF800207047BC
:102BB000144612F8013FA3F13000002B3BD02C2B20
:102BC00037D00928F4D94B680133A21C4B6001208F
:102BD00089E700200132CCF80020704708680130F6
:102BE00008605578531C5DB32C2D26D08868A5F15C
:102BF0003004092C00F101007FF679AF2E2D03D0AF
:102C00008860023201206EE7886013F8012F002AE5
:102C100087D19FE71A460520013264E7062062E764
:102C2000032060E70320F7E70620F5E71A460420B3
:102C3000F2E70720F0E7072055E71A460220EBE706
:102C40001A4602204FE700BF2DE9F04792B00C462C
:102C500001918146002192460AA820229846BDF99A
:102C60006870BDF86C6001F000FA2022002102A813
:102C700001F0FBF92378002B4FD001AD0AA92846BB
:102C8000FFF706FF12AB03EB800C019A5CF8403CA7
:102C9000127801334CF8403C002AEFD1A1444C4556
:102CA00001940BD223461A782C2A1CBF82EA0A020E
:102CB0001A703B444B45F6D323787BB10AA92846CA
:102CC000FFF7E6FE12AB03EB8002019952F8403C9D
:102CD0000978013342F8403C0029EFD14C4501947A
:102CE00008D223782C2B1CBF83EA080323703C44B2
:102CF0004C45F6D309AF2C463D46314654F8040FF7
:102D000000F062F8014657F8040F00F05DF8A542A4
:102D10000646F2D112B0BDE8F087A1444C4501ADA2
:102D2000C0D3E7E70138042813D8DFE800F006092C
:102D30000C0F0300084B18687047084B1868704761
:102D4000074B18687047074B18687047064B1868A0
:102D500070470020704700BFEC000020F400002006
:102D6000F0000020140000201000002000B5844670
:102D7000082208465FFA8CF181EA000303F00103A0
:102D800003EB830E03EB4E33013A83EA500312F058
:102D9000FF024FEA510198B2EED14FEA1C210822FE
:102DA00081EA000303F0010303EB830C03EB4C33D4
:102DB000013A83EA500312F0FF024FEA510198B240
:102DC000EED15DF804FB00BF844610B508465FFAFB
:102DD0008CFE1FFA8CF108228EEA000303F0010337
:102DE00003EB830403EB4433013A83EA500312F00C
:102DF000FF024FEA5E0E98B2EED1090A082281EA7C
:102E0000000303F0010303EB830E03EB4E33013A9F
:102E100083EA500312F0FF024FEA510198B2EED15B
:102E20004FEA1C410822CCF3074C8CEA000303F064
:102E3000010303EB830E03EB4E33013A83EA5003A5
:102E400012F0FF024FEA5C0C98B2EED1090A082298
:102E500081EA000303F0010303EB830C03EB4C3323
:102E6000013A83EA500312F0FF024FEA510198B28F
:102E7000EED110BD00B503461FFA83FC08460822B8
:102E8000D9B281EA000303F0010303EB830E03EBE5
:102E90004E33013A83EA500312F0FF024FEA510128
:102EA00098B2EED14FEA1C21082281EA000303F018
:102EB000010303EB830C03EB4C33013A83EA500329
:102EC00012F0FF024FEA510198B2EED15DF804FB17
:102ED000002070472DE9F04F97B0044621981F4617
:102EE000430654BF834B844B154610F010020192E9
:102EF00040F0AB8010F001020CBF20263026029675
:102F000010F0020900F0200A08D00029C0F2BF80AA
:102F1000460740F1A880013F4FF02B09BAF1000F9E
:102F200008D0102D00F0CB80082D08BF07F1FF3727
:102F30004FF0200A81BB30238DF81430209B0126EE
:102F4000B342B8BF33468B460DF11408FF1A002A6E
:102F50003CD1002FD8BF07F1FF3737DD20463A4676
:102F6000202103933C4401F080F8039BB9F1000F4A
:102F700071D1BAF1000F04D0082D00F09880102D07
:102F80007ED0019A002A14BF4FF0FF376FF001077F
:102F900039E007464FF02D090DF114084046002690
:102FA000B1FBF5FC05FB1C1B8E46AE4513F80B1060
:102FB00000F8011BB346614606F10106F0D2209BE2
:102FC000B342B8BF3346FF1A002AC2D0B9F1000F8E
:102FD00001D004F8019BBAF1000F03D0082D75D081
:102FE000102D4FD0019A72B9002FD8BF07F1FF37CB
:102FF00009DD3A4620460299019301F036F8019B1B
:103000003C444FF0FF37209A964206DA9E1B20463A
:103010003246302101F029F834440BF1010B08EB62
:103020000B03621E13F8011D02F8011F4345F9D17D
:10303000002F5C4405DD20463A46202101F015F8BA
:103040003C44204617B0BDE8F08F202620F0010058
:103050001022029654E704F8019BBAF1000F29D020
:103060004FF0FF37BAE710F008001ABF07F1FF373B
:103070004FF020098146BAF1000F3FF45BAF50E7F3
:103080004FF0FF3747F6300224F8022BAAE74942F7
:10309000781EBAF1000F3FF47CAF102D23D0082D1D
:1030A0001BD007464FF02D094FF0200A74E730225D
:1030B00004F8012B019A6AB96FF00107A3E7023FF8
:1030C0004FF0200A00293FF436AF65E7302204F8BC
:1030D000012B87E74FF0FF3795E7023F4FF02D09AF
:1030E0004FF0200A58E7033F4FF02D094FF0200A18
:1030F00052E700BFAC670008D46700080FB42DE9A1
:10310000F04FF7B080AA52F804AB0B929AF8003057
:10311000002B00F01D8336AFBB4602979046574602
:10312000252B24D00BF8013B7B780137002BF7D1FE
:10313000029F00238BF800303C78002C00F01183B4
:103140003D4622AE3470B6484FF6FF730122314639
:10315000FDF728FF284615F8014F002CF2D1C7F1E2
:103160000107384477B0BDE8F04F04B07047002540
:103170007B78A3F120027E1C102A0AD8DFE802F037
:103180006A0909660909090909090962095E090943
:103190005A00A3F13002092A40F2F7802A2B00F0EE
:1031A00002814FF0FF342E2B00F0E2804FF0FF3908
:1031B00003F0DF024C2A5FD0A3F14102372A4DD839
:1031C000DFE812F0A5024C004C004C004C004C0013
:1031D0004C004C004C004C004C004C004C004C008F
:1031E0004C004C004C004C004C004C004C004C007F
:1031F0004C008E034C004C004C004C004C004C002A
:103200004C004C0089034C003B0183034C005701E8
:103210004C004C0083034C004C004C004C004C0014
:10322000930391014C004C00A8014C00D5024C00C6
:103230004C008B0345F00105374699E745F0100532
:10324000374695E745F00405374691E745F02005F8
:1032500037468DE745F00805374689E7B246252B06
:1032600000F0E08025230BF8013B9AF80030002B9A
:1032700040F0DA80029F5CE719467378A3F14102BF
:1032800006F1010A372AEAD801A050F822F000BF5F
:10329000733600085F3200085F3200085F320008B2
:1032A0005F3200085F3200085F3200085F320008BA
:1032B0005F3200085F3200085F3200085F320008AA
:1032C0005F3200085F3200085F3200085F3200089A
:1032D0005F3200085F3200085F3200085F3200088A
:1032E0005F3200085F3200085F3200088D35000849
:1032F0005F3200085F3200085F3200085F3200086A
:103300005F3200085F3200085F3200085F32000859
:10331000993500085F3200083D340008EF3300089B
:103320005F320008753400085F3200085F32000821
:10333000EF3300085F3200085F3200085F32000898
:103340005F3200085F3200086F360008E934000879
:103350005F3200085F320008173500085F3200084E
:10336000673600085F3200085F3200086B360008DD
:103370007378A3F13001092906F101021ED92A2B25
:103380002ED016464FF0000912E7002404EB840407
:1033900003EB440416F8013FA3F13002092AA4F11B
:1033A0003004F3D9FFE658F8044BBB78002C07F142
:1033B0000206BCBF644245F01005F4E64FF0000978
:1033C00009EB890903EB490912F8013FA3F1300128
:1033D0000929A9F13009F3D929EAE9791646E7E67E
:1033E00058F8042BB37822EAE2790236E0E66C2939
:1033F00045F0020500F0BC8108F10403D8F8001084
:103400000A2298465846CDE900952346FFF762FD0B
:103410008346574617F8013F002B7FF481AE87E6BD
:10342000980000209AF800300BF8013B574617F837
:10343000013F002B7FF474AE7AE6B246ED0608F148
:1034400004060AF1010740F12F82D8F800300BF88A
:10345000013B012C06DD013C58462246202100F0AC
:1034600004FEA3449AF80130B046002B7FF458AE16
:103470005EE6B24608F1070828F00708EB06F8E810
:10348000026740F1ED8110202023CDE9040325F0EF
:10349000010545F002050022002330463946FDF7BC
:1034A000A5FA002840F0E881690740F1F5812B2357
:1034B000013C0393B9F1FF3F47EC106B08BF4FF09D
:1034C00006090DAE22AB32460CA9484600F05AFC64
:1034D0000D9B07460EAE002B00F04C812D23337060
:1034E0000DF1390247E1B246601C04BF45F0010509
:1034F000082458F8041B23465846CDE900951022AD
:103500005746FFF7E7FC17F8013F8346002B7FF48F
:1035100007AE0DE6B24658F8046B05F01005002E14
:1035200000F0B8813378002B00F05C82B144334660
:1035300004E013F8012F002A00F09C814B45F8D1DC
:10354000A9EB0609002D00F03182B9F1000F0ADD68
:103550000BF1FF3306EB090116F8012B03F8012FDD
:103560008E42F9D1CB444C450AF1010708DDA4EBAA
:1035700009025846202100F078FD5C44A4EB090BB9
:103580009AF80130002B7FF4CBADD1E545F0400532
:10359000102258F8041B35E76C2900F0778158F8A1
:1035A000040B0378002B00F0BB80002101260A46A3
:1035B00022AF632B40F3AF80DFF8B8C3DFF8B893D6
:1035C000ACFB03EC4FEA5C1C4FF0640E0EFB1C33AB
:1035D000A9FB03E9DFF894E34FEAD9091EF80CC010
:1035E00007F802C01EF809C007F806C009EB8909F0
:1035F0000232A3EB490301311EF80330BB54042906
:1036000002F101060CD02E23BB5510F8013F721CAD
:103610000236002BCDD1013130230429BB54F2D125
:10362000EA060DD4B442D8BF04F1FF3408DDA21B72
:103630005846202100F019FD5C44A4EB060B741ED3
:10364000002E05DD58463946324600F084FDB3446D
:10365000A642BFF6DEAEA61B58463246202100F039
:1036600004FDB344D5E60A2293E7102291E708222D
:103670008FE76C2945F0400591D158F8041BBA48F2
:1036800000220139134622AF4FF03A0C02E007F84E
:1036900009C0033311F801EF4FEA1E190EF00F0EA7
:1036A000013203F1010A10F8099010F80EE007F852
:1036B0000390062A07F80AE003F10209E7D1E906B8
:1036C0000ED44C45D8BF04F1FF3409DDA4EB090248
:1036D0005846202100F0C9FC5C44A4EB090B544679
:1036E000584639464A4600F036FDA145CB4407DA34
:1036F000A4EB090958464A46202100F0B6FCCB4409
:10370000374617F8023F002B7FF40AAD10E545F06D
:103710004005B24643E7092B08DCDFF850E26AE7D0
:1037200022AF302301263B7031466CE7DFF848C2F8
:10373000ACFB03EC4FEADC0CDFF830E20CEB8C095D
:103740001EF80CC007F802C0A3EB4903324652E74B
:1037500036AFBB4600238BF800303C78002C7FF45A
:10376000EFAC204677B0BDE8F04F04B07047B246EA
:103770000A220EE732463B780993002B00F0B8800E
:103780000C990891002940F34981791C8C46DDF899
:1037900020E009992E20ACEB0703013B9E4508BFB2
:1037A00002F8010B02F8011B1CF8011B0029F2D1E1
:1037B00000231370AF06337824D5B9F1000F21D15F
:1037C00037463BB904E1452B08D017F8013F002BE1
:1037D00000F0FE802E2B18D0652BF4D13B7873B10E
:1037E00007F580713B4613F8012F0AB18B42FAD1DD
:1037F000DA1B002A03DD791CB81C00F01DFC2E2307
:103800003B703378002B00F0E78037464EAA17F85C
:10381000013F002B00F089809742F8D1049BA4F56A
:103820008074002B00F0AA80039B4FF48077002B5C
:1038300040F08180E90600F18680002C40F305818C
:1038400058460599224600F010FCA344002F7FF74C
:10385000E0AD584631463A4600F07DFCBB44D8E521
:1038600015F0010304930CBF2023302345F002051B
:10387000059310E6994663E607F100430793069621
:103880002D23DDE90667013C039313E658F8041B7A
:103890003648F5E6364E49E615F008031CBF2023EE
:1038A00004F1FF34039305E6012C33DD5846621E14
:1038B0000BF1FF3B202100F0D8FBD8F800300BF8CB
:1038C0000430A3440BF1010BCCE545F00205B246F0
:1038D00008F1040392E5B24661E6B246102258E6CA
:1038E00045F04005B246102253E6B246082250E6A3
:1038F00030211170B9F1000F00F08980931C2E2047
:1039000050704A46184600F0B0FB099A00F80920AA
:10391000337877E7D8F800300BF8013B9AF801309C
:10392000B046002B7FF4FCAB02E4049BBF1BE41BFE
:1039300033B3039B13B1039B0BF8013BEB067FF5FD
:103940007CAF002F05DD584631463A4600F003FCB7
:10395000BB44002C7FF75DAD58462246202100F085
:1039600084FBA34455E500BFD4670008AC6700089A
:10397000FC6700081F85EB51CDCCCCCC4FF4807791
:10398000002C32DD58462246202100F06EFB039BBE
:10399000A344002B3FF45AAF15F0100F0BF8013B76
:1039A00014BF4FF0FF346FF00104CAE7A145A8BF70
:1039B00004F1FF34BFF6C9ADA4EB090258465C44DC
:1039C0002021A4EB090B00F050FB09F1FF34BCE50A
:1039D0002E233B80337815E7049B83B9002C4ADD06
:1039E000049FCFE79DB39946BDE5039B002B3FF4B1
:1039F0002DAFEA060BF8013B27D4023CA1E7039B5D
:103A00006BB315F010070BF8013BA2D115E782F854
:103A10000190AA0633783FF5D3AEF3E6134642F69B
:103A2000306223F8022BC1F100022BD0302118465E
:103A300000F01BFB0899421A09993B4602F8011B4A
:103A400013F8011F0029F9D1B2E6013C79E7002CF7
:103A5000D8BF0AF101077FF793ADA946ACE7E806A6
:103A60003FF577AF002C0FDD58460599224600F050
:103A7000FCFAA344CDE4039B002B3FF4CAAC049FA3
:103A8000013C58E71A46D7E7013C62E72DE9F047C9
:103A9000089D0F4604468C46002B48D18A421646A4
:103AA00061D9B2FA82F34BB1C3F1200201FA03FCEF
:103AB00020FA02F29E4042EA0C0C9C404FEA164E5D
:103AC000B7B2BCFBFEF1220C0EFB11CC42EA0C4259
:103AD00001FB07F0904209D9B21801F1FF3C80F0D8
:103AE000EE80904240F2EB8002393244121AA4B2C6
:103AF000B2FBFEF00EFB102244EA024400FB07F783
:103B0000A74209D9341900F1FF3280F0DA80A742C8
:103B100040F2D7803444023840EA0140E41B0021DF
:103B20001DB1DC400023C5E90043BDE8F0878B42AE
:103B300006D90DB1C5E9000100210846BDE8F087AE
:103B4000B3FA83F1002948D1BB4202D3824200F28A
:103B50000781841A67EB030201209446002DE4D00C
:103B6000C5E9004CE1E7002A00F09280B2FA82F346
:103B7000002B40F0A8808A1A4FEA164E1FFA86FCE6
:103B80000121200CB2FBFEF70EFB172240EA024295
:103B90000CFB07F0904207D9B21807F1FF3802D2A8
:103BA000904200F2E2804746121AA4B2B2FBFEF045
:103BB0000EFB102244EA02440CFB00FCA44507D98A
:103BC000341900F1FF3202D2A44500F2CB80104636
:103BD000A4EB0C0440EA0740A2E7C1F120068B40A9
:103BE00022FA06FC4CEA030C07FA01F420FA06F369
:103BF000F7404FEA1C49234300FA01F81FFA8CFEF4
:103C0000B7FBF9F01C0C09FB107744EA074400FBF2
:103C10000EF7A74202FA01F20AD91CEB040400F1E4
:103C2000FF3A80F09B80A74240F2988002386444BB
:103C3000E41B9FB2B4FBF9F309FB134447EA0444C5
:103C400003FB0EFEA64509D91CEB040403F1FF3764
:103C500080F08280A6457FD9023B644443EA00405D
:103C6000A4EB0E04A0FB02E7BC427346B94663D343
:103C700060D05DB1B8EB030264EB090404FA06F608
:103C800022FA01F31E43CC40C5E9006400214CE751
:103C90006208480842EAC1710B0C43EA00438AB249
:103CA00042EA0342B3FBF6F1E407B4463746B646B0
:103CB0001F23B0FBF6F0D21B41EA004161E76146E9
:103CC00014E7104628E7C3F1200120FA01F29E40D4
:103CD00027FA01F19F403A434FEA164E1FFA86FC3D
:103CE000B1FBFEF70EFB1710110C41EA004107FB78
:103CF0000CF8884504FA03F43AD9711807F1FF303B
:103D000001D288451FD8A1EB0801B1FBFEF808FBE2
:103D10000CF70EFB181192B242EA0142BA422FD2BE
:103D2000B21808F1FF31C6D2BA42C4D2A8F10201DA
:103D30003244C0E7F0459CD2BEEB020367EB0C07B0
:103D40000138B94695E7A6EB08084144B81EB1FB17
:103D5000FEF808FB0CF7DCE73B467FE7504667E7D9
:103D60000846FBE63444023832E7023F32441BE7A0
:103D7000A1EB08013846B1FBFEF808FB0CF7C8E7D9
:103D8000414698E72DE9F0432DED028BB0EE408AD5
:103D9000F0EE608A9046234A85B0166805460F46C5
:103DA0001C4683B9B26A00F123039A420ADC00F18F
:103DB0002409F16A4A46304601F0CEFC044610B3AD
:103DC000C6E90A90F46AB0EE480AF0EE680A03AB5E
:103DD000CDE900832A463B460321304600F054FAE1
:103DE0003B6822465B42039E8642114611D81B1B4C
:103DF0003026C818854211DC1344E91AAB42C8BF0B
:103E0000002100238B54204605B0BDEC028BBDE899
:103E1000F08310F8011B02F8011BE4E701F8016BC5
:103E2000E7E700BF24000020002310B50446C0E9E6
:103E30000033C0E90433836081814366C2818361BA
:103E4000194608225C3000F010F90D4B63620D4BEF
:103E5000A3620D4BE3620D4B23630D4B24629C4226
:103E600006D003F16802944202D0D0339C4205D1BF
:103E700004F15800BDE8104000F06AB910BD00BF61
:103E8000B13F0008D33F00080B4000083140000854
:103E9000F8000020024A0349034800F06BB800BF55
:103EA00018000020B95800082800002041680C4B79
:103EB000994210B5044601D001F0FEFCA168094BFF
:103EC000994202D0204601F0F7FCE168064B994286
:103ED00004D02046BDE8104001F0EEBC10BD00BF8C
:103EE000F800002060010020C80100200C4B0D4AA2
:103EF0000D4810B504211A600022FFF795FF0A4B08
:103F000001221C46092103F16800FFF78DFF04F12F
:103F1000D0000222BDE810401221FFF785BF00BF8C
:103F200030020020953E0008F8000020014800F013
:103F300010B900BF39020020014800F00BB900BFE2
:103F40003902002010B50446FFF7F0FF236A1BB1C9
:103F5000BDE81040FFF7F0BF044B2362044B1B6821
:103F6000002BF5D1FFF7C2FFF2E700BFAD3E00081E
:103F7000300200202DE9F843074688461446002603
:103F8000D4E90195B9F1010905D52468002CF7D1D0
:103F90003046BDE8F883AB89012B07D9B5F90E305F
:103FA000013303D029463846C04706436835E9E760
:103FB00010B50C46B1F90E1000F082F80028ABBF26
:103FC000636DA3891B1823F48053ACBF6365A38181
:103FD00010BD2DE9F0411F468B89DB0505460C46D7
:103FE000164605D5B1F90E100223002200F056F84E
:103FF000A389B4F90E1023F48053A38132463B46C3
:104000002846BDE8F04100F06DB810B50C46B1F996
:104010000E1000F043F8B4F90C30421C0BBF23F42F
:10402000805343F48053A381A38118BF606510BD02
:10403000B1F90E1000F022B8884210B501EB02046D
:1040400002D98442234607D8431EA14207D011F863
:10405000012B03F8012FF8E70244824200D110BD82
:1040600013F8011D02F8011DF7E7024403469342CD
:1040700000D1704703F8011BF9E7000038B5064D81
:104080000023044608462B6002F0C6F8431C02D108
:104090002B6803B1236038BD3402002038B5074DCA
:1040A00004460846114600222A601A4602F0DCF84F
:1040B000431C02D12B6803B1236038BD34020020B9
:1040C00038B5074D04460846114600222A601A46B4
:1040D00002F0D2F8431C02D12B6803B1236038BD33
:1040E0003402002038B5074D044608461146002228
:1040F0002A601A4602F0D6F8431C02D12B6803B19D
:10410000236038BD3402002070B50D4B0D4D5B1B94
:104110009C100026A64209D102F0CEF80A4D0B4BA6
:104120005B1B9C100026A64205D170BD55F8043BD0
:1041300098470136EEE755F8043B98470136F2E719
:10414000C86A0008C86A0008C86A0008CC6A000883
:104150007047704770470A44914200F1FF3300D125
:10416000704710B511F8014B03F8014F9142F9D196
:1041700010BD2DE9F74F03690C69A34207467EDBAA
:10418000013C01F11408A30000F11405009305EBB4
:104190008403019358F8243055F8242001339A42BF
:1041A00008EB8409B2FBF3F62ED34FF0000AC446A5
:1041B000AE46D3465CF8043B98B206FB00A0020C66
:1041C0001B0C06FB0323DEF8002080B292B2121A09
:1041D0005A44DEF800004FEA134A9BB2C3EB224375
:1041E00003EB104392B242EA0342E1454EF8042B3E
:1041F0004FEA234BDED2009BEB582BB9019B043BCB
:104200009D421A462FD33C61384601F099F90028A7
:1042100025DB2946002058F8042BD1F800C01FFAEE
:1042200082FE1FFA8CF3A3EB0E030344120CC2EBC5
:10423000234202EB1C429BB243EA0243C14541F8D0
:10424000043B4FEA2240E6D255F8242005EB8403D4
:1042500022B9043B9D421A460BD33C6101363046DD
:1042600003B0BDE8F08F1268043B002ACBD1013CBB
:10427000C6E71268043B002AEFD1013CEAE70020C0
:10428000EEE70000000000002DE9F04F99B08DED41
:104290000E0B0C92C269229C0A9157EC106B81465E
:1042A000139382B9102000F019FE0246C9F81C00D1
:1042B00020B9AD4BEF21AD4801F036FB0023C0E93A
:1042C00001330360C360116859B152684A60012329
:1042D00093408B60484600F0F5FED9F81C30002270
:1042E0001A60B7F10008B5BF0123002323602360E3
:1042F0009F4BBCBF28F00048CDF83C8033EA080350
:104300001AD1139AC8F3130842F20F7358EA060839
:10431000136000F06C85239B53B9964B21E0964BBC
:1043200000930833239A1360009819B0BDE8F08F0A
:10433000904B00930333F5E79DED0E7B002251EC8B
:10434000170B00238DED067BFCF746FB824650B130
:10435000139A01231360239B13B1239A874B136095
:10436000874B0093E0E79DED060B16AA17A9484678
:1043700001F09AF95FEA1854169D019079D0079BD5
:10438000CDF850A0C3F31303DDE9060143F07F53DA
:1043900043F44013A4F2FF3419460022794BFBF793
:1043A000FBFE6BA3D3E90023FCF7AEF86AA3D3E9C5
:1043B0000023FBF7F3FE064620460F46FCF73AF8CB
:1043C00067A3D3E90023FCF79FF802460B4630466B
:1043D0003946FBF7E3FE06460F46FCF7B9FB002221
:1043E0008046002330463946FCF700FB48B1404682
:1043F000FCF720F832463B46FCF7EEFA08B908F124
:10440000FF38B8F1160F51D85F4B03EBC803D3E95F
:104410000023DDE90601FCF7E9FA002848D008F19D
:10442000FF38002312932D1B6B1E089343BF0023FC
:10443000C5F1010708930027B8F1000F3ADB089B8C
:10444000CDF8348043440893002309930A9B092B39
:1044500064D8052BC4BF043B0A930A9BA3F1020353
:10446000CCBF00240124032B64D8DFE803F05355AC
:10447000362B179C2C4404F23243202BC1BFC3F1CE
:10448000400308FA03F804F2124326FA03F3D6BFF6
:10449000C3F1200348EA030006FA03F0FBF7BAFF72
:1044A0000122A1F1F873013C149275E70123B9E7E9
:1044B0001290B8E7C8F1000309930023A7EB08079F
:1044C0000D93C3E701230B930C9B434405930133E6
:1044D000012B0493B8BF012306E001230B930C9B2F
:1044E000002B2ADDCDE90433D9F81C000021042279
:1044F00002F114059D4201F1010623D941604846AD
:1045000000F0A2FD0090002842D1204B024640F26C
:10451000AF11D0E60023E1E70023D4E70124002314
:10452000CDE90A344FF0FF33CDE9043300221223E2
:104530000C92D9E701230B93F4E70123CDE904336F
:104540001A46F5E752003146D2E700BFAFF30080CC
:1045500061436F63A787D23FB3C8608B288AC63F89
:10456000FB799F501344D33F776800088E6800089A
:104570000000F07F7168000868680008766800082D
:10458000756800080000F83FF8690008E76800084F
:10459000D9F81C30009A1A60049B0E2B00F2A180FF
:1045A000002C00F09E80B8F1000F36DD9E4B08F025
:1045B0000F0203EBC20318F4807FD3E900AB4FEA8C
:1045C000281516D0994BDDE90601D3E90823FCF73D
:1045D000C5F8CDE9020105F00F050324934E75B926
:1045E000DDE9020152465B46FCF7B8F882468B468D
:1045F0002DE09DED067B02248DED027BEEE7E907C1
:1046000008D550465946D6E90023FBF77DFF013413
:1046100082468B466D100836E1E700F0AD80C8F1A8
:104620000005814B814E05F00F0203EBC203D3E975
:104630000023DDE90601FBF767FF2D1182468B465B
:1046400000230224002D40F08C80002BCED1129B41
:10465000002B00F09580764B002250465946FCF71F
:10466000C5F9002800F08C80049B002B00F08880A6
:10467000059B002B35DD08F1FF3302935046594668
:104680006C4B0022FBF740FF059E82468B460134AF
:104690002046FBF7CFFE52465B46FBF735FF664BE5
:1046A0000022FBF77BFD0446A1F15075CDE91045D2
:1046B000002E69D1614B002250465946FBF76CFD34
:1046C00022462B4682468B46FCF7AEF9002840F086
:1046D0009482224605F1004350465946FCF786F97C
:1046E00020BB179B002BC0F26081B8F10E0F00F3C6
:1046F0005C814D4B03EBC803D3E900AB0C9B002B53
:1047000080F2EE80049B002B00F3EA800ED14B4B2D
:10471000002250465946FBF7F7FE02460B46DDE9FC
:104720000601FCF76DF9002800F06A8200252C468E
:104730000C9B009EDB4302932746002429464846F3
:1047400000F0C0FC002F00F0C1802CB1BC4203D0AF
:104750002146484600F0B6FC3946484600F0B2FC17
:10476000B4E0EA0705D5D6E90023FBF7CDFE013416
:1047700001236D10083665E7DDE906AB022466E724
:10478000049ECDF8088083E7274B03EBC60353E96B
:1047900002010B9B002B55D002460B4600202849F6
:1047A000FBF7DCFFDDE91023FBF7F6FC009BCDE90E
:1047B00010019D191E4659465046FCF7C9F904469A
:1047C000FBF738FE02460B4650465946FBF7E4FC21
:1047D0003034DDE9102306F8014B82468B46FCF7A6
:1047E00005F9002872D152465B4611490020FBF7BB
:1047F000D3FCDDE91023FCF7F9F8002840F0B6807F
:10480000AE423FF46EAFDDE910010A4B0022FBF728
:104810007BFE084BCDE91001002250465946FBF7BC
:1048200073FE82468B46C6E7F8690008D069000827
:104830000000F03F0000244000001C400000144035
:104840000000E03FDDE91023FBF75EFE009B009DCA
:10485000CDE910013344159359465046FCF778F9D9
:104860000446FBF7E7FD30340B46024659465046F6
:10487000FBF792FC05F8014B159B9D4282468B4647
:1048800027D1009B0022DDE910011E44B34BFBF74A
:1048900085FC02460B4650465946FCF7C5F80028F1
:1048A00064D1DDE91023AD490020FBF775FC024619
:1048B0000B4650465946FCF799F800283FF411AFD3
:1048C000334616F8012D302AFAD01E46DDF808804E
:1048D0003AE0A34B0022FBF717FE82468B46BBE76C
:1048E000009E52465B46DDE90601FBF737FFFCF709
:1048F0002FF90746FBF79EFD52465B46FBF704FE89
:1049000002460B46DDE90601FBF746FC07F1300CD9
:10491000009C06F801CBA6EB040C049C64450246FF
:104920000B4633D1FBF73AFC52465B4604460D4634
:10493000FCF77AF8C0B952465B4620462946FCF798
:104940004BF808B1FB070FD40199484600F0BAFBB9
:104950000023139A337008F101031360239B002B8B
:104960003FF4E2AC1E60DFE4CDF8088033461E461B
:1049700013F8012D392A06D1009A9A42F7D1029AEA
:1049800001320292302201321A709FE7744B0022EA
:10499000FBF7BAFD02460B46CDE9062300220023B1
:1049A000FCF71AF800289CD0CEE70B9A002A00F0FA
:1049B000E3800A9A012A00F3C280149A002A00F0C8
:1049C000BA8003F23343099D3E46089A01211A44F6
:1049D00048461F44089200F029FC044656B1089B43
:1049E000002B07DDB342089AA8BF3346FF1AF61A18
:1049F000D31A0893099B0BB30B9B002B00F0C380C9
:104A0000002D00F0BD8021462A46484600F0CEFC2D
:104A1000019A01460446484600F01EFC0199824670
:104A2000484600F04FFB099B5B1B099300F0AE80EA
:104A3000099A5146484600F0B9FC019001214846C8
:104A400000F0F4FB0D9B0546002B00F0D7811A46C1
:104A50000146484600F0AAFC0A9B012B054600F3DC
:104A60009D800E9B002B40F094800F9BC3F313039B
:104A7000002B40F08E800F9B23F000431B0D1B0585
:104A8000002B00F08980089B0133013708934FF019
:104A9000010A0D9B002B00F0B7812B6905EB830306
:104AA000186900F077FBC0F12000089B184410F053
:104AB0001F007ED0C0F12003042B72DD089BC0F1E3
:104AC0001C000344074406440893002F05DD0199A8
:104AD0003A46484600F0C6FC0190089B002B05DDD5
:104AE00029461A46484600F0BDFC0546129B002B9D
:104AF00061D00198294600F023FD00285BDA08F117
:104B0000FF330293019900230A22484600F0FCFA81
:104B10000B9B0190002B00F07981002321460A2293
:104B2000484600F0F1FA059B002B044672DC0A9B14
:104B3000022B49DC6EE0169BC3F1360343E7049B6E
:104B40005D1E099BAB420DDB5D1B049B002BBFF67A
:104B50003BAF049BFE1A002337E700BF0000E03F95
:104B600000002440099B0D9A0995EB1A1A440D92F6
:104B7000049B3E46002528E7099D0B9C3E462DE7F9
:104B8000DDF804A054E7099A019953E7CDF804A091
:104B900054E74FF0000A7CE79A467AE74FF0000AA4
:104BA0007BE792D0089A1C331A441F441E44089293
:104BB0008BE70346F6E7049BCDF80880002B23DC47
:104BC00005930A9B022B21DD059B002B7FF4B0ADE2
:104BD00029460522484600F097FA01460546019805
:104BE00000F0AEFC00287FF7A3AD009E312306F84D
:104BF000013B029B013302939EE535462C46F4E7C8
:104C0000049DCDF80880F9E7049B05930B9B002BCE
:104C100000F00081002E05DD21463246484600F0B6
:104C200021FC0446BAF1000F5AD06168484600F0F2
:104C30000BFA064628B9824B024640F2EF21FFF7F5
:104C40003ABB22690232920004F10C010C30FFF7EA
:104C500082FA01223146484600F004FC0746009BD8
:104C6000009A03F1010B059B134406930E9B03F07E
:104C7000010308930BF1FF33294601980493FFF7D2
:104C800078FA2146059000F1300A019800F058FCAE
:104C90003A4680462946484600F06EFCC268064601
:104CA00002BB0146019800F04BFC024631464846E3
:104CB000099200F007FADDE9092342EA0301089BA3
:104CC00019435E4610D1BAF1390F2BD0B8F1000F5D
:104CD00002DD059B03F1310A049B83F800A02DE55A
:104CE0002746BCE70122E1E7B8F1000F06DB0A9B8B
:104CF00048EA0308089B58EA030820D1002AEBDDA4
:104D000001990122484600F0ADFB2946019000F0D0
:104D100017FC002803DCDFD11AF0010FDCD0BAF158
:104D2000390FD6D1049A3923137033461E46013BFE
:104D300016F8012C392A52D001321A70FEE4002AEA
:104D400007DDBAF1390FEDD0049A0AF101031370AF
:104D5000F4E4069B0BF801AC5B452AD001990023D3
:104D60000A22484600F0D0F9BC4201904FF00003FF
:104D70004FF00A022146484606D100F0C5F9044624
:104D800007460BF1010B75E700F0BEF93946044602
:104D900000230A22484600F0B7F90746F1E7059BD1
:104DA0005E1E002B009BD8BF00265A1C27461644C7
:104DB000002401990122484600F054FB2946019045
:104DC00000F0BEFB0028B0DC02D11AF0010FACD11C
:104DD00033461E4613F8012D302AFAD0AEE4009A6D
:104DE0009A42A3D1029B013302933123AFE7239B65
:104DF000002B7FF494AA134BFFF7B3BA0A9B012B45
:104E00007FF72FAEDDF834A001204EE6059B002B86
:104E10007FF7D7AE009E01982946FFF7AAF900F167
:104E2000300A009B06F801ABF21A059B9342B6DDEF
:104E3000019900230A22484600F066F90190EAE74A
:104E4000E76800086868000838B50546002941D0C1
:104E500051F8043C0C1F002BB8BFE41800F0E8F830
:104E60001D4A136833B9636014602846BDE83840B2
:104E700000F0E4B8A34208D9206821188B4201BF92
:104E800019685B6809182160EDE71A465B680BB189
:104E9000A342FAD911685018A0420BD120680144EE
:104EA000501883421160E0D118685B685360084471
:104EB0001060DAE702D90C232B60D6E720682118AE
:104EC0008B4204BF19685B68636004BF09182160E6
:104ED0005460CAE738BD00BF40020020024B0146C3
:104EE000186800F025B800BF2400002070B50F4EF0
:104EF0000C463168054611B900F006FD30602146C8
:104F0000284600F001FD431C03D14FF0FF3420463A
:104F100070BDC41C24F00304A042F8D0211A284616
:104F200000F0F2FC0130F2D1EFE700BF3C020020BC
:104F30002DE9F843CD1C25F0030508350C2D38BFAD
:104F40000C25002D064601DBA94204D90C23336051
:104F50000020BDE8F883DFF8D48000F069F8D8F8C5
:104F600000301C4644BB29463046FFF7BFFF431CB8
:104F7000044658D1D8F800402746002F43D1002CD2
:104F80004BD023683946304604EB030900F0BCFCE3
:104F9000814542D121686D1A29463046FFF7A6FFA8
:104FA00001303AD023682B442360D8F800305A6887
:104FB00062BBC8F800700FE02268521B20D40B2A95
:104FC00017D96119A342256018BF5960636808BFEB
:104FD000C8F8001062514B60304600F02FF804F121
:104FE0000B00231D20F00700C21A1CBF1B1AA35080
:104FF000AFE76268A3420CBFC8F800205A60EBE735
:1050000023466468AEE73C467F68B6E71A465B68AD
:10501000A342FBD100235360DEE70C23336030460C
:1050200000F00CF894E70560D6E700BF40020020CE
:105030000148FFF78EB800BF380200200148FFF793
:1050400089B800BF3802002070B5C46905460E4615
:1050500084B91020FFF742FF0446E86128B90246F0
:10506000164B17486B2100F05FFC0023C0E90133A9
:105070000360C360E36853B921220421284600F08D
:1050800071FCEB69E060DB680BB9002070BD53F880
:10509000260030B1026843F826200023C0E903331C
:1050A000F4E7012101FA06F4621D9200284600F09F
:1050B00059FC0028E9D0C0E90164EEE777680008F0
:1050C000F868000870B5C66905460C4676B9102028
:1050D000FFF704FF0246E86120B9094B09488F2118
:1050E00000F022FCC0E901660660C6603CB1EB69D5
:1050F0006268DB6853F82210216043F8224070BDDB
:1051000077680008F86800082DE9F0410D69074646
:105110000C461E4601F1140C0020DCF8003099B258
:1051200002FB01611E0C0B0C02FB063389B201303D
:1051300001EB034185424CF8041B4FEA1346ECDCBB
:105140000EB3A368AB4219DC616838460131FFF742
:105150007BFF804628B902460C4B0D48BA2100F06F
:10516000E3FB2269023204F10C0192000C30FEF7DD
:10517000F2FF21463846FFF7A5FF444604EB8503BE
:1051800001355E6125612046BDE8F081E7680008D1
:10519000F8680008B0F5803F034636BF03040020DE
:1051A0001020B3F1807F3CBF1B020830B3F1805F59
:1051B0003CBF1B010430B3F1804F3CBF9B00023069
:1051C000002B05DB13F0804F00F1010008BF202009
:1051D00070470368024613F007000BD0D90721D4AB
:1051E000980749BF5B089B08012013605CBF1360F0
:1051F0000220704799B209B91B0C1020D9B209B925
:1052000008301B0A190704BF1B090430990704BFA3
:105210009B080230D90703D45B0800F1010003D0DA
:1052200013607047002070472020704710B50C466F
:105230000121FFF709FF024628B9054B054840F256
:10524000451100F071FB01234461036110BD00BFF3
:10525000E7680008F86800082DE9F04FD1F81090D1
:10526000D2F810A0D14585B08846144604DB5346D9
:105270000C46CA4690469946A36861680AEB09063F
:10528000B342B8BF0131FFF7DFFE30B90246454BEC
:1052900045484FF4B17100F047FB00F1140505EBF0
:1052A00086072B460022BB421FD304F1140C08F1E1
:1052B00014010CEB8A0301EB890202921A1B153AC6
:1052C00022F0030215349C4288BF00220192029A08
:1052D00003918A420CD8002E03DD57F8043D002BC1
:1052E0005DD0066105B0BDE8F08F43F8042BDAE726
:1052F000B1F800A0BAF1000F24D0E046A9464FF063
:10530000000E58F8042BD9F800401FFA82FBA4B213
:105310000AFB0B444FEA124BD9F8002074444FEAC1
:10532000124E0AFB0BE202EB1442A4B244EA02441E
:10533000434549F8044B4FEA124EE2D8019AAA18A5
:10534000C2F804E0039AB2F802800431B8F1000F09
:1053500023D02A68E6469146AA464FF0000BBEF8D5
:10536000004008FB04B404EB194492B242EA044240
:105370004AF8042B5EF8042BDAF800904FEA124B3F
:105380001FFA89F208FB0B2202EB144273454FEA25
:10539000124BE4D8019C2C196260043597E7013E5A
:1053A00099E700BFE7680008F86800082DE9F843AE
:1053B000174612F0030280460D4607D0264C013AEC
:1053C000002354F82220FFF79FFE0546BF103FD070
:1053D000D8F81C4094B91020FFF780FD0446C8F8A7
:1053E0001C0030B902461D4B1D4840F2B31100F0BD
:1053F0009BFA0023C0E901330360C360A66846B985
:1054000040F271214046FFF711FF0023A0600646DD
:1054100003602C464FF0000907F001037F1053B1E1
:10542000294632464046FFF717FF214605464046CB
:10543000FFF748FE67B1306838B93246314640461A
:10544000FFF70AFF3060C0F8009006462C46E3E7FD
:105450002846BDE8F88300BFC469000877680008E3
:10546000F86800082DE9F84F0C464968236903EBFA
:105470006218A368074615464FEA621A08F1010947
:105480004B450BDB3846FFF7DFFD064648B90246C1
:10549000294B2A484FF4EF7100F046FA01315B00C6
:1054A000EEE7002300F1140C00F1100219465345F9
:1054B00035DB22692AEAEA7A0CEB8A0C04F1140340
:1054C00015F01F0E614603EB82022CD0CEF1200AAC
:1054D000002518688B4600FA0EF02843CBF8000030
:1054E00053F8045B9A4201F1040125FA0AF5F0D859
:1054F000131B153B23F0030304F115018A4238BF47
:1055000000239C44CCF8045005B9C1463846C6F87F
:1055100010902146FFF7D6FD3046BDE8F88F42F8DF
:10552000041F0133C3E753F8045B0D609A4201F195
:105530000401F8D8E9E700BFE7680008F868000848
:105540000A6903460069801A30B50ED1143314314C
:1055500003EB820401EB820154F8045D51F8042D41
:10556000954203D005D24FF0FF3030BDA342F3D3B4
:10557000FBE70120F9E700002DE9F74F8A460646D0
:10558000114650461446FFF7DBFF051E12D129468F
:105590003046FFF759FD024628B9414B40F237210A
:1055A000404800F0C1F90123C0E90435104603B0BA
:1055B000BDE8F08FBCBF5346A2463046DAF804106F
:1055C000BABF1C4601250025FFF73EFD024618B96B
:1055D000334B40F24521E3E7DAF810702669C560E5
:1055E0000AF1140904F1140E00F114050AF1100374
:1055F00009EB87080EEB86060193AB464FF0000CD3
:10560000019B5EF8040B53F804AF01931FFA8AF371
:10561000194683B2CB1A000C6344C0EB1A4000EB6E
:1056200023409BB243EA004376454BF8043B4FEAE4
:10563000204CE5D8331B153B153423F00303A64259
:1056400038BF0023E8184B441C1D04302646A5EB48
:105650000905464506EB050E0ED308F10301091BAB
:1056600021F003010133984538BF0021014451F86E
:10567000043D9BB1176199E756F8041BE2464FEAD7
:1056800011491CFA81FC514409EB2C4989B241EAC9
:1056900009414FEA294CCEF80010DAE7013FE6E76E
:1056A000E7680008F86800082DE9F7430F46012174
:1056B00059EC108B1646FFF7C7FC044630B902467A
:1056C000234B244840F20F3100F02EF9C9F30A555C
:1056D000C9F313030DB143F480130193B8F1000330
:1056E00023D068460093FFF774FD0099D8B1019A62
:1056F000C0F1200302FA03F30B43C240636101923D
:10570000019BA361002B0CBF012202222261A5B1E3
:10571000A5F2334505443D60C0F1350030602046B8
:1057200003B0BDE8F0836161EAE701A8FFF751FD2E
:10573000019B636120300122E8E704EB8203A0F2C1
:10574000324038601869FFF725FDC0EB4210E5E7ED
:10575000E7680008F86800082DE9F041074614469C
:105760000D4621B9BDE8F0411146FFF7E1BB2AB96A
:10577000FFF76AFB25462846BDE8F08100F006F9F0
:105780008442064602D8B4EB500FF4D8214638467E
:10579000FFF7CEFB804608B94546ECE7B442224607
:1057A000294628BF3246FEF7D6FC29463846FFF781
:1057B0004BFBF1E7B1F90C202DE9F0411607054646
:1057C0000C4651D44B68002B02DC0B6C002B49DDDE
:1057D000E66A002E46D0002312F480522F682B6018
:1057E00031D0626DA389590705D56368D21A636BFE
:1057F0000BB1236CD21A0023E66A216A2846B0470F
:10580000421CB4F90C3006D129681D2946D8294A12
:10581000CA40D60742D500226260D90422692260BC
:1058200004D5421C01D12B6803B96065616B2F6000
:10583000C1B104F14403994202D02846FFF704FBAA
:10584000002363630EE0216A01232846B047024625
:10585000501CC7D12B68002BC4D01D2B01D0162B98
:105860001AD12F6000201EE00F69002FFAD0930795
:105870000E6808BF4B690F6018BF0023A6EB07082E
:105880008B60B8F1000FEDDD216AA66A43463A4607
:105890002846B047002808DCB4F90C3043F0400338
:1058A000A3814FF0FF30BDE8F0810744A8EB00086A
:1058B000E7E700BF0100402038B50B6905460C46FC
:1058C00013B90025284638BD18B1036A0BB9FEF795
:1058D00039FBB4F90C30002BF3D0626ED00704D43E
:1058E000990502D4A06DFEF734FC28462146FFF747
:1058F00061FF636EDA070546E4D4A3899B05E1D412
:10590000A06DFEF727FCDDE738B5064D0023044601
:1059100008462B6000F0B8FC431C02D12B6803B191
:10592000236038BD340200201FB514461A46094BC7
:105930001B680546D8684CB1074B0091CDE901348E
:1059400006492B4600F02AF800F03AF8044B1C46B2
:10595000F3E700BF24000020526900085F690008D7
:105960008D69000870B5A1FB025434B92946FFF7D0
:10597000DFFA064628B9304670BD0C2202600026C8
:10598000F9E72A462146FEF770FBF4E751F8043C9C
:10599000181F002BBCBF0B58C01870470EB403B5BE
:1059A000014603AB054853F8042B0068019300F04F
:1059B00037F802B05DF804EB03B070472400002014
:1059C00008B5062000F08CFB012000F073FC936802
:1059D000013B002B10B4936008DA9469A34201DB09
:1059E0000A2903D15DF8044B00F0C0BA1368581CB3
:1059F0001060197008465DF8044B7047F8B506460C
:105A00000F461446D518AC4201D1002007E014F827
:105A1000011B3A463046FFF7DAFF431CF3D1F8BDCD
:105A20002DE9F04F0D469DB014469846064618B134
:105A3000036A0BB9FEF786FA6B6ED90705D4AB89FA
:105A40009A0502D4A86DFEF784FBAB891B0701D52C
:105A50002B699BB92946304600F0C6FA70B16B6ECF
:105A6000DC0704D54FF0FF301DB0BDE8F08FAB89E7
:105A70009805F7D4A86DFEF76DFBF3E700230993B3
:105A800020238DF82930CDF80C803023DFF8AC814D
:105A90008DF82A304FF0010923469A4613F8012B5E
:105AA0000AB1252AF9D1BAEB040B0BD05B4622468A
:105AB00029463046FFF7A2FF013000F0A780099A7F
:105AC0005A4409929AF80030002B00F09F8000237E
:105AD0004FF0FF32CDE905230AF1010A0493079341
