:020000040800F2
:1000000000000220490200084508000849080008CD
:100010004D080008510800085508000800000000BD
:100020000000000000000000000000005908000867
:100030005D0800080000000061080008650800086D
:100040009902000899020008990200089902000824
:100050009902000899020008990200089902000814
:100060009902000899020008990200089902000804
:1000700099020008990200089902000899020008F4
:1000800099020008990200089902000899020008E4
:1000900099020008990200089902000899020008D4
:1000A00099020008990200089902000899020008C4
:1000B00099020008990200089902000899020008B4
:1000C00099020008990200089902000899020008A4
:1000D0009902000899020008990200089902000894
:1000E0009902000899020008990200089902000884
:1000F0009902000899020008990200089902000874
:100100009902000899020008990200089902000863
:100110009902000899020008990200089902000853
:100120009902000899020008990200089902000843
:100130009902000899020008990200089902000833
:10014000990200089902000899020008690800084D
:100150009902000899020008990200089902000813
:100160009902000899020008990200089902000803
:100170009902000899020008990200080000000096
:08018000990200089902000831
:1001880053B94AB9002908BF00281CBF4FF0FF31F6
:100198004FF0FF3000F00CB8ADF1080C6DE904CE5B
:1001A80004F06EF9DDF804E0DDE9022304B07047DD
:1001B800704700BF0348044B834202D0034B03B18E
:1001C800184770477C0000207C00002000000000D9
:1001D8000548064B1B1AD90F01EBA301491002D0A1
:1001E800034B03B1184770477C0000207C000020B7
:1001F8000000000010B5064C237843B9FFF7DAFF7A
:10020800044B13B10448AFF300800123237010BDE1
:100218008000002000000000284A000808B5054BAF
:100228001BB105490548AFF30080BDE80840FFF75A
:10023800CFBF00BF0000000084000020284A00084B
:10024800DFF834D001F0C2FC0C480D490D4A0023F8
:1002580002E0D458C4500433C4188C42F9D30A4A73
:100268000A4C002301E013600432A242FBD304F0DD
:1002780059FB00F063F870470000022000000020DE
:100288007C0000206C4A000880000020A00A0020A2
:10029800FEE7000010B5002394B0CDE90A33CDE99C
:1002A8000C33CDE90333CDE9053322490193079394
:1002B800086C214A40F080500864096C01F08051B4
:1002C800019101990293136843F480431360136802
:1002D80001204FF4803103F48043CDE908010293F3
:1002E8004FF480010224CDE90E4102980721022033
:1002F800CDE9120108224FF4A87308A810921193AF
:1003080002F0AEFF08B172B6FEE70F220346CDE950
:1003180003244FF4A05C4FF4805203A80521CDE9D3
:10032800053C079203F0B6F908B172B6FEE714B0BF
:1003380010BD00BF003802400070004080B50024A6
:100348008CB003F0D5FCFFF7A5FFCDE90644CDE955
:100358000844744B00940A941A6B734842F01002D4
:100368001A63196B01F01001009100990194196B3F
:1003780041F004011963196B01F00401019101991D
:100388000294196B41F080011963196B01F0800127
:10039800029102990394196B41F001011963196BD9
:1003A80001F00101039103990494196B41F00201D2
:1003B8001963196B01F00201049104990594196BF2
:1003C80041F0080119631B6B03F0080322460593EB
:1003D8000821059B03F0EEFB01221146534803F068
:1003E800E9FB224652484FF2100103F0E3FB0826CE
:1003F80001254D4806A9CDE906650227CDE908443F
:1004080003F0BEFA494806A9CDE90655CDE90844E6
:1004180003F0B6FACDE906674448052606A9CDE9F2
:1004280008440A9603F0ACFA01224FF490134148AD
:10043800089406A9CDE9062303F0A2FA04220023B2
:100448003D48089406A9CDE9062303F099FA4FF42C
:1004580080633948069306A9CDE9084407970A96A8
:1004680003F08EFA4FF21003314806A9CDE906359C
:10047800CDE9084403F084FA202200232C4808948C
:1004880006A9CDE9062303F07BFA02224FF4901364
:100498002548089406A9CDE9062303F071FA2748F0
:1004A8002749284A01604FF48043C0E90244C0E963
:1004B8000434C0E906444260046203F057FC08B102
:1004C80072B6FEE7034620492048214A03624FF4EA
:1004D8000074C0E90233C0E90633C0E90014C0E97A
:1004E800044203F00DFD034608B172B6FEE7194851
:1004F80019494FF48272C0E900120A22C0E9023396
:10050800C0E90433C0E90643C0E90833C0E90A3248
:1005180003F054FF20B900F037F800F05FF8FCE76B
:1005280072B6FEE7003802400010024000080240A0
:10053800000C02400000024000040240400100207C
:1005480000540040A0860100003C0040F800002054
:1005580000770100A00000200030014072B6FEE7DD
:10056800042908D0052902D0022908D07047054B74
:1005780003221A707047034B01221A707047014B0F
:10058800197070479401002008B5114911480122DB
:1005980000F092FA48B910490E4800F0ABFA60B979
:1005A8000C4800F0E3FA78B908BDFFF7D7FF0A490D
:1005B800084800F09FFA0028F2D0FFF7CFFF05485F
:1005C80000F0D4FA0028EFD0BDE80840FFF7C6BF16
:1005D800690500089801002000000020014800F08B
:1005E800CFBA00BF9801002030B5036889B0002455
:1005F800B3F1A04FCDE90244CDE90444069401D0FB
:1006080009B030BD1C4D00942B6B1C4843F001030E
:100618002B632B6B03F001034FF40072009302A9C4
:10062800009B029203F0ACF94FF4E0520223CDE9AB
:10063800022300220023CDE9042302A90A230F483C
:10064800069303F09DF96B6B43F080036B63019491
:100658006B6C43F480436B646B6C03F480432246F9
:10066800214601934320019B03F0BAFA432003F08B
:10067800F3FA09B030BD00BF003802400000024064
:10068800D0F8DC0300F070BCD0F8DC0300F088BCC4
:10069800D0F8DC0300F08EBC704700BFD0F8DC0354
:1006A80000F072BCD0F8DC0300F072BC90F8CC33D8
:1006B800012B01D00020704710B504460E484FF0BA
:1006C800A041C0F8DC430822C371C4F8D003022358
:1006D8000160A0F80520A0F8093001F0F7FA40B948
:1006E800054802F0BDF80146204600F039FC00201C
:1006F80010BDFFF733FFF3E77005002008B5D0F809
:10070800D00302F071F818B102280CBF01200220B2
:1007180008BD00BF08B5D0F8D00302F07BF818B1C7
:1007280002280CBF0120022008BD00BF08B5D0F880
:10073800D00302F099F818B102280CBF022001205A
:1007480008BD00BF08B5D0F8D00302F077F818B19B
:1007580002280CBF0120022008BD00BFD0F8D0033A
:1007680002F078B810B584B09DF8184000949DF850
:100778001C40D0F8D0030194BDF82040029401F049
:100788002FFA18B102280CBF0120022004B010BDB6
:1007980008B5D0F8D00301F085FA18B102280CBFCB
:1007A8000120022008BD00BF10B584B09DF8184094
:1007B8000094079CD0F8D0030194BDF8204002941F
:1007C8009DF82440039401F0C5FA18B102280CBF23
:1007D8000120022004B010BDD0F8D00302F032B8D6
:1007E80008B590F8CC33012B04D0C82003F0ACFA3C
:1007F800002008BD084600F017F8C82003F0A4FA46
:10080800002008BDD0F8D033C1EB011103EB810102
:10081800CB7D1BB181F83C200020704781F83D203A
:100828000020704703F090BA021E18BF0122024848
:10083800012103F0BFB900BF00080240FEE700BF76
:10084800FEE700BFFEE700BFFEE700BFFEE700BF10
:10085800704700BF704700BF704700BF03F062BA1F
:10086800014801F0EBBA00BF7005002082B00D4BC3
:10087800002100915A6C42F480425A645A6C02F486
:1008880080420092009A01911A6C42F080521A64D8
:100898001B6C03F080530193019B072002B003F007
:1008A8008DB900BF0038024030B5184B026889B0D6
:1008B80000249A42CDE90244CDE90444069401D0CB
:1008C80009B030BD124D00942B6B43F002032B632B
:1008D8002B6B03F0020300934FF410721223CDE93F
:1008E800022300980B480122042302A906930492CC
:1008F80003F046F801942B6C43F400132B642B6C23
:1009080003F400130193019B09B030BD005400406B
:10091800003802400004024070B52A4A01688EB0CF
:1009280000239142CDE90933CDE90B330D930793A9
:1009380001D00EB070BD0124C025022304A8CDE962
:100948000445069302F054FF002838D11E4B1F4877
:10095800002401941A6C42F400421A641A6C02F4DE
:1009680000420192019A02941A6B42F001021A6342
:100978001A6B02F001020292029A03941A6B42F077
:1009880004021A631B6B102103F0040309910393FB
:100998000226062509A9039BCDE90A64CDE90C4581
:1009A80002F0EEFF4FF4A4530948099309A9CDE9D1
:1009B8000A64CDE90C4502F0E3FF0EB070BDFFF705
:1009C800CDFDC3E7003C0040003802400000024073
:1009D800000802400000000000B51B4A016889B009
:1009E80000239142CDE90233CDE90433069302D0C6
:1009F80009B05DF804FB02F584320093506C40F4B2
:100A080080505064506C00F480500090009801931E
:100A1800136B0E4843F001031363136B9FED087BC0
:100A280003F00103019302A905238DED027B019ACE
:100A3800069302F0A5FF09B05DF804FBAFF3008050
:100A4800E000000002000000003001400000024009
:100A580070B5402604463246002100F5617003F067
:100A680049FF00254FF4807201232570A4F8012066
:100A78002383C4F81C232946C4F8C453A67104F17F
:100A88001C0003F037FF29464FF4007204F58E70FE
:100A980003F030FFC4F82653C4F82A53C4F82E5381
:100AA800C4F83253A4F83653294604F54E703E2252
:100AB800BDE8704003F01EBFC8B170B504460025FC
:100AC800C0E9DF550E4680F8CC23FFF7C1FF84F854
:100AD800235384F8205384F8215384F822530EB109
:100AE800C4F8D4632046FFF7E1FD002070BD022062
:100AF800704700BF49B1D0F8803333B90122C0F83C
:100B08008023C0F87813184670470220704700BF4A
:100B180090F83C338B4286BF80F8241300200220D3
:100B2800704700BF30B584464FF0000E9CF847432D
:100B38008C420EF101055FFA8EF04FF0010E07D0DE
:100B4800FF2905D0022D0CF11A0CEFD1FF2030BD82
:100B58009CF84843944201D0FF2AF3D19CF84943BA
:100B68009C42F4D0FF2BEDD130BD00BF10B5044638
:100B7800FFF7C4FD01212046FFF732FE002010BD1B
:100B880030B587B002238DF8173090F82133012B48
:100B980004BF03230370037804460B2B19D8DFE83E
:100BA80003F022344A7F189C06A5D6AFB71BD0F8AD
:100BB8007C3363B11B6998478DF817009DF817308F
:100BC800002B00F0E8809DF81730022B01D10D238F
:100BD8002370002007B030BDD0F87C33002BF8D04C
:100BE8005B699847F5E790F82033002BF1D0012393
:100BF8000370C820FFF716FE2046FFF7A3FD002369
:100C080084F81C33C4F8C833E3E790F82333012B86
:100C180000F01181D0F8C833B3F57A7F40F2BE8076
:100C280090F81F330133DBB2032B80F81F33CED883
:100C380000230370CDE7D0F8D4330BB104219847D3
:100C48006420FFF7EFFD2046FFF770FD05232370B2
:100C580084F81D030021204600F0CCFD802160713E
:100C6800204600F0C7FDA37994F81D2320710025C4
:100C7800029394F81C330146CDE9002520468022D2
:100C880000F0A2FDA17994F81D2394F81C3300927A
:100C9800CDE901512A466179204600F095FD98E793
:100CA800002580F82153FFF7D3FED4F87C3323B115
:100CB800DB6820469847C4F87C53D4F8D43313B182
:100CC80005212046984794F82233012BDDB200F025
:100CD800B8802046FFF712FD7BE74378072B47D8FB
:100CE800DFE803F0789B6A948CA23F63D0F8D43392
:100CF800002B3FF46EAF012198470823237068E763
:100D080090F83F339B0600F1A7800A23237060E721
:100D1800D0F88033002B3FF45CAF0022D0F8783352
:100D2800C0F87C23197990F8472391427FF44FAF9C
:100D38009A68C0F87C33904700287FF448AF0622B1
:100D4800D4F8D433227003212046984741E790F81D
:100D58003D1300F045FC00287FF43BAF09232370C6
:100D680037E790F83513002940F0E38007236370D4
:100D780001238DF817309DF8173003F0FF02002B80
:100D88007FF427AF94F8373384F82423012BB4D0A9
:100D9800072323701DE70B2323701AE70A33C0F8D3
:100DA800C8330A20FFF73EFD13E790F836130029F1
:100DB80040F0A3800023DCE7012100F0EBFB0546AF
:100DC800002800F0A6800328D2D10D22002322702B
:100DD8006370CDE7082100F0C7F90546002862D006
:100DE8000328C5D194F81E330133DBB2032B84F8F2
:100DF8001E3340F2AA800D232370B9E7B0F83A13E6
:100E080000F020FAC0BB05236370B1E7092100F0A8
:100E180019FA88BB04236370AAE7122100F0A4F929
:100E280050BB02236370A3E790F83413002959D10B
:100E3800062363709CE70022022380F81F230370B7
:100E4800C7E6002384F822332046FFF757FC2946DB
:100E58002046FFF7C5FCBCE6012100F0E7FB8DF852
:100E680017009DF81730002B3FF44FAF9DF817304F
:100E7800032B7FF4AEAE48E703287FF479AF94F8EC
:100E88001E330133DBB2032B84F81E33B3D86179E8
:100E9800204600F0C9FC2179204600F0C5FC00235B
:100EA8006370237064E794F82D2394F81D13A271DE
:100EB8000123637094F81C330091CDE90102217974
:100EC8008022204600F080FCA17994F81D2394F834
:100ED8001C330092CDE901512A466179204600F081
:100EE80073FC45E7FF2300F58E7200F003FB002832
:100EF8009ED003287FF43CAF9AE7FF2300F58E725B
:100F080000F0F8FA00283FF455AFC31E18BF0123BC
:100F18002FE70220FFF786FCA279032101236170E5
:100F280084F81C33029294F81D232179CDE9002519
:100F3800C6E7FF2300F58E7200F0DCFA00283FF4C4
:100F480015AF03287FF414AF10E76179204600F04D
:100F58006BFC2179204600F067FC0023237007E72B
:100F6800C0F8C413704700BFD0F8C4230132C0F8DA
:100F7800C42302780B2A00D07047D0F87C33002BAA
:100F8800FAD09B69184700BF012380F823337047C4
:100F98000022012380F8232380F82133704700BF03
:100FA80003460122002083F8202383F8210383F8D5
:100FB8002203704738B504460123002580F8213301
:100FC80080F8205380F82353FFF7A4FB21792046AB
:100FD80000F02AFC6179204600F026FC284638BD3E
:100FE80030B5037E013B83B004460A2B12D8DFE8F4
:100FF80003F01F270683616F343F4A571400D0F867
:10100800C4032379E081A289A168204600F0A4FBEB
:1010180004232376012003B030BD437E0133DBB2C5
:10102800022B437600F28680012303768370F1E772
:10103800427900F1100100F065FB02232376E9E70D
:101048004179FFF7C9FB012800F08480042801D00A
:101058000228DFD10B232376DCE70022037911462F
:1010680000F07AFBD4F8C423E28108232376D1E781
:101078000179FFF7B1FB01284BD00428EAD00528F5
:10108800C8D10320C7E70022012143790091114606
:1010980000F04AFBD4F8C423E2810A232376B9E797
:1010A8004179FFF799FB012833D002282ED0042874
:1010B800B0D1CFE701206379A289A16800902046CA
:1010C80000F032FBD4F8C423E28106232376A1E79B
:1010D8004179FFF781FB013804289BD801A353F815
:1010E80020F000BF29110008231100081D10000876
:1010F800351100082F1100080179FFF76DFB012851
:1011080004D00528D3D1BCE7002B09DA09232376BC
:1011180080E70D23237600207DE70523237679E7F2
:101128000723237676E70C232376AAE70B23237677
:10113800022070E7D0F8D43306210025984761795A
:101148006576204600F070FB2179204600F06CFBA4
:101158002570EDE7E28A94F91030002AD4D0002BEC
:10116800DBDA0323237655E7B1F5007F66D838B577
:101178008378012B0D46044634D0022B01D0012080
:1011880038BDFFF72DFF30B103284ED00228F6D125
:101198000123A37038BDB4F81C21A4F82623B4F8A1
:1011A8001E21A4F8282394F81D23D4F82031C4F86C
:1011B8002A3301218A42A17020764FEA136322D98B
:1011C800022A2FD00320082DDAD9D4F82A31D4F8EE
:1011D8002411B4F82821C4F83433C4F82E13A4F821
:1011E800322338BD4FF4D0614FF480720182C0F8C9
:1011F800122000F58E710222C582816085810376F6
:1012080082700120BCE7202B15D8072B06D90C4A81
:10121800083BDBB222FA03F3DB07D4D4082384F8B3
:101228002D33D0E7082BF9D1CDE701220023A27096
:101238002376032038BD402BF0D1C4E70320704744
:1012480001010001B1F5807F00F24F812DE9F04FD7
:101258008378012B87B005460F4600F11C044CD05B
:10126800022B03D0012007B0BDE8F08FFFF7B8FECE
:1012780038B1032800F001810228F3D10123AB70B3
:10128800F1E70123AB702B7F2876092B01D00923C6
:101298002B77EA8B2E6AC5F83C63B2F5807F28BFAE
:1012A8004FF4807209239246A5F83A236A7F85F89D
:1012B80039239F4295F8242085F8383385F8402350
:1012C800D1D94FF0000B2846DE46BEF1020F07D1F8
:1012D80011E02278144413446278042A9BB21AD08D
:1012E8009A45F6D8F6B2022E28BF02265FFA8EFE7D
:1012F800764500F2C6805846B5E74FF4D0620282C0
:101308004FF40072C0F812200222C18284608181E9
:1013180003768270A6E722780490092A1CBF092266
:101328002270092280F84223627880F84323A27849
:1013380080F84423E27880F84523277980F84673BB
:10134800627980F847230192A27980F848230392B2
:10135800E27980F849230592227A80F84A231A22F2
:1013680002FB0EF202920022974240F2A3809A45B5
:1013780040F2878021780C4419448BB261780529A2
:10138800F2D10199012953D04FF0070121704FF094
:10139800070C029800EBC201294481F84CC394F869
:1013A80001C081F84DC394F802C081F84EC394F887
:1013B80003C081F84FC3B4F80480A1F8508394F8AF
:1013C800069081F8529308F1FF31B1F5007F95F846
:1013D8001DB315D2BBF1000F4AD0BBF1010F00F0CD
:1013E8008180BBF1020F59D11CF0030B7FD1B8F1FA
:1013F800080F18BF4FF0030B002A52D10122B3E7A0
:10140800BBF1000F25D0BBF1010F58D0BBF1020F83
:1014180044D11CF0030B41D00321BBF1030F3DD194
:10142800B9F1000FE8D0B8F1080F98BF8B46E3E791
:10143800039902390129A7D8059994F800C0002911
:10144800A7D1BCF1090F01D0092121704FF0090C77
:101458009FE70CF0030102294FF0030BCCD0B9B180
:1014680009F1FF39B9F10F0F88BF4FF0030BC3E73C
:101478000CF003010229F2D1BEE701220023AA7071
:101488002B760320EFE609F1FF39B9F10F0F05D8E4
:10149800B8F1410F28BF4FF0030BADE74FF0030B36
:1014A800AAE70498022F0EF1010E00F11A007FF648
:1014B8000CAFE6E704980EF1010E1A3005E74FF07D
:1014C800030B1CF0010FE3D00CF0030CBCF1010F6F
:1014D800D9D0B9F1000FE1D0B8F5806F28BF4FF02F
:1014E800030B89E74FF0000BEBE70320704700215F
:1014F80093E700BFB3F5007F49D870B51546002AB9
:1015080043D01E468378012B04460BD0022B1AD1F8
:10151800FFF766FDC8B1032833D0022813D1012391
:10152800A37070BD4FF4D06241F44071028240F262
:1015380009424182828200F58E710222C682816050
:10154800868103768270012070BD0123A37094F810
:101558001D312076032BE4D194F81C31023BB342B1
:1015680028BF334699B24BB1034604F58F74E25C49
:1015780005F8012B02339AB28A42F8D300232B7064
:1015880070BD01220023A2702376032070BD0320C2
:10159800704700BF10B58378012B04460ED0022B8C
:1015A80001D0012010BDFFF71BFD0923C340DB0755
:1015B80011D501220023A270237610BD4FF4A0603C
:1015C800002220820220A0706182A260A281626152
:1015D80023760120E6E70228E3D10123A37010BD9A
:1015E80010B58378012B04460ED0022B01D00120C0
:1015F80010BDFFF7F5FC0923C340DB0711D5012215
:101608000023A270237610BD4FF4106000222082C0
:101618000220A0706182A260A2816261237601200B
:10162800E6E70228E3D10123A37010BD10B5837843
:10163800012B04460ED0022B01D0012010BDFFF76C
:10164800CFFC0923C340DB0711D501220023A27078
:10165800237610BD4FF44070002220820220A07033
:101668006182A260A281626123760120E6E70228F6
:10167800E3D10123A37010BD10B58378012B044674
:101688000ED0022B01D0012010BDFFF7A9FC0923C1
:10169800C340DB0711D501220023A270237610BDB9
:1016A8004FF48170002220610220A070A182E282A2
:1016B800A260A28123760120E6E70228E3D1012374
:1016C800A37010BD10B58378012B04460ED0022BF1
:1016D80001D0012010BDFFF783FC0923C340DB07BD
:1016E8000BD501220023A270237610BD0220A07022
:1016F800A160A28123760120ECE70228E9D1012329
:10170800A37010BD10B50B4684B000241146082202
:10171800CDE90224CDE9004322462346FFF744F8E9
:10172800204604B010BD00BF10B584B0012401915B
:1017380090F81D130094002919464FF000039DF8F6
:101748001840029218BF1C461A460394FFF72CF85B
:10175800002004B010BD00BF10B5002484B0CDE94E
:1017680002240122CDE9002119462346FFF71CF87F
:10177800204604B010BD00BF10B584B0019190F8A8
:101788001D13029200294FF000029DF818401946D7
:1017980018BF14460123009303940223FFF704F8AB
:1017A800002004B010BD00BF10B5002484B0CDE9FE
:1017B80002240122CDE9002119460223FEF7F4FF95
:1017C800204604B010BD00BF10B584B09DF8184085
:1017D80000949DF81C400194BDF820400294FEF747
:1017E800C1FF002004B010BD08B5FEF7D1FF0020EE
:1017F80008BD00BF10B400F56072002352F8044F12
:10180800240406D50133102BF8D1FF205DF8044BD2
:10181800704700EB830241F40041D8B25DF8044BF5
:10182800C2F88413704700BF0F2907D800EB810165
:10183800D1F88433C3F30E03C1F884330020704712
:101848000020704738B5D0F87C33DD692978044624
:1018580079B9297BC1B9697B11BBD4F87C33D869C4
:1018680028B102F091FFD4F87C330022DA6100201D
:1018780038BDFFF7B9FF29782046FFF7D5FF297B48
:1018880000232B700029E6D02046FFF7ADFF297B07
:101898002046FFF7C9FF697B00232B730029DCD0A2
:1018A8002046FFF7A1FF697B2046FFF7BDFF002315
:1018B8006B73D2E72DE9F041022284B0012311466F
:1018C8000446FFF72FF9012800F2998001460646E1
:1018D8002046FFF71DF90746002840F09080502069
:1018E800D4F87C8302F048FF0546C8F81C0000289D
:1018F80000F085805022394602F0FCFF1A2303FBD2
:101908000646204696F94E3396F84E13002BBDBF77
:10191800B6F8503369706B813946FFF76BFF6B89F6
:1019280002930323019394F81D33009394F81C3316
:101938006A78287001462046FFF746FF297800227A
:101948002046FEF75FFF00231A460A212046FFF7CC
:10195800E9F8012853D81A2303FB004393F94E23CF
:1019680093F84E13B3F85033002AB4BF6B832B831C
:101978004FF01A0303FB0040B8BFE97390F95633E0
:10198800A8BFA973002B90F85613B0F858233BDB77
:10199800A9732A832046FFF72DFFE97B6873204649
:1019A800FFF728FF2B8B0226CDE9016394F81D333E
:1019B8002873009394F81C33AA7B697B2046FFF7B1
:1019C80003FF6B8B029394F81D33CDE90036204654
:1019D80094F81C33EA7B297B0026FFF7F5FE697B28
:1019E80085F84C6032462046FEF70CFF297B3246CC
:1019F8002046FEF707FF384604B0BDE8F08102270D
:101A0800384604B0BDE8F081E9736A83A97BC1E771
:101A1800D0F87C13C96938B542F2A1124FF4E0231B
:101A2800C0E90423403107220446FFF74BFE054670
:101A380020B9D4F8D433022120469847284638BD27
:101A4800704700BF704700BF704700BF70B5D0F83F
:101A58007C33DD69044695F84C0082B0042809D827
:101A6800DFE800F0091425440B00012802D0042304
:101A780085F84C30012002B070BD00212046FFF7E8
:101A8800FBFD0028F6D185F84C00F3E742F221026D
:101A98004FF4E023A96C2046C4E904230722FFF78A
:101AA80011FE0028E1D1022385F84C30E2E742F22A
:101AB800A1124FF4E023C4E9042305F140010722F1
:101AC8002046FFF7FFFD0028CFD1AA6C85F84C000F
:101AD8006B6C51684B4033F07F43CBD1296C136852
:101AE8009942C7D12046FFF7AFFFC3E795F84D00ED
:101AF80001282CD002280DD1697B2046FEF76CFE08
:101B0800012840D0022804BF012385F84D30D4F8BD
:101B18007C33DD6995F84E30032B2AD0042BA9D1EC
:101B2800297B2046FEF758FE0128A3D1297B2046B1
:101B3800FEF714FEAB6A984202D06A8B90423CD002
:101B4800002385F84E302046FFF77CFF92E76E6A47
:101B58002A8B6B7BE9690090964298BFB2B2204607
:101B6800FFF70AFE022385F84D30D4F87C33DD698F
:101B7800D0E72B7B6A8B296A2046FFF715FE0423E2
:101B880085F84E3076E76B6A2A8B93420AD8002391
:101B98006B6285F84D302046FFF752FFD4F87C334E
:101BA800DD69B7E785F84D009B1AD4F87C136B62A2
:101BB800EB691344EB61CD69ACE72A6A1B1A02444E
:101BC8000321AB622A6285F84E1053E7034AD2F824
:101BD800883043F47003C2F88830704700ED00E0A5
:101BE8002DE9F04F9B4690F8D43385B0012B9DF832
:101BF80038909DF83C80BDF840A04ED000260D4698
:101C08001746C1EB011132468B006BF307020446FD
:101C180000EB810107F07F0C03F1100065F30F2240
:101C2800204423446CF317424FEAD71C6CF31F621D
:101C38004FF0010C84F8D4C381F82680A0F809601D
:101C4800CE769E844260206801F036F8B8F1010F24
:101C58004FEA051616D0711B04EB81015B4681F82B
:101C68001890A1F828A0CDE9018ACDF80090206845
:101C78003A46294601F030F8002384F8D43305B0F9
:101C8800BDE8F08FB9F1010FE5D10028E3D1BAF131
:101C9800BC0F28BF4FF0BC0ADDE7022005B0BDE845
:101CA800F08F00BF90F8D433012B0CD010B5044648
:101CB8000123006884F8D43301F01AFA002384F869
:101CC800D433184610BD0220704700BF00283ED00C
:101CD80030B590F8D533056883B0044603F0FF02A9
:101CE8007BB328460323B5F1A04F84F8D53304BF4E
:101CF8000023A37100F03CFE237C8DF80030251DE5
:101D080095E80E00206800F0E3FD28B102230120C9
:101D180084F8D53303B030BD2068012100F030FECF
:101D28000028F3D1207C95E80E008DF8000020688B
:101D380000F0E4FE0028E9D1012384F8D53303B08C
:101D480030BD80F8D423FEF74FFC2068CAE7012095
:101D5800704700BFF0B58646C1EB01100EEB80005E
:101D68009DF81440069EBDF81C509DF82070C27561
:101D780080F826304FEA011C14BB0324022B477657
:101D880080F82A4025D0A34223D0012B2DD0ACEBDC
:101D980001039A0000240EEB83031046C3E90D5497
:101DA80070445975DE6202F11401A0F84C409EF8A7
:101DB8000620DEF800007144BDE8F04001F026B8C6
:101DC800022780F82A70032BE1D8DFE803F01E0E03
:101DD8000202ACEB01030EEB830372B993F83D00EA
:101DE80040B1022283F82A20D1E7ACEB01030EEBC5
:101DF8008303002283F82A20C9E793F83C20002AAD
:101E0800F8D0022283F82A20C1E7012CBFD1ACEB1D
:101E180001030EEB83031AB955B983F83D40B6E7C1
:101E28009A7E012AB3D193F83C20002AAFD1E1E78A
:101E380093F83D000028DDD0A9E700BF2DE9F04F59
:101E4800056885B00446284600F054FE012802D0F3
:101E580005B0BDE8F08F206800F03EFE0028F7D0FE
:101E6800206800F039FE2368870244BF4FF400124F
:101E78005A61184600F030FE2368C60244BF4FF48A
:101E880080125A61184600F027FE2368400144BFBB
:101E98004FF080625A61184600F01EFE23688107E1
:101EA80044BF02225A61184600F016FE82002368D9
:101EB80026D4184600F010FEC60100F125812068DE
:101EC80000F00AFE000732D4206800F005FE034641
:101ED8009901206832D400F0FFFDC306B8D5256803
:101EE800AB6923F01003AB612E6A06F4F012B2F569
:101EF800802F00F07581AB6943F01003AB61A7E751
:101F08004FF000525A61D5F84024D707D1D4102198
:101F1800284600F06DFD284600F092FD637A022BFA
:101F280000F0C3822046FEF7B3FB2368C1E72046D2
:101F3800FEF7A6FB206808234361C6E701F0D4F842
:101F48006379002B00F0AE82D4F800B000902646EA
:101F580005F5A0654FF0000A5F462FE000F0C0FDD0
:101F6800226810F0040F104600F0A2803A465A4446
:101F78000423C2F808354FF0070386F84D30414670
:101F880001F0B6F82068414600F0AAFD024612F4B6
:101F98000072206837D05F44414601F0A9F84FF439
:101FA8000073C7F80835276862790AF1010A5245B3
:101FB80006F13C0605F1200540F2E080009B0AF09E
:101FC8000F0223FA02F2D207EED52A685FFA8AF8DE
:101FD8001304B9464FEA4A1B41463846BED400F0BE
:101FE8007FFD024612F00402206876D05F44042385
:101FF800C7F808354FF00703414686F84D3001F021
:1020080077F82768D0E74146019200F069FDC107DB
:1020180040F1138107F5A06707EB0B092021C9F8E8
:102028000810F17E019A012906D1F276D9F8042028
:1020380022F48032C9F80420A279002A00F0B9807D
:10204800D9F81000316BC0F31200091AB1630020EF
:10205800012186F84D107064C9F8081096F826100A
:10206800032911D8DFE801F01B021B0257F80B20E7
:1020780042F0005247F80B20012286F84C204146D6
:102088002046FEF709FBA279012A00F01A8196F88A
:102098003C2082F0010286F83C20276884E720680B
:1020A800414601F025F81022C9F80820A279EBE78B
:1020B800414600F015FD226810F4807F104664D078
:1020C8003A465A444FF48071C2F80815082286F837
:1020D8004D20414601F00CF854E74146019200F0CA
:1020E800FFFC8206276840F19480D9442021C9F872
:1020F8000815717E019A012900F01C81B27E012A1F
:1021080000F0CB8027684FE72668D6F84034029362
:10211800D6F840340393039B23F02E030393029BCA
:10212800980707D5029BD90700F1D580039B43F098
:1021380002030393029B1A0715D5039B43F0080378
:102148000393029B5B0740F1CA80617A022900F081
:102158000E81E379012B04BF4EF66022C6F80424F1
:102168002046FEF79BFA029B9F0603D5039B43F08C
:1021780020030393039BC6F84034A0E6BB464FF008
:1021880000735846CBF81430A5E6414600F0A8FC89
:10219800226810F0080F10466AD03A465A440821BF
:1021A800C2F80815062286F84D20414600F0A0FF27
:1021B800E8E67264012286F84D20C9F8082096F8EE
:1021C8002620032A3FF663AF01A151F822F000BF91
:1021D800A720000875200008A7200008752000081F
:1021E800C6F30A12002A3FF486AE06F00F06C6EBC5
:1021F800061104EB8107F96A00293FF47CAEB86B3D
:102208007B6B1044984240F27081042387F84C306D
:1022180071E63846414600F063FC074617F400773C
:10222800206860D04A465A444FF40077C2F80875CF
:10223800414600F05DFF2768B6E62068414600F099
:102248004FFC8306276840F19D804A465A44202166
:10225800C2F80815B27E012A7FF4A6AEF2760322F0
:102268003846414686F84D2000F042FF27689BE635
:10227800414600F035FC226810F4806F104663D0A8
:102288003A465A444FF48061C2F80815092286F884
:102298004D20414600F02CFF74E6F17E00297FF4C2
:1022A80031AF96F82610012918BFF276032286F876
:1022B8004D202068414600F01BFF00222768726409
:1022C80072E6B26B318D013A0A44B2FBF1F2D207E1
:1022D8003FF5DDAE16E72046FEF7D6F926E720469D
:1022E800FEF7E0F93FE7414600F0FAFBC307226832
:1022F80040F1E08010467764414600F0F1FB09F5B3
:10230800A06240065A4403D50121717640219160AC
:10231800F17E29B10021F176516821F480315160B4
:102328000120906086F84D002068414600F0E0FEEC
:10233800276839E6727640F202323846A6F84C2011
:10234800414600F0D5FED9E6414600F0C9FB00063B
:102358007FF518AE3A465A4480212068C2F808151D
:10236800072286F84D20414600F0C2FE0AE6029B8D
:10237800206803F4C023B3F5802F18BF012100F0B3
:1023880037FCEDE63846414600F0AAFB800740F1ED
:10239800C38009F5A06909EB0B0102228A6096F84F
:1023A8004D20013A082A27D801A050F822F000BF92
:1023B8000F2400080D21000879240008652400086E
:1023C8003324000829240008DD2300081924000804
:1023D800DD230008726C022001328242726486F8A2
:1023E8004D0040F20C81B07E00220128726400F09A
:1023F8008481042286F84C2096F84C2041462046D9
:10240800FEF74AF97EE640F20122A6F84C20F3E7EF
:10241800726C013272644FF40172A6F84C20EBE73B
:1024280040F20522A6F84C20E6E7F77E0220012FAD
:1024380086F84D00E0D196F82620032A00F049815D
:1024480012F0FD0F86F84C00D6D159F80B2022F077
:10245800804242F0004249F80B20CDE796F826204A
:1024680040F2022112F0FD0FA6F84C10C4D1ECE79F
:10247800F07E0222012886F84D20BDD186F84C2036
:102488004A6842F480324A60CA6842F04002CA6030
:10249800CA6822F02002CA6096F8262012F0FD0FC2
:1024A800AAD1D2E7D4F800B069E62068012100F08B
:1024B8009FFB37E51046414600F012FB41062268B3
:1024C80043D5B17E052086F84D0009B90121717602
:1024D800104600224146726400F00AFE4A465A44F9
:1024E80040212768C2F808155EE52846009200F0EA
:1024F800CDFA009AFB6A1344FB62BB6B134405F5E3
:10250800A065BB633B8D05EB46119A4208694FEA0B
:10251800461160D02568EEE42068414600F0E0FAF4
:10252800074617F04007206825D009F5A0625A44ED
:1025380040219160B27E052186F84D1002B972647F
:10254800414600F0D5FD27682EE51046414600F0CB
:10255800C7FA074617F00807206827D009F5A062D0
:102568005A44082797600622414686F84D2000F015
:10257800BFFD276818E5414600F0B2FAC1067FF5AD
:10258800C1AD96F82620032A61D012F0FD0266D16B
:102598007264A279002A5BD0F27E012A58D009F52C
:1025A800A0625A44102127689160FDE4414600F07A
:1025B80097FA0246D20620682AD5727E77640421EB
:1025C80086F84D101AB9327E0AB901227276414650
:1025D80000F08EFDE3E7834B0340002B9AD06B5845
:1025E80023F0804343F000436B503C2303FB064336
:1025F80093F83C2082F0010283F83C208AE796F8A1
:10260800262086F84C0012F0FD0F7FF4F5AE1CE78B
:10261800414600F065FA03063BD5A27909F5A069A1
:1026280009EB0B076AB3726C0132022A726446D84E
:10263800022286F84C2059F80B2022F0804242F002
:10264800004249F80B208022BA602768ACE477641E
:10265800042286F84D202068414600F049FDF27EAC
:10266800012A09F5A0629CD102EB0B010020F0764B
:10267800486820F480304860C86840F02000C8608E
:102688008FE7072286F84D202068414600F030FD8C
:10269800D9E74146206800F023FA0246570520682A
:1026A80041462DD5092286F84D2000F021FD09F577
:1026B800A0625A444FF480612768916074E4042250
:1026C80000207064414686F84C202046FDF7E4FF60
:1026D800B9E7B26C01328242B2640BD9726C002045
:1026E800022AB064F07600D837774A6822F480323C
:1026F8004A607EE686F84C007EE6A6F81B20F4E7E2
:1027080000F0EEF981077FF5FDAC09F5A06909EB4A
:102718000B0102228A6096F84D20013A082A3FF6FA
:10272800F1AC01A050F822F0552700080D2100084F
:10273800DD270008BF270008AF2700082924000864
:10274800992700080D2100089927000896F82620E7
:10275800023A40F20121012AA6F84C103FF64CAE8D
:10276800A27972B1012A7FF447AE726B002A3FF456
:1027780043AE318D013A0A44B2FBF1F2D2077FF53C
:102788003BAE96F83D2082F0010286F83D2033E604
:10279800726C022101328A42726486F84D1007D9A0
:1027A8000022726425E640F20222A6F84C2023E6B5
:1027B80086F84C1049E6F27E40F20220012AA6F87B
:1027C8004C007FF419AE0022F2764A6822F4803277
:1027D8004A6011E6F17E0222012986F84D207FF435
:1027E8000BAE07E60000F81F90F8D433012B0FD08A
:1027F80010B504460121006884F8D41300F038FAB3
:10280800206800F0ADF8002384F8D433184610BDD2
:102818000220704790F8D433012B0CD010B5044631
:102828000123006884F8D43300F0D6FC002384F830
:10283800D433184610BD0220704700BF006800F06E
:10284800F7B900BFC1EB011100EB810090F84C0013
:10285800704700BFC1EB011100EB8100806B70472E
:10286800006800F035BA00BF006800F025BA00BF64
:1028780082B00023019302E00369002B09DB019B6E
:1028880001330193019BB3F1706FF5D9032002B0B6
:1028980070470A230193019B2BB1019B013B0193D4
:1028A800019B002BF9D1036943F00103036103E0A5
:1028B800036913F0010307D0019B01330193019BC6
:1028C800B3F1706FF4D9E1E7184602B0704700BF62
:1028D80084B010B50DF10C0C8CE80E009DF8113089
:1028E800012B044624D1836B9DF8182023F48033F0
:1028F8008363C36823F4840323F04003C360C3687D
:10290800012A23F44013C36025D02046FFF7B0FF07
:102918009DF80E30012B07D1A36843F00603A3608E
:10292800A36843F02003A360BDE8104004B07047DB
:10293800C36843F04003C360FFF79AFF9DF8153062
:1029480023B9A36B43F48033A363E1E7A36B23F4B8
:102958008033A363DCE7C36843F48013C360D4E720
:10296800034600209A6842F001029A60704700BF4F
:10297800034600209A6822F001029A60704700BF5F
:1029880038B5C368012923F0C0430546C36018D091
:10299800A9B9C36843F080430C46C36001E0C82C62
:1029A8000DD00A2001F0D0F96B69DB0704F10A04A5
:1029B800F5D4A4F1C800B0FA80F0400938BD012070
:1029C80038BDC36843F000530024C36001E0C82C3D
:1029D800F5D00A2001F0B8F96B69DA0704F10A04A6
:1029E800F5D5A4F1C800B0FA80F04009E6E700BFC9
:1029F80082B00023019302E00369002B09DB019BED
:102A080001330193019BB3F1706FF5D9032002B034
:102A180070478901002341F020010193016103E01F
:102A2800036913F0200307D0019B01330193019B35
:102A3800B3F1706FF4D9E9E7184602B0704700BFE8
:102A480082B00023019302E00369002B09DB019B9C
:102A580001330193019BB3F1706FF5D9032002B0E4
:102A68007047002210230192036103E0036913F009
:102A7800100307D0019B01330193019BB3F1706FE1
:102A8800F4D9EBE7184602B0704700BFF0B55FEA2B
:102A9800920E064602F003071CD000F580558C46BE
:102AA80000231C4601332A684CF8042B9E45F8D1B4
:102AB800043101EB840067B106F58056074431689C
:102AC800002321FA03F200F8012BB84203F10803AE
:102AD800F7D1F0BD0846EEE74269806910407047BB
:102AE80000EB41100346D0F80805D3F80C35184020
:102AF800704700BF406900F00100704784B070B5AE
:102B0800044605A880E80E000023C4F8003EA36B25
:102B18009DF8155043F40013A363A36B23F400231B
:102B2800A363A36B23F48023A363E3685B0642D407
:102B38009DF81730012BD4F8003448D023F0040353
:102B4800C4F8003410212046FFF752FF0146204602
:102B5800FFF776FF0843C0B2003818BF012065B1FF
:102B6800002204F5A0634FF0FF3611460132AA4255
:102B78009E60D96003F12003F8D1174B00214FF074
:102B8800FF329C42A161626118D0144A144B802123
:102B98006162A262C4F800319DF816301BB9A369BE
:102BA80043F01003A361A2690E4B1343A361BDE870
:102BB800704004B07047D4F80034BFE70A4A0B4BA2
:102BC8004FF400716162A262C4F80031E4E743F097
:102BD8000403C4F80034B5E7000004408000600036
:102BE800E0004000080020A3000200010003E0000C
:102BF800D0F8003423F00303C0F80034D0F80024E0
:102C080001F0030313430129C0F8003400F5806084
:102C180008D0022904D141F2707343600020704744
:102C2800012070474BF6803343600020704700BF97
:102C380030B583B000250195D0F840340193019B4D
:102C480023F02E030193019B044643F48073C4F8D8
:102C58004034642001F078F8019B23F480730A2043
:102C6800C4F8403401F070F8284603B030BD00BF06
:102C780082B000230193D0F840340193019B23F0E4
:102C88002E030193019B13F4805F019B01D101295D
:102C98000AD0DB0405D521B9019B23F48053C0F881
:102CA8004034002002B0704743F48053C0F84034E9
:102CB800019B002002B0704782B000230193D0F836
:102CC800403401930198C0F3414002B0704700BFFF
:102CD800D0F8080480B270472DE9F04782B000EBC5
:102CE800411E0EF5A06A9DF82C409DF828800E46DE
:102CF8004FF0FF31CAF808108446BDF8301055B2BD
:102D0800032C7ED8DFE804F00261025440F29D40B3
:102D1800002DCAF80C0051DB3B4884456AD00020DE
:102D28004FF00009CAF8049006F00F07DAF80C60B3
:102D380046F00206CAF80C60DCF818A40126BE406A
:102D480046EA0A06CCF81864DCF8186046F0007603
:102D5800CCF81860CDF80490DCF840640196ED0FCB
:102D6800B8F1020F019E4FEAC5353BD04E469B0590
:102D7800C1F30A013143D20203F0FE530B4302F4BC
:102D8800F0410B43A20402F440222B43134304F006
:102D9800FD0243F48013012ACEF8003505D1DEF890
:102DA800003543F00053CEF8003502B0BDE8F08797
:102DB80040F29D60002DCAF80C00B0DADAF80C0079
:102DC80040F48070CAF80C00A9E740F22520002DD5
:102DD800CAF80C00A3DADAF80C0040F4C070CAF89C
:102DE8000C009CE706F4C026B6F5802618BF01261D
:102DF8007604BCE7DAF80C0040F06000CAF80C0072
:102E08008DE701208CE700BF0000044070B5A04C9E
:102E180091F801E0A04282B04FEA4E1300F0A4807E
:102E280091F806C0BCF1010F00F08F800C6A002CED
:102E38004FD1CD780126002D59D08C8A06FB04F499
:102E4800CC61F604C4F3120426438C7D0344640762
:102E580003F5A06304F0C04434431C610AB18C69D3
:102E68005C61D0F808441E6826F000561E60E443F2
:102E78001E68640704F000543443BCF1010F1C6061
:102E880000F5806638D000245C601C680194019CC1
:102E980024F080440194002D4AD1019C24F400447C
:102EA8000194019C44F000440194019C1C60002A98
:102EB80048D10A6A002A45D0CB79002B42D18B7CB5
:102EC800032B00F2A280DFE813F09500CC009500F8
:102ED800CC008D8A661E2E44B6FBF5F6CD78B6B2C8
:102EE800B6F5807F28BF4FF48076002DA5D1CC6140
:102EF800F604C4F31204A7E791F811C00C7C44EA65
:102F0800CC1444F000445C60DC6844F06004DC608D
:102F180091F807C08C7CBCF1010F4CD0012CB4D1C6
:102F2800002D54D01A680192019A22F08042019231
:102F3800019A42F400420192019A42F00042019241
:102F4800019A1A60002002B070BDCD78F5B98E7C68
:102F58000C6A012E6AD0012A00F0B180CC614FF4CE
:102F68000026C4F312046FE7012A14D08C88B4F544
:102F7800807F7FF455AF474947485A1810615A581F
:102F880022F0804242F000425A50DBE78C8ACC6142
:102F98004FF4002658E78C7C91F806C024F0020410
:102FA8005CEA04047FF43EAFA4463C4CE55825F0A7
:102FB8007005E5503AE7002D47D15D6845F4803546
:102FC8005D60DD68012C45F04005DD600BD1CC6803
:102FD800013C032C07D8DFE804F0636D68025C68E5
:102FE80044F440445C601C680194019C24F08044D3
:102FF800019452E7C46AD31CA4B2C3F38F039C4262
:1030080003D2836943F02003836192B203329208AA
:103018008B6997D000EB0E3000F5805003EB8202ED
:1030280053F8041B01609A42FAD18BE7CE68BC2C96
:1030380006F1FF3621D8012ECC6151D90426CE6085
:103048004FF0010C4FF40026FEE6012C02D0032CB1
:103058007FF468AF012D02BF5A6842F480325A608B
:1030680060E73469D31CA4B2C3F38F039C42CCD26B
:10307800836943F080638361C7E7012E8C8A8CBF24
:1030880001260226CE60C1E907444FF40026DBE69C
:103098000000044000050440000008800C050440BE
:1030A8005C6844F400445C609DE75C6844F48044D8
:1030B8005C6098E75C6844F00E045C6093E78E8A75
:1030C800A642BFF44BAF8C7DCE610344640703F581
:1030D800A06346F4002604F0C04434431C61BEE6F5
:1030E8000326CE60ACE700BFD0F8140480B2704766
:1030F80070B400EB411183B0002301F5A062019385
:10310800D1F80035D1F8006555688468A4064FEAFF
:10311800934318D5002D16DB002E10DADD070ED4E8
:10312800D1F8003543F08043C1F8003583689B0629
:103138002ED5D1F8003543F00043C1F80035002002
:1031480003B070BC7047DC07EAD5D1F8003543F00E
:103158008043C1F80035D0F8103413F47F0FD1F84C
:10316800003531D123F00043C1F80035D1F80035DE
:1031780043F00043C1F8003502E01368002BDEDAA3
:10318800019B01330193019BB3F57A7FF5D9D6E70B
:10319800C36A13F47F0FD1F8003515D123F000432B
:1031A800C1F80035D1F8003543F00043C1F80035C7
:1031B80002E01368002BC2DA019B01330193019BE3
:1031C800B3F57A7FF5D9BAE743F000430020C1F898
:1031D800003503B070BC704710B582B0002301936E
:1031E800836823F00103102183600446FFF700FC85
:1031F80001462046FFF724FC0843C0B204F5A0624C
:10320800003818BF012004F5E0619446DCF800306E
:1032180023F0802343F080434CF8203B8C45F5D1C4
:10322800136823F4004343F04043136002E013683B
:10323800002B06DA019B01330193019BB3F57A7FDA
:10324800F5D920328A42EBD14FF0FF33C4F8143459
:103258006361A36843F00103A36002B010BD00BF1F
:10326800002800F06A812DE9F0410368DD0782B08B
:1032780004462FD59F498A6802F00C02042A00F000
:10328800EF808A6802F00C02082A00F0E580636883
:10329800B3F5803F00F0EE80B3F5A02F00F0798100
:1032A800944D2A6822F480322A602A6822F4802207
:1032B8002A60002B40F0E38000F040FD064605E060
:1032C80000F03CFD801B642800F203812B689F03FB
:1032D800F6D423689D0728D5864A916811F00C0F0B
:1032E80000F09280916801F00C01082900F08880B4
:1032F800E368002B00F010817F4B7E4E01221A609C
:1033080000F01CFD054605E000F018FD401B0228F2
:1033180000F2DF8033689F07F6D53368226923F00F
:10332800F80343EAC203336023681A0753D45D07DE
:1033380030D5704A136C13F0805300F0818000255B
:103348006E4E3368D80540F1B480A368012B00F0B5
:10335800C480052B00F02D81664E326F22F00102E9
:103368003267326F22F004023267002B40F0BA80D5
:1033780000F0E4FC41F28838074605E000F0DEFC86
:10338800C01B404500F2A580336F9B07F6D4002D83
:1033980040F00981A369D3B1564DAA6802F00C0226
:1033A800082A00F0CC80022B534B4FF000021A661B
:1033B80000F0098100F0C2FC044605E000F0BEFC04
:1033C800001B022800F285802B689B01F6D40020A0
:1033D80002B0BDE8F08163690BB3474B454E01224B
:1033E800C3F8802E00F0AAFC054604E000F0A6FC15
:1033F800401B02286DD8736F9B07F7D5236896E7A3
:10340800526851023FF574AF3A4A1268920744D5A0
:10341800E268012A41D0012002B0BDE8F081364AB5
:10342800344EC2F8803E00F089FC054604E000F006
:1034380085FC401B02284CD8736F9F07F7D4DDE743
:103448000193136C43F080531364136C03F080539F
:103458000193019B012573E74A6851027FF517AF75
:10346800244A126892037FF535AF6268002A7FF418
:1034780031AFD0E71F4A136843F48033136000F07C
:103488005DFC1C4E054604E000F058FC401B642817
:103498001FD833689B03F7D51BE7164920690A68CC
:1034A80022F0F80242EAC0020A601A077FF53FAF2D
:1034B80091E7336843F48073336000F03FFC0746BC
:1034C8003368D9053FF541AF00F038FCC01B02282E
:1034D800F6D9032002B0BDE8F081064A136F43F025
:1034E8000103136700F02AFC024F064641F28838B0
:1034F8000BE000BF00380240000047420070004067
:1035080000F01CFC801B4045E3D83B6F9A07F7D5B9
:10351800002D3FF43FAF46E0424A434E136000F0AF
:103528000DFC054604E000F009FC401B0228D0D839
:1035380033689907F7D42368F7E601207047012B11
:103548003FF469AF6B68E26903F4800191427FF44C
:1035580062AF226A03F03F0191427FF45CAF616A77
:1035680047F6C0721A40B2EB811F7FF454AFA26ACB
:10357800520803F44031013AB1EB024F7FF44BAFEC
:10358800E26A03F07063B3EB026F14BF01200020FE
:103598001EE7254B1A6842F480221A601A6842F422
:1035A80080321A606BE7204A136C23F0805313644F
:1035B800F0E61D4B1A6F42F004021A671A6F42F0C8
:1035C80001021A678EE700F0B9FB064605E000F035
:1035D800B5FB801B02283FF67CAF2B689901F6D417
:1035E800D4E90731626A0B4343EA8213D4E90A201B
:1035F80052080C4943EA0063013A43EA02430122B4
:103608006B600A6600F09AFB074D044605E000F07F
:1036180095FB001B02283FF65CAF2B689A01F6D594
:10362800D5E600BF0000474200380240164908B5F9
:103638008B6803F00C03042B1BD0082B01D0134814
:1036480008BD4A684B68496813F4800302F03F02DA
:1036580011D10E48C1F38811A1FB0001FCF790FDC0
:10366800094B5B68C3F3014301335B00B0FBF3F024
:1036780008BD074808BD0648C1F388110023A1FB0F
:103688000001FCF77DFDEBE7003802400024F40060
:1036980000127A00002800F08780484A136803F077
:1036A80007038B422DE9F0410D46044609D2CBB2FF
:1036B8001370136803F007038B4202D00120BDE8A2
:1036C800F0812368980714D5590704D53C498A68BE
:1036D80042F4E0528A601A0704D539498A6842F4EC
:1036E80060428A603649A0688A6822F0F002024384
:1036F8008A60DF0721D56268012A57D0931E012B03
:103708002F4B1B684DD99907D8D52D4EB36823F098
:1037180003031343B36000F011FB41F288380746F6
:1037280004E000F00BFBC01B404544D8B368626856
:1037380003F00C03B3EB820FF3D1204A136803F0B4
:103748000703AB4206D9EBB21370136803F0070303
:10375800AB42B3D123685A0706D51949E0688A688D
:1037680022F4E05202438A601B0707D5144A2169F4
:10377800936823F4604343EAC1039360FFF756FF5D
:103788000F4A104C92681049C2F303120346A25C18
:103798000E48D34000680B6000F086FA0020BDE8B0
:1037A800F0819801B1D489E701207047044B1B6868
:1037B8009E03AAD482E7032081E700BF003C0240B1
:1037C800003802404C4A0008200000202800002051
:1037D800044B05499B68054A0868C3F38223D35CF8
:1037E800D84070470038024020000020444A0008B2
:1037F800F0B5036813F0050F83B0044604D19807A9
:103808003BD4002003B0F0BD454B464E00229A66DB
:1038180000F094FA054604E000F090FA431B022BEE
:1038280028D833681B01F7D4D4E901131B0743EAEE
:1038380081133B4AC6F884300123936600F07EFA70
:10384800384E054604E000F079FA431B022B11D8E4
:1038580033681F01F7D52368D1E700F06FFA41F20A
:10386800883706462B6F9B073CD400F067FA801B0D
:10387800B842F7D9032003B0F0BD2A4B2A4D0022E5
:1038880001921A6C42F080521A641B6C03F0805348
:103898000193019B2B6843F480732B6000F04EFA70
:1038A800064604E000F04AFA831B022BE2D82B6894
:1038B800D905F7D51B4DE3682A6F12F4407203F45B
:1038C800407112D08A4210D02B6F154A0121C2F8DC
:1038D800401E23F440730021C2F8401E2B672B6F53
:1038E800DA07BAD4E36803F44071B1F5407F0BD02E
:1038F8000C498A6822F4F8128A600A4A116FC3F3E5
:103908000B030B4313677CE70648826823F070417A
:1039180021F4407122F4F8120A438260EDE700BFF7
:10392800000047420038024000700040012801D0E2
:10393800002070470E4B9A68110201D50D48704758
:103948005A685B6852024CBF0B4A0C4A03F03F03AB
:10395800B2FBF3F2064BD3F88400D3F88430C0F3FB
:10396800881002FB00F0C3F30273B0FBF3F070475A
:10397800003802400080BB0000127A000024F400E6
:103988002DE9F04F00230C68DFF810A285B04FF046
:10399800010B894603E00133102B00F09A800BFAE3
:1039A80003F202EA0408A243F5D1D9F8041001F0A1
:1039B800030C5A0003250CF1FF379540012F6FEADD
:1039C800050540F28980BCF1030F08D0C76807EAF3
:1039D800050ED9F80870974047EA0E07C7600768D0
:1039E8000CFA02F23D402A4311F4403F0260D2D063
:1039F80000220392DAF8442042F48042CAF84420B4
:103A0800DAF8442002F480420392039A23F0030276
:103A180002F1804203F003070F2602F59C32BF0033
:103A280006FA07FC5A4E9568B04225EA0C0527D0DD
:103A380006F58066B04200F08780564EB04200F02E
:103A48008980DFF85CC1604500F08A80DFF854C1E6
:103A5800604500F08B80DFF850C1604500F08C8035
:103A6800DFF848C1604500F08D80DFF844C160454B
:103A78000CBF4FF0070C4FF0080C0CFA07F73D434A
:103A88009560454A9268CE026FEA0805424E54BFD7
:103A98002A4048EA0202B260F2683F4E8F0254BFE1
:103AA8002A4048EA0202F26072688E033A4E54BF16
:103AB8002A4048EA020272603268C90303F101032E
:103AC800354954BF2A4048EA0202102B0A607FF4A5
:103AD80066AF05B0BDE8F08F876807EA050ED9F82C
:103AE8000C70974047EA0E078760476827EA080E78
:103AF800C1F300179F4047EA0E074760C76807EA07
:103B0800050ED9F80870974047EA0E07BCF1020F76
:103B1800C7607FF464AFDF0800EB870700973E6A51
:103B2800D9F81070019603F0070E4FEA8E0E0F2693
:103B380007FA0EF706FA0EFE019E26EA0E0E009E02
:103B480047EA0E0737624AE74FF0010C0CFA07F70D
:103B58003D4395E74FF0020C0CFA07F73D438FE71A
:103B68004FF0030C0CFA07F73D4389E74FF0040CBC
:103B78000CFA07F73D4383E74FF0050C0CFA07F7FB
:103B88003D437DE74FF0060C0CFA07F73D4377E716
:103B98000000024000080240003C0140003802409A
:103BA800000C0240001002400014024000180240BD
:103BB800001C024002B90904816170470749CA68BC
:103BC80003024FF6FF0003F4E0630240134343F09F
:103BD800BF6343F40033CB60704700BF00ED00E0E3
:103BE8001B4BDB68C3F3022300B5C3F1070EBEF11C
:103BF800040F03F1040C28BF4FF0040EBCF1060FAC
:103C08001CD9A3F1030C4FF0FF3303FA0CF322EA9B
:103C180003024FF0FF3303FA0EF321EA030303FA1A
:103C28000CF313431B010028DBB20ADB00F16040F0
:103C380000F5614080F800335DF804FB00229446EB
:103C4800E7E7044A00F00F00024413765DF804FB2E
:103C580000ED00E0FCEC00E0002807DB044A410925
:103C6800012300F01F00834042F82130704700BF55
:103C780000E100E00138B0F1807F01D301207047F6
:103C880010B44FF0E023074C58614FF0F00C84F863
:103C980023C00022072110469A615DF8044B196180
:103CA800704700BF00ED00E038B50E4A0E4B1278A1
:103CB800054618684FF47A73B3FBF2F3B0FBF3F0E0
:103CC800FFF7D8FF08B90F2D01D9012038BD0446E8
:103CD800024629464FF0FF30FFF782FF034B20468C
:103CE8001D6038BD2400002020000020280000208E
:103CF80008B50B4B1A6842F400721A601A6842F44D
:103D080080621A601A6842F480721A600320FFF712
:103D180055FF0020FFF7C8FFFCF7A8FD002008BDED
:103D2800003C0240034A044B11681B780B441360A3
:103D3800704700BF5009002024000020014B18687C
:103D4800704700BF5009002038B50446FFF7F6FF5A
:103D5800631C054602D0044B1B781C44FFF7EEFF9A
:103D6800401BA042FAD338BD24000020002800F0F0
:103D7800BA8070B590F83D30044603F0FF02002B7E
:103D880000F09D802368242284F83D201A6822F0E0
:103D980001021A601A6842F400421A601A6822F492
:103DA80000421A60FFF714FD504B65689D4227D802
:103DB8004F4B984227D94F4B6A00A3FB0035431E4F
:103DC800B3FBF2F32268516821F03F0141EA9541C3
:103DD8005160116A4FEA954C0CF1010C21F03F013A
:103DE80041EA0C011162D16940F6FC70013321F4FB
:103DF8004F41034221F0FF0171D0C3F30B0334E0BC
:103E08003D4B984201D8012070BD2268394B3B4E8A
:103E1800A3FB003C431E506820F03F0040EA9C4052
:103E280050604FEA9C414FF4967000FB01F1A6FBED
:103E38000161106A890920F03F00013101431162D4
:103E4800D169A06821F44F4121F0FF0100283BD03F
:103E580005EB850505EB8505B3FBF5F30133C3F3E6
:103E68000B03002B3DD043F440430B43D361D4E90B
:103E780007301168034321F0C0010B4313609168B8
:103E8800D4E9030321F40341034321F0FF010B4369
:103E98009360D4E90530D168034321F0FF010B4357
:103EA800D3601168002341F00101202011602364D0
:103EB80084F83D00236384F83E30184670BD80F8CE
:103EC8003C20FCF7F1FC5DE705EB4505B3FBF5F39A
:103ED8000133C3F30B0323B143F40043C5E70423C1
:103EE800C3E70123C1E70120704700BFA086010096
:103EF8007F841E0083DE1B43FF083D00D34D621004
:103F0800002800F09280F8B590F84130044603F09C
:103F1800FF02002B76D021686069022284F84120D4
:103F2800CB6923F47B6323F00F039042CB610A62D1
:103F380066D0D4E90232002A14BF202510250120BA
:103F4800202B98BF6D00FFF7F1FCD4E90421B2F5EE
:103F5800007F64D0B0FBF5F000EB80004300B3FBBA
:103F6800F1F333490533A1FB03131809811EFD2919
:103F7800C3F3C0034DD8216840EA032002430A6214
:103F8800CB69E668D4E9012023F47B6342EA0005A3
:103F980023F00F032B43A56933432B4343F40063FA
:103FA800CB61236A012B25D1224B234F67639942AA
:103FB8000CBF22494FF04021B2F5007FCB6923F4B2
:103FC8007B6323F00F03CB6118BFB2FA82F24FF084
:103FD80002030B6218BF5209CB6914BF12024FF4D7
:103FE8008072304302439BB22A4313439BB243F48B
:103FF8000063CB6100200123606484F84130F8BD80
:104008002269BBE70E4B80F840204363FCF784FC31
:1040180081E7636C43F0100363640120F8BDE36833
:104028000BB1AD0096E7ED0094E70120704700BFA3
:10403800CDCCCCCC003800406541000800340040AD
:1040480059400008704700BF704700BF704700BF65
:1040580010B5036884B09A68019290F84120042A48
:10406800044605D094F84130032B31D004B010BD7C
:10407800019AD1070FD55A6852060CD5C16ADA6879
:1040880021F8022B428EC162013A92B24286428ED8
:1040980092B2002A4AD0019B5906E3D523685A6890
:1040A8009206DFD55A68002122F060025A60029118
:1040B800DA6802929B6802930123029A84F84130DD
:1040C800636C43F0020320466364FFF7BFFFC9E750
:1040D800019B9B070FD523685A6810060BD5616AA8
:1040E80031F8022BDA60628D6162013A92B2628520
:1040F800628D92B222B3019B1907B7D523685A681B
:104108009206B3D55A68002122F0A0025A600391A2
:104118009B6803930123039A84F84130636C43F04E
:10412800040320466364FFF791FF9FE75A68012163
:1041380022F060025A6080F84110FFF785FFAAE775
:104148005A68012122F0A0025A60204684F84110E2
:10415800FFF778FFCFE700BF704700BF10B5954A5B
:10416800036886B09342996800910CBFA2F58062FB
:104178004FF04022044691680191596802914168C4
:104188005068039031F4007176D0019B98071BD5D5
:10419800039B190618D5636A198802336362D160D4
:1041A800638D013B9BB26385638D9BB263B9536892
:1041B80023F0A0035360638E9BB22BB9012384F8CC
:1041C80041302046FFF7C8FF009BDA071CD5029B49
:1041D8005B0619D5E36A2268981CD168E0621980E9
:1041E800638E013B9BB26386638E9BB263B953684F
:1041F80023F060035360638D9BB22BB9012384F8CD
:1042080041302046FFF7A8FF009B58061BD5029BAC
:10421800990618D5236867495A688B4222F06002CC
:104228005A600CBF644A4FF040220121536823F0C2
:10423800A003536084F84110636C43F002032046E6
:104248006364FFF703FF019B1A076FD5039B9B0667
:104258006CD52368574A93420CBF57494FF0402109
:1042680001204A6822F0A0024A605A6822F06002DF
:104278005A6084F841004FE0009A900702D5029AEC
:10428800110655D4019BDA0702D5039B5B066BD454
:10429800019B580622D5039B99061FD52368454ADA
:1042A80093420CBF44494FF0402100204A6822F055
:1042B80060024A605A6822F0A0025A600490DA68E4
:1042C80004929B6804930123049A84F84130636C38
:1042D80043F0020320466364FFF7B8FE009B1A0709
:1042E80024D5029B9B0621D5236832495A688B4204
:1042F80022F0A0020CBFA1F580614FF040215A6066
:104308004A68002022F060024A6005909B68059385
:104318000123059A84F84130636C204643F0040376
:10432800636406B0BDE81040FFF790BE06B010BD4C
:10433800626A118802326262D960628D013A92B271
:104348006285628D92B2002A9CD15A6822F0A0023E
:104358005A60638E9BB2002B94D1012384F84130BC
:104368002046FFF7F9FE8DE72268124B9A4208BFF4
:10437800114AE36A18BF4FF04022981CD168E062E6
:104388001980638E013B9BB26386638E9BB2002BC0
:104398007FF47EAF536823F060035360638D9BB254
:1043A800002B7FF475AF012384F841302046FFF7D6
:1043B800D3FE6DE7003800400034004000285CD090
:1043C80070B50446406A002847D00023C4E9043386
:1043D80094F851300022A26203F0FF01002B42D072
:1043E80094462168A568A269266A022384F8513098
:1043F8000B6823F040030B60636805F4044503F47D
:1044080082732B43E56805F400652B43256905F0A5
:1044180002052B43656905F001052B43E56906F0A4
:10442800800E02F4007605F0380533432B43120C56
:1044380000F0100043EA0E0302F0040243EA0C0302
:1044480002430B604A60CB69002023F40063012219
:10445800CB61606584F8512070BD6368B3F5827FD5
:10446800B6D0E061B4E7204684F85010FCF7B4FAFF
:10447800D4E9090303F4005CB3E70120704700BFE7
:104488002DE9F047089D0F4604468C46002B48D17D
:104498008A42164661D9B2FA82F34BB1C3F12002BF
:1044A80001FA03FC20FA02F29E4042EA0C0C9C40FE
:1044B8004FEA164EB7B2BCFBFEF1220C0EFB11CC34
:1044C80042EA0C4201FB07F0904209D9B21801F107
:1044D800FF3C80F0EE80904240F2EB80023932449B
:1044E800121AA4B2B2FBFEF00EFB102244EA0244F8
:1044F80000FB07F7A74209D9341900F1FF3280F011
:10450800DA80A74240F2D7803444023840EA0140BA
:10451800E41B00211DB1DC400023C5E90043BDE8D0
:10452800F0878B4206D90DB1C5E900010021084684
:10453800BDE8F087B3FA83F1002948D1BB4202D322
:10454800824200F20781841A67EB03020120944635
:10455800002DE4D0C5E9004CE1E7002A00F0928084
:10456800B2FA82F3002B40F0A8808A1A4FEA164E5E
:104578001FFA86FC0121200CB2FBFEF70EFB172266
:1045880040EA02420CFB07F0904207D9B21807F143
:10459800FF3802D2904200F2E2804746121AA4B2D3
:1045A800B2FBFEF00EFB102244EA02440CFB00FCB6
:1045B800A44507D9341900F1FF3202D2A44500F20C
:1045C800CB801046A4EB0C0440EA0740A2E7C1F1F7
:1045D80020068B4022FA06FC4CEA030C07FA01F489
:1045E80020FA06F3F7404FEA1C49234300FA01F882
:1045F8001FFA8CFEB7FBF9F01C0C09FB107744EA94
:10460800074400FB0EF7A74202FA01F20AD91CEB95
:10461800040400F1FF3A80F09B80A74240F29880A2
:1046280002386444E41B9FB2B4FBF9F309FB13445A
:1046380047EA044403FB0EFEA64509D91CEB040413
:1046480003F1FF3780F08280A6457FD9023B64449E
:1046580043EA0040A4EB0E04A0FB02E7BC42734609
:10466800B94663D360D05DB1B8EB030264EB0904CB
:1046780004FA06F622FA01F31E43CC40C5E90064A9
:1046880000214CE76208480842EAC1710B0C43EA72
:1046980000438AB242EA0342B3FBF6F1E407B446A8
:1046A8003746B6461F23B0FBF6F0D21B41EA00415D
:1046B80061E7614614E7104628E7C3F1200120FAB4
:1046C80001F29E4027FA01F19F403A434FEA164E05
:1046D8001FFA86FCB1FBFEF70EFB1710110C41EA1E
:1046E800004107FB0CF8884504FA03F43AD971181D
:1046F80007F1FF3001D288451FD8A1EB0801B1FBB3
:10470800FEF808FB0CF70EFB181192B242EA0142C0
:10471800BA422FD2B21808F1FF31C6D2BA42C4D277
:10472800A8F102013244C0E7F0459CD2BEEB020377
:1047380067EB0C070138B94695E7A6EB0808414432
:10474800B81EB1FBFEF808FB0CF7DCE73B467FE739
:10475800504667E70846FBE63444023832E7023F32
:1047680032441BE7A1EB08013846B1FBFEF808FB11
:104778000CF7C8E7414698E7024B0146186800F075
:104788002DB800BF2C000020024B0146186800F02D
:10479800EFB800BF2C00002070B50F4E0C463168F2
:1047A800054611B900F0AEF830602146284600F001
:1047B800A9F8431C03D14FF0FF34204670BDC41C38
:1047C80024F00304A042F8D0211A284600F09AF8F1
:1047D8000130F2D1EFE700BF540900202DE9F8437A
:1047E800CD1C25F0030508350C2D38BF0C25002DF0
:1047F800064601DBA94204D90C2333600020BDE83A
:10480800F883DFF8D48000F069F8D8F800301C4647
:1048180044BB29463046FFF7BFFF431C044658D126
:10482800D8F800402746002F43D1002C4BD02368EE
:104838003946304604EB030900F064F8814542D15B
:1048480021686D1A29463046FFF7A6FF01303AD095
:1048580023682B442360D8F800305A6862BBC8F834
:1048680000700FE02268521B20D40B2A17D9611957
:10487800A342256018BF5960636808BFC8F80010D4
:1048880062514B60304600F02FF804F10B00231DF5
:1048980020F00700C21A1CBF1B1AA350AFE76268BA
:1048A800A3420CBFC8F800205A60EBE723466468AF
:1048B800AEE73C467F68B6E71A465B68A342FBD181
:1048C80000235360DEE70C233360304600F00CF819
:1048D80094E70560D6E700BF58090020014800F0BA
:1048E80045B800BF980A0020014800F040B800BF52
:1048F800980A002002440346934200D1704703F807
:10490800011BF9E738B5064D0023044608462B601D
:1049180000F078F8431C02D12B6803B1236038BD3E
:10492800940A002070B50D4B0D4D5B1B9C100026A2
:10493800A64209D100F074F80A4D0B4B5B1B9C1082
:104948000026A64205D170BD55F8043B98470136AC
:10495800EEE755F8043B98470136F2E7644A000849
:10496800644A0008644A0008684A000870477047AB
:1049780038B50546002941D051F8043C0C1F002BDE
:10498800B8BFE418FFF7AAFF1D4A136833B963607C
:1049980014602846BDE83840FFF7A6BFA34208D9EF
:1049A800206821188B4201BF19685B6809182160CB
:1049B800EDE71A465B680BB1A342FAD911685018A3
:1049C800A0420BD120680144501883421160E0D105
:1049D80018685B68536008441060DAE702D90C2352
:1049E8002B60D6E7206821188B4204BF19685B68E2
:1049F800636004BF091821605460CAE738BD00BF6E
:104A080058090020044A05491368002B08BF0B46C3
:104A180018441060184670479C0A0020A00A00201D
:104A2800F8B500BFF8BC08BC9E467047F8B500BF93
:084A3800F8BC08BC9E46704763
:104A40004344430000000000010203040000000092
:0C4A500000000000010203040607080932
:084A5C002CFAFF7F01000000AD
:044A6400250200081F
:044A6800FD01000844
:104A6C00404A000802000000BD1800084D1800085C
:104A7C00191A0008551A000849180008000000000F
:104A8C000024F400010000001000000030000020A1
:104A9C00000000005C090020C40900202C0A002042
:104AAC0000000000000000000000000000000000FA
:104ABC0000000000000000000000000000000000EA
:104ACC0000000000000000000000000000000000DA
:0C4ADC00000000000000000000000000CE
:0400000508000249A4
:00000001FF
